:100000000C94FF0C0C94660D0C94660D0C94660D0C
:100010000C94660D0C94660D0C94660D0C94660D94
:100020000C94660D0C94660D0C94660D0C94660D84
:100030000C94660D0C94CA0D0C940A0E0C94660D6B
:100040000C94660D0C94660D0C94660D0C94660D64
:100050000C94660D0C94660D0C94660D0C94660D54
:100060000C94660D0C94660D0C94660D0C94660D44
:100070005A5501200101003808000000000000006E
:100080000000000000000000000000000000000070
:100090008100450027FF24FF2A902B1C210C22FB06
:1000A000850084008903888D81096F0244424700DE
:1000B0004501B083B300B10125118A4F8B039F1016
:1000C000A210A310A710AE10B610BB10C010C31022
:1000D000D310D610D910141117111A1100000000F6
:1000E0000000000000000000000000000000000010
:1000F0000000000000000000000000000000000000
:1001000000000000000000000000000000007F0070
:100110000000007F7F00000000007F000000000062
:100120007F00000000007F00000000007F00000052
:10013000007F7F7F0000000000000000007F7F7FC5
:1001400000007F0000007F00000000007F00000032
:100150007F7F0000007F000000007F0000000000A3
:100160007F7F7F7F7F00000000000000007F7F7F97
:1001700000007F0000007F00000000007F00007F83
:100180007F7F0000000000007F007F0000007F00F4
:10019000007F7F7F00000000000000000000007F63
:1001A000000000007F7F0000007F007F00007F00D4
:1001B000007F00007F7F7F7F7F000000007F0000C6
:1001C0000000007F00000000000000007F7F7F7FB4
:1001D0007F007F00000000007F00000000007F7FA4
:1001E0007F7F0000000000007F007F0000007F0094
:1001F000007F7F7F000000000000000000007F7F84
:100200000000007F000000007F00000000007F7FF2
:100210007F7F00007F0000007F007F0000007F00E4
:10022000007F7F7F00000000000000007F7F7F7F55
:100230007F00000000007F000000007F0000000041
:100240007F000000007F00000000007F0000000031
:10025000007F00000000000000000000007F7F7FA2
:1002600000007F0000007F007F0000007F00007F13
:100270007F7F00007F0000007F007F0000007F0084
:10028000007F7F7F0000000000000000007F7F7F74
:1002900000007F0000007F007F0000007F00007FE3
:1002A0007F7F7F00000000007F000000007F0000D3
:1002B000007F7F000000000000000000007F7F7FC3
:1002C00000007F0000007F007F0000007F007F00B3
:1002D00000007F007F7F7F7F7F007F0000007F0026
:1002E0007F0000007F000000000000007F7F7F7F14
:1002F00000007F0000007F007F0000007F007F7F04
:100300007F7F00007F0000007F007F0000007F00F3
:100310007F7F7F7F0000000000000000007F7F7F64
:1003200000007F0000007F007F00000000007F00D1
:10033000000000007F00000000007F0000007F0040
:10034000007F7F7F00000000000000007F7F7F7F34
:1003500000007F0000007F007F0000007F007F0022
:1003600000007F007F0000007F007F0000007F0012
:100370007F7F7F7F00000000000000007F7F7F7F85
:100380007F007F00000000007F00000000007F7FF2
:100390007F7F00007F00000000007F000000000061
:1003A0007F7F7F7F7F000000000000007F7F7F7FD6
:1003B0007F007F00000000007F00000000007F7FC2
:1003C0007F7F00007F00000000007F000000000031
:1003D0007F000000000000000000000000F8F8F8B6
:1003E0000000F8000000F800F80000F8F800F8003D
:1003F000F800F800F8F80000F800F8000000F80035
:1004000000F8F8F800000000000000000000F8000C
:10041000000000F8F80000000000F80000000000F4
:10042000F80000000000F80000000000F8000000E4
:1004300000F8F8F8000000000000000000F8F8F8EC
:100440000000F8000000F80000000000F8000000C4
:10045000F8F8000000F800000000F80000000000BC
:10046000F8F8F8F8F80000000000000000F8F8F8CC
:100470000000F8000000F80000000000F80000F89C
:10048000F8F8000000000000F800F8000000F80094
:1004900000F8F8F80000000000000000000000F87C
:1004A00000000000F8F8000000F800F80000F80074
:1004B00000F80000F8F8F8F8F800000000F8000074
:1004C000000000F80000000000000000F8F8F8F854
:1004D000F800F80000000000F80000000000F8F844
:1004E000F8F8000000000000F800F8000000F80034
:1004F00000F8F8F800000000000000000000F8F824
:10050000000000F800000000F80000000000F8F80B
:10051000F8F80000F8000000F800F8000000F8000B
:1005200000F8F8F80000000000000000F8F8F8F803
:10053000F80000000000F800000000F800000000D3
:10054000F800000000F80000000000F800000000C3
:1005500000F80000000000000000000000F8F8F8BB
:100560000000F8000000F800F8000000F80000F8B3
:10057000F8F80000F8000000F800F8000000F800AB
:1005800000F8F8F8000000000000000000F8F8F89B
:100590000000F8000000F800F8000000F80000F883
:1005A000F8F8F80000000000F800000000F8000073
:1005B00000F8F800000000000000000000F8F8F863
:1005C0000000F8000000F800F8000000F800F80053
:1005D0000000F800F8F8F8F8F800F8000000F8005B
:1005E000F8000000F800000000000000F8F8F8F83B
:1005F0000000F8000000F800F8000000F800F8F82B
:10060000F8F80000F8000000F800F8000000F8001A
:10061000F8F8F8F8000000000000000000F8F8F812
:100620000000F8000000F800F80000000000F800EA
:1006300000000000F80000000000F8000000F800D2
:1006400000F8F8F80000000000000000F8F8F8F8E2
:100650000000F8000000F800F8000000F800F800C2
:100660000000F800F8000000F800F8000000F800B2
:10067000F8F8F8F80000000000000000F8F8F8F8BA
:10068000F800F80000000000F80000000000F8F892
:10069000F8F80000F80000000000F800000000007A
:1006A000F8F8F8F8F800000000000000F8F8F8F892
:1006B000F800F80000000000F80000000000F8F862
:1006C000F8F80000F80000000000F800000000004A
:1006D000F800000000000000000000000000000022
:1006E000000000000000000000000000000000000A
:1006F00000000000000000000000000000000000FA
:100700000000000000000000000000000000FF00EA
:10071000000000FFFFFF000000FFFFFF00000000DF
:10072000FF0000000000FF000000000000000000CB
:100730000000FF000000000000000000FFFF00FFBD
:10074000FF00FFFF00FFFF00FF0000FF00000000B0
:100750000000000000000000000000000000000099
:100760000000000000000000000000000000000089
:10077000000000FF00FF0000FFFFFFFFFF0000FF81
:1007800000FF000000FF00FF0000FFFFFFFFFF0071
:1007900000FF00FF000000000000000000FF00005C
:1007A000000000FFFFFF0000FF000000000000FF4E
:1007B000FF000000000000FF0000FFFFFF0000003E
:1007C0000000FF000000000000000000FFFF00002C
:1007D000FF00FFFF0000FF00000000FF000000001E
:1007E000FF00000000FF00000000FF0000FFFF000E
:1007F000FF0000FFFF0000000000000000FF0000FD
:100800000000FF00FF000000FF00FF00000000FFED
:1008100000000000FF00FF00FF00FF0000FF0000DD
:1008200000FFFF00FF0000000000000000FFFF00CD
:10083000000000FFFF00000000FF000000000000BB
:1008400000000000000000000000000000000000A8
:100850000000000000000000000000000000FF0099
:10086000000000FF0000000000FF0000000000FF8B
:100870000000000000FF0000000000FF000000007A
:100880000000FF00000000000000000000FF00006A
:1008900000000000FF0000000000FF00000000005A
:1008A000FF0000000000FF0000000000FF0000004B
:1008B00000FF000000000000000000000000000039
:1008C000000000FF00FF000000FFFFFF0000FFFF2F
:1008D000FFFFFF0000FFFFFF000000FF00FF000020
:1008E0000000000000000000000000000000000008
:1008F00000000000FF0000000000FF000000FFFFFC
:10090000FFFFFF000000FF0000000000FF000000EC
:1009100000000000000000000000000000000000D7
:1009200000000000000000000000000000000000C7
:100930000000000000000000000000FFFF000000B9
:1009400000FFFF00000000FF0000000000000000AA
:100950000000000000000000000000000000FFFF99
:10096000FFFFFF000000000000000000000000008A
:100970000000000000000000000000000000000077
:100980000000000000000000000000000000000067
:100990000000000000000000000000FFFF00000059
:1009A00000FFFF0000000000000000000000000049
:1009B000000000000000FF00000000FF0000000039
:1009C000FF00000000FF00000000FF00000000002A
:1009D000000000000000000000000000002F2F2F8A
:1009E00000002F0000002F002F00002F2F002F00ED
:1009F0002F002F002F2F00002F002F0000002F00AE
:100A0000002F2F2F000000000000000000002F002A
:100A10000000002F2F00000000002F000000000049
:100A20002F00000000002F00000000002F00000039
:100A3000002F2F2F0000000000000000002F2F2F9C
:100A400000002F0000002F00000000002F00000019
:100A50002F2F0000002F000000002F0000000000DA
:100A60002F2F2F2F2F00000000000000002F2F2F0E
:100A700000002F0000002F00000000002F00002FBA
:100A80002F2F0000000000002F002F0000002F007B
:100A9000002F2F2F00000000000000000000002F9A
:100AA000000000002F2F0000002F002F00002F005B
:100AB000002F00002F2F2F2F2F000000002F0000ED
:100AC0000000002F00000000000000002F2F2F2F3B
:100AD0002F002F00000000002F00000000002F2F2B
:100AE0002F2F0000000000002F002F0000002F001B
:100AF000002F2F2F000000000000000000002F2F0B
:100B00000000002F000000002F00000000002F2F29
:100B10002F2F00002F0000002F002F0000002F00BB
:100B2000002F2F2F00000000000000002F2F2F2F7C
:100B30002F00000000002F000000002F0000000028
:100B40002F000000002F00000000002F0000000018
:100B5000002F00000000000000000000002F2F2FD9
:100B600000002F0000002F002F0000002F00002F9A
:100B70002F2F00002F0000002F002F0000002F005B
:100B8000002F2F2F0000000000000000002F2F2F4B
:100B900000002F0000002F002F0000002F00002F6A
:100BA0002F2F2F00000000002F000000002F00005A
:100BB000002F2F00000000000000000000000000D7
:100BC000000000000000000000FFFF00000000FF28
:100BD000FF00000000000000000000FFFF00000018
:100BE00000FFFF0000000000000000000000000007
:100BF000000000000000000000FFFF00000000FFF8
:100C0000FF00000000000000000000FFFF000000E7
:100C100000FFFF00000000FF0000000000000000D7
:100C2000FF00000000FF00000000FF00000000FFC8
:100C3000000000000000FF000000000000FF0000B6
:100C400000000000FF0000000000000000000000A5
:100C50000000000000000000FFFFFFFFFF00000099
:100C600000000000000000000000FFFFFFFFFF0089
:100C700000000000000000000000000000FF000075
:100C800000000000FF000000000000FF0000000066
:100C90000000FF00000000FF00000000FF00000057
:100CA00000FF0000000000000000000000FFFFFF48
:100CB0000000FF000000FF0000000000FF00000037
:100CC000FFFF00000000FF00000000000000000027
:100CD0000000FF00000000000000000000FFFFFF18
:100CE0000000FF000000FF00FF00FFFFFF00FF000B
:100CF000FF00FF00FF00FFFFFF00FF0000000000FB
:100D000000FFFFFF000000000000000000FFFFFFE9
:100D10000000FF000000FF00FF000000FF00FF00D8
:100D20000000FF00FFFFFFFFFF00FF000000FF00CB
:100D3000FF000000FF00000000000000FFFFFFFFB9
:100D40000000FF000000FF00FF000000FF00FFFFA9
:100D5000FFFF0000FF000000FF00FF000000FF0099
:100D6000FFFFFFFF000000000000000000FFFFFF8A
:100D70000000FF000000FF00FF0000000000FF0077
:100D800000000000FF0000000000FF000000FF0066
:100D900000FFFFFF0000000000000000FFFFFFFF5A
:100DA0000000FF000000FF00FF000000FF00FF0048
:100DB0000000FF00FF000000FF00FF000000FF0038
:100DC000FFFFFFFF0000000000000000FFFFFFFF2B
:100DD000FF00FF0000000000FF0000000000FFFF18
:100DE000FFFF0000FF0000000000FF000000000007
:100DF000FFFFFFFFFF00000000000000FFFFFFFFFC
:100E0000FF00FF0000000000FF0000000000FFFFE7
:100E1000FFFF0000FF0000000000FF0000000000D6
:100E2000FF000000000000000000000000FFFFFFC6
:100E30000000FF000000FF00FF0000000000FF00B6
:100E4000FFFFFF00FF000000FF00FF000000FF00A9
:100E500000FFFFFFFF00000000000000FF00000097
:100E6000FF00FF000000FF00FF000000FF00FFFF89
:100E7000FFFFFF00FF000000FF00FF000000FF0079
:100E8000FF000000FF0000000000000000FFFFFF67
:100E900000000000FF0000000000FF000000000054
:100EA000FF0000000000FF0000000000FF00000045
:100EB00000FFFFFF00000000000000000000000035
:100EC000FF0000000000FF0000000000FF00000025
:100ED0000000FF00FF000000FF00FF000000FF0017
:100EE00000FFFFFF0000000000000000FF00000006
:100EF000FF00FF0000FF0000FF00FF000000FFFFF9
:100F000000000000FF00FF000000FF0000FF0000E5
:100F1000FF000000FF00000000000000FF000000D4
:100F20000000FF0000000000FF0000000000FF00C4
:100F300000000000FF0000000000FF0000000000B3
:100F4000FFFFFFFFFF00000000000000FF000000A7
:100F5000FF00FFFF00FFFF00FF00FF00FF00FF009A
:100F60000000FF00FF000000FF00FF000000FF0086
:100F7000FF000000FF00000000000000FF00000074
:100F8000FF00FFFF0000FF00FF00FF00FF00FF0069
:100F900000FFFF00FF000000FF00FF000000FF0057
:100FA000FF000000FF0000000000000000FFFFFF46
:100FB0000000FF000000FF00FF000000FF00FF0036
:100FC0000000FF00FF000000FF00FF000000FF0026
:100FD00000FFFFFF0000000000000000FFFFFFFF18
:100FE0000000FF000000FF00FF000000FF00FFFF07
:100FF000FFFF0000FF0000000000FF0000000000F5
:10100000FF000000000000000000000000FFFFFFE4
:101010000000FF000000FF00FF000000FF00FF00D5
:101020000000FF00FF00FF00FF00FF0000FF0000C6
:1010300000FFFF00FF00000000000000FFFFFFFFB7
:101040000000FF000000FF00FF000000FF00FFFFA6
:10105000FFFF0000FF0000FF0000FF000000FF0096
:10106000FF000000FF0000000000000000FFFFFF85
:101070000000FF000000FF00FF000000000000FF74
:10108000FFFF000000000000FF00FF000000FF0065
:1010900000FFFFFF0000000000000000FFFFFFFF57
:1010A000FF000000FF0000000000FF000000000043
:1010B000FF0000000000FF0000000000FF00000033
:1010C0000000FF000000000000000000FF00000022
:1010D000FF00FF000000FF00FF000000FF00FF0016
:1010E0000000FF00FF000000FF00FF000000FF0005
:1010F00000FFFFFF0000000000000000FF000000F4
:10110000FF00FF000000FF00FF000000FF00FF00E5
:101110000000FF00FF000000FF0000FF00FF0000D4
:101120000000FF000000000000000000FF000000C1
:10113000FF00FF000000FF00FF00FF00FF00FF00B6
:10114000FF00FF00FF00FF00FF00FF00FF00FF00A7
:1011500000FF00FF0000000000000000FF00000092
:10116000FF00FF000000FF0000FF00FF0000000084
:10117000FF00000000FF00FF0000FF000000FF0074
:10118000FF000000FF00000000000000FF00000062
:10119000FF00FF000000FF00FF000000FF0000FF55
:1011A00000FF00000000FF0000000000FF00000042
:1011B0000000FF000000000000000000FFFFFFFF34
:1011C0000000000000FF00000000FF00000000FF22
:1011D00000000000FF0000000000FF000000000011
:1011E000FFFFFFFF00000000000000000000FFFF05
:1011F000000000FF0000000000FF00000000FFFFF3
:101200000000000000FF0000000000FF00000000E0
:101210000000FFFF00000000000000000000FFFFD2
:10122000000000FF0000FF00FF00FFFF00FFFF00C5
:10123000FF0000FFFF00FFFF00FF00FF0000FF00B6
:101240000000FFFF000000000000000000FFFF00A2
:101250000000000000FF0000000000FF0000000090
:1012600000FFFF00000000FF0000000000FF000082
:1012700000FFFF000000000000000000A000A1012E
:10128000A20212C732B152A9D312C5DB12C1D712C2
:10129000C732B152A9DF1212C5D712C1D712C0325C
:1012A000B252A8DF0C12CC32C4DF0C12CC32C4DF35
:1012B00013C1D752A1D312B9DB12C532BD52B9D76F
:1012C00012C0D712C352A8D712C532BDD752B9D750
:1012D00012C0D712C532BD52A1D712BDD712C0520B
:1012E000B9D712C532BDD752A8DF0C12B952B9DF37
:1012F0000C52A6D712B9DB12C532C152B9D712B9F6
:10130000D712BE52A1D712C532C1D752B9D712B91E
:10131000D712C532C152A6D712B9D712BE52B9D709
:1013200012C532C1D752A1DF0C12B952B9DF0C522B
:101330009FDB12B7D712C332BB52B7D712BED71238
:10134000C152A6D712C332BBD752B7D712BED712DB
:10135000C332BB529FD712BBD712BE52B7D712C3EC
:1013600032BBD752A6DF0C12B752B7DF0C52A4D74C
:1013700012B7DB12C332BC52B7D312BCDB12C0525D
:101380009FD712C332BCD752B7D712BCD712C332C1
:10139000B452A4DF0C12C332B452A4DF0C12C23216
:1013A000B352A3DF0C12C132B252A2DF0D52A1D34D
:1013B00012B9DB12C532BD52B9D312C0DB12C3520F
:1013C000A8D712C532BDD752B9D712C0D712C5326D
:1013D000BD52A1D712BDD712C052B9D712C532BD66
:1013E000D752A8DF0C12B952B9DF0C52A6D712B9E6
:1013F000D712C532C152B9DB12B9D712BE52A1D72A
:1014000012C532C1D752B9D712B9D712C532C1529B
:10141000A6D712B9D712BE52B9D712C532C1D75208
:10142000A1DF0C12B952B9DF0C529FD712BBDB12ED
:10143000C732C152B7D312BBD712BE52A6DB12C7F6
:1014400032C1D752B7D712BBD712C732C1529FD7BA
:1014500012BBD712BE52B7D712C732C1D752A6DFBE
:101460000C12BB52B7DF0C52A4D712BCDB12C8322D
:10147000C052B7D312B732BCDB529FD312C332BCB7
:10148000DB12C532BC52B7D712C732BED712C83230
:10149000C052A4DF0C12C732BE529FDF0C12C832FA
:1014A000C052A4DF0C32B452A4DF0C12CC52A4DF21
:1014B0000C32B452B7DF0C12C852A8DF0D32B4524E
:1014C000B7D312C3DB12C552A9D712C8D732B5524F
:1014D000B9D712C8D752AADF0C32B652B9D712C543
:1014E000D712C352A8DF0C12C832B452B7DF0C12A5
:1014F000C852A7DF0D12CF32B452B7DF0C12CC5254
:10150000A6DF0C32B552B9D712CAD7529FDF0C32C0
:10151000B552B7D712C3D712CC52A4DF0C32B45293
:10152000B7DF0C12C852A8DF0C32B452B7DB12C3BB
:10153000D312C552A9D712C8DB32B552B9D712C8D7
:10154000D752AADF0C32B652B9D712C5D712C3523E
:10155000A6DF0C12C832B552B9DF0C12CD52ABD790
:1015600012CCDB12CA32B752BBD312C8DB52A4DF93
:101570000C32B452B7DF0C52A4DF0C32B452B7DFD6
:101580000C12CC52A4DF0C32B452B7DF0C12C8528A
:10159000A8DF0C32B452B7D712C3D712C552A9D79D
:1015A00012C8DB32B552B9D312C8DB52AADF0C32F3
:1015B000B652B9D712C5D712C352A8DF0C12C8321F
:1015C000B452B7DF0C12C852A7DF0C12CF32B4529C
:1015D000B7DF0C12CC52A6DF0D32B552B9D712CA02
:1015E000D3529FDF0D32B552B7D712C3D712CC52A8
:1015F000A4DF0C32B452B7DF0C12C852A8DF0C3291
:10160000B452B7D712C3D712C552A9D712C8D7320E
:10161000B552B9D712C8D752AADF0D32B652B9D7D0
:1016200012C5D712C352A6DF0C12C832B552B9DFA9
:101630000C12CD52ABD712CCD712CA32B752BBD78D
:1016400012C8D752A4DF0D32B452B7DF0C52A4DF58
:101650000C32B452B7DF0C12CC52A9DF0C32B552A7
:10166000B9D712C8D752A9DF0C12C332B552B9DFAD
:101670000C12CC52A8DF0C32B452B7D712C8DB52CE
:10168000A8DF0C32B452B7DF0C12CB52A7D712C866
:10169000D712C332B352B7DF0C12CB52A7DF0C32D2
:1016A000B352B7D712CAD752A6DF0C32B552B9DF40
:1016B0000C529FDF0D32B552B7DF0C12CC52A9DFAE
:1016C0000C32B552B9D712C8D752A9DF0C12C332A7
:1016D000B552B9DF0C12CC52A8DF0C32B452B7D7D6
:1016E00012C8D752A8DF0C32B452B7DF0D12CB525A
:1016F000A7D712C8D712C332B352B7DF0C12CF52DA
:10170000A7DF0C32B352B7DF0C52A6DF0C32B55252
:10171000B9DF0D529FDF0C32B552B7DF0C12CC523D
:10172000A4DF0C32B452B7DF0C12C852A4DF0C3263
:10173000B452B7D712C3D712C552A2D712C8D732E4
:10174000B552B7D712C8D752A2DF0D32B552B7D3B0
:1017500012CADB12CC52A1D312C8DB12C332B4526C
:10176000B7DF0C12C552A1DF0C32B452B7D712C882
:10177000D752A0DF0C32B352B6DF0C52A0DF0C32CE
:10178000B352B6DB12C5D712CF32B5529FDF0B1260
:10179000D1DF0D12CFDF0C12D1DF0C12CFDF12120E
:1017A000C3D712CD52A1D712CCD712CA52A3DF0C85
:1017B00012C852A4DF0D32BC52B7D732B4D752A4EC
:1017C000D732BCD732B452B7DF0C32BC52A4D732B6
:1017D000B4D752B7D732BCD752A4DF0C52B7DF0808
:1017E000C0D752A1D312B9DB12C532BD52B9D7123C
:1017F000C0D712C352A8D712C532BDD752B9D7121B
:10180000C0D712C532BD52A1D712BDD712C052B92E
:10181000D712C532BDD752A8DF0C12B952B9DF0CAE
:1018200052A6D712B9DB12C532C152B9D712B9D7F5
:1018300012BE52A1D712C532C1D752B9D712B9D7E9
:1018400012C532C152A6D712B9D712BE52B9D71299
:10185000C532C1D752A1DF0C12B952B9DF0C529F69
:10186000DB12B7D712C332BB52B7D712BED712C1E1
:1018700052A6D712C332BBD752B7D712BED712C3A4
:1018800032BB529FD712BBD712BE52B7D712C33248
:10189000BBD752A6DF0C12B752B7DF0C52A4D71237
:1018A000B7DB12C332BC52B7D312BCDB12C0529F9B
:1018B000D712C332BCD752B7D712BCD712C332B477
:1018C00052A4DF0C12C332B452A4DF0C12C232B3E2
:1018D00052A3DF0C12C132B252A2DF0D52A1D312B9
:1018E000B9000208000A01000940000734000600A0
:1018F0000100F80AFF00000204000ADE000980006F
:1019000007210006000100FF0200FE0002080EFF92
:1019100000000204000ADE00098000071C00060027
:101920000100FE0002080EFF0000011200072E0059
:1019300000FC0101170101120100F400FF00010287
:101940000007220000FF010101010102020101055F
:1019500000FE40FF00000011190000000000000020
:10196000F61800000000000000E11800000000016F
:1019700000002919000000000100003D19000000CE
:101980000053445F4D555349434441540046494C2C
:10199000452053445F4D555349432E444154204EF6
:1019A0004F5420464F554E44204F4E205344204321
:1019B00041524400464F554E442053445F4D5553C9
:1019C00049432E44415400534F4E47504F5320201B
:1019D0003A004C4F4F5053544152543A004C4F4FE1
:1019E00050454E4420203A00425546464552454413
:1019F000203A004341504143495459203A001124B0
:101A00001FBECFEFD0E1DEBFCDBF28E0A0E0B1E048
:101A100001C01D92A134B207E1F714BE0FB6F894CD
:101A2000A8958091600088618093600010926000AA
:101A30000FBE0E948810811102C00E946610F894A7
:101A4000E9E7F5E080E8819327E0E538F207D9F788
:101A500089E795E090938607809385071092870722
:101A600010928A07109290071092960710929C0786
:101A7000109264051092660582E18093650580EE00
:101A800080936C0584E180936B0510927005109231
:101A90006F05109274051092730581E08093890799
:101AA0000E94011B80E990E0FC0125913491F9012D
:101AB000FF273083029620E08E3B9207A9F77894A7
:101AC0000E94001B0E94601C0C94A41D0C9400003A
:101AD000E0EEEA950C946C0DE1F70C946F0DC0E00C
:101AE000D1E0A0906C05662776E03DD13AE23A95C8
:101AF000F1F70E94A10D30E13A95F1F7AA9489F02F
:101B0000C8956395683029F0C895C895C8950000B8
:101B1000ECCF6627002438E2C30FD01DC895000023
:101B2000E4CF35E03A95F1F700C01DD1E0916605AC
:101B300042E0E160E427E0936605E2E0E0933600EE
:101B40000895DE0110E38091600590916105679F23
:101B5000800D911D4D91419F080E191EF00128E244
:101B6000059108B94D91059108B9419F059108B9B2
:101B7000AC01400D059108B9511D0000059108B94F
:101B80000591FA012A9508B959F700C0000000270D
:101B900008B908950F921F92EF93FF93EFB7EF9359
:101BA000E0918400E251F1E0EF1700F0F395FA3094
:101BB000D8F30C94DB0DE0916505EA95E09365059B
:101BC000F0916405F0FD57C0EC3098F0F3E0F0932D
:101BD0008900FDE8F0938800E0FB289826F4E1E016
:101BE0000E94AD0FB9C0E5E1EA95F1F70000289A2F
:101BF000B3C0E63038F100C000C02898E0FBE4E054
:101C000016F40E94AD0FE4E0E0933600E6E0E093C6
:101C10006F00A2C0EF93EFB7EF93E0918400ED5512
:101C2000E13000F0E23000F0E33000F0E43000F0AA
:101C3000E53000F0289AE2E0E0936F00EF91EFBF0B
:101C4000EF91189500C0E0FB289826F4E1E00E948F
:101C5000AD0F05C0E5E1EA95F1F70000289AE091A3
:101C60006505E03009F078C0EDEFE0936505E1E04F
:101C7000E093640571C0E7E0E0938900EBE1E09355
:101C8000880000C02898E2E000C00E94AD0FFDEF80
:101C900000906B05F019E0916505EF17E0F4FDEF9A
:101CA00000906B05F01900906C05F019EF1798F093
:101CB000EDE1FF2700800F92EA95E1F70FE10A9529
:101CC000F1F7000000000E94680DE1E0FF270F908F
:101CD0000192EE31E0F3E0916505E03009F03CC09F
:101CE0002F933F934F935F936F937F938F939F9324
:101CF000AF93BF9378941124EE27E0936405E2E15B
:101D0000E093650580917505909176050196809325
:101D1000750590937605E0916705F0916805E115EA
:101D2000F10509F009950E9456100E94021B0E94BD
:101D3000BE0E1124E0916905F0916A05E115F105E7
:101D400009F00995BF91AF919F918F917F916F910C
:101D50005F914F913F912F91EF91EFBFFF91EF91E5
:101D60001F900F9018952898E2E000C00E94AD0FD8
:101D7000E0916505EA95E09365050895E09189078E
:101D8000E0FD0E94881100908707002019F4A9E760
:101D9000B5E002C0AFE7B6E021E002260092870777
:101DA00022E020938807E0918907E0FF08952F92B1
:101DB0003F924F925F926F927F928F929F92AF92DB
:101DC000BF92CF92DF92EF92FF920F931F93CF9328
:101DD000DF9350919C07E091A007F091A1078091BB
:101DE0009F0740909D0750909E0766245F010090DA
:101DF000A2071090A307A018B1088090A4079090A4
:101E0000A5071D01C3E8840DE51DF61DE815F905BC
:101E100008F0F501449145031D92840DE51DF61D62
:101E2000E815F90508F0F501449145031D92CA959E
:101E300051F7D10150939C07E093A007F093A107BD
:101E400080939F0720908B0730908C0740908E07DF
:101E500050908F0760908D0710918A0770909107BE
:101E60008090920790909307A0909407B090950768
:101E700020919007C0909707D0909807E0909A071C
:101E8000F0909B0700919907309196079FEFCC91B6
:101E9000DD27C7FDDFEF620C431CF20144914103D3
:101EA0000008C10DD01D970CA81CF50144914203F8
:101EB0000008C10DD01D0C0DED1CF701449143032A
:101EC0000008C10DD01D0024C038D0050CF0CFE7AC
:101ED0000A94C038D0050CF4C0E8C058CD939A9548
:101EE00009F0D5CF409188074A954093880797E03D
:101EF00009F0CDCF60928D0740928E0790929307A4
:101F0000A092940700939907E0929A07DF91CF91EE
:101F10001F910F91FF90EF90DF90CF90BF90AF9007
:101F20009F908F907F906F905F904F903F902F90F9
:101F30000895E0918507F0918607019100000093D4
:101F4000B30007E0E538F00709E715E008F0F8010D
:101F5000E0938507F093860708950F931F932F93BF
:101F6000EF93E0918507F091860701910093B3000C
:101F700007E0E538F00709E715E008F0F801E0931D
:101F80008507F0938607E8E0EA95F1F7EF912F9146
:101F90001F910F91E0FD289AE0FF01C00895F4E140
:101FA000FA95F1F700C0E1FD289AE1FF00C008951D
:101FB000E0E6F4E0A0E0B1E01D923197E9F71124EA
:101FC0000895992728E2629F080E191EA0E0B1E04B
:101FD000A00DB11D50916205450F4C931124089539
:101FE000809362050895809360059093610508953C
:101FF0008091660581700895209166052E7F20935B
:1020000066050895F999FECF92BD81BD60BDF89433
:10201000FA9AF99A78940895F999FECF92BD81BD04
:10202000F894F89A80B57894089598E088E10FB60E
:10203000F894A895809360000FBE90936000FFCF46
:10204000129AC895C895C895C895129840E180E045
:1020500090E020E030E03695279596958795C895D5
:10206000C895C895C8951398009B3068019B9068E7
:10207000139AC895C895C895C895415061F7309393
:102080006E0520936D059093720580937105809184
:102090006D0590916E050F9731F0809171059091CB
:1020A00072050F9711F40E94151008951092AC0755
:1020B000009903C081E08093AC07019905C080912D
:1020C000AC0782608093AC070C942010CF93DF9311
:1020D000C0E0D0E0FE01E059FF4F6491CE010E94C4
:1020E00002102196C032D105A9F7C0E2D0E06FEF0F
:1020F000CE010E9402106FEFCE0101960E940210E5
:10210000A096C11588E0D80791F7DF91CF91089587
:10211000CF9380E090E00E940C10C82F81E090E007
:102120000E940C10282F30E0322F22272C0F311D57
:1021300081E02A35354509F080E0CF910895FC0112
:10214000678708950895FC0182810C948014FC0136
:102150009181690F618382810C946C14FC019181DF
:10216000961B692F918382810C946C14FC019081E1
:102170009F7590830895FC019081906490830895E9
:10218000FC01668708951F93CF93DF93EC01162F10
:102190008A810E946C1419838881877F8883DF91EC
:1021A000CF911F910895FC0162870895FC01638718
:1021B0000895CF93DF93EC01462F298130E0F90198
:1021C000EE0FFF1FE85FF54D65917491F901E40F83
:1021D000F11D47FDFA95EE0FFF1FE85FF54D859164
:1021E0009491861B970B688570E00E94901D611585
:1021F000710511F461E070E0EA8186E0E89FF0018A
:102200001124E657F84F81819281860F971F9283A0
:1022100081837E836D838881886088838981480F6C
:102220004F83DF91CF910895FC0160870895FC01F1
:1022300064830895DC0114968C911497882319F116
:1022400055962D913C915697662379F0062E000CF9
:10225000770B6F5F7F4FAB01440F551F640F751FE6
:10226000261B370B09C0EF3F39F023503109F90124
:102270003297E491ED30B9F756963C932E935597EB
:10228000815014968C93089590930C0880930B08BA
:102290008FE68093110810927805EFEBF7E080E06D
:1022A00090E13FEF28E1DF011E978C9312979C93FA
:1022B0001D961C9211973C93108211972C931397A3
:1022C0009C938F5F7796843071F70895EFEAF7E07B
:1022D0009FEF80818F7780839383779688E0EB30C0
:1022E000F807B9F710921508109214081092AE076B
:1022F0001092AD071092370810923608109212080B
:102300001092130810920E0881E0809378050895CA
:102310006F927F928F929F92AF92BF92CF92DF92F5
:10232000EF92FF920F931F93CF93DF930FEA17E083
:10233000EAE8EE2EE7E0FE2ED701E80120E030E0EB
:10234000F901E155F84F8785882389F04685082EE5
:10235000000C990B840F911D8F3F910519F014F01B
:102360008FEF90E097FF02C080E090E08687688161
:1023700063FF26C04D815E8111968D919C911297CD
:10238000840F951F12969C938E931197E781F0E02E
:10239000EE0FFF1FE85FF54DC590D490141615069B
:1023A00024F48C159D0530F40BC0452B49F0C8165C
:1023B000D90630F01296DC92CE921197677F68832F
:1023C000295E3F4F679616962C35310509F0B8CF38
:1023D000809178058823C9F180911208882319F02B
:1023E000815080931208D7E125C00E949213C82F14
:1023F0008F3FD9F1807E803AD8F5DC2ED294D694E6
:1024000097E0D9220E949213282F207830E035954A
:10241000279535952795CF71C22B2C2F220F482F4A
:102420004F77DD9DF0011124E155F84F60898D2D26
:102430000E942C1480911208811107C00E947D1304
:10244000823098F681E080931208C8EBAC2EC7E08A
:10245000BC2ED2ECCD2ED7E0DD2EC3ECD7E0882405
:102460008A94912C5EC0823081F510927805EDCF70
:10247000803A51F40E949213C770DC9FF00111243E
:10248000E155F84F808BD6CF803C69F58C2F837057
:1024900089F4809114089091150890931008809306
:1024A0000F08809136089091370890931508809313
:1024B0001408C0CF8130B9F68091140890911508A6
:1024C0009093370880933608B5CFCC71C695C695E2
:1024D000CF5FC0931208C83009F0ACCF0E949213AE
:1024E00080931208A7CF8C2F8770D82EC8710E94B6
:1024F00092132D2D30E0880FD29FF001D39FF00D65
:102500001124E155F84FC11102C0848793CFC83020
:1025100011F483838FCFC03111F482878BCF8387EF
:1025200089CFD8018C9185FF52C055962D913C9151
:102530005697232B09F44BC086FD49C03E01B2E0FB
:102540006B1A7108D6019C91F301808198133CC0ED
:10255000D8015596ED91FC915697BF016F5F7F4F63
:1025600056967C936E93559784918F3F39F4F8017A
:1025700080818F778083168A158A26C09F012E5FFF
:102580003F4FD80156963C932E935597FB0164918B
:10259000E82FF0E0EE0FFF1FE254FF4F259134913A
:1025A000C801F9010995D8015596ED91FC9156970E
:1025B000CF01019656969C938E935597E491D30143
:1025C000EC93F6011082BECF9F5FD6019C93F80179
:1025D000908195FF5EC088818F3F11F08F5F888367
:1025E00097FD04C0FE013897908101C09FEFFE0166
:1025F00037978081882309F441C031965081552353
:1026000009F43CC09923D1F1409111084423B1F160
:10261000899FC00111249395892F9927589F900174
:10262000599F300D11243395232F3327429FC0012A
:10263000439F900D11249395892F992734972081DA
:102640002223F1F0D501EC91F0E0E050F44DE4915B
:10265000E0582E9FF0011124F395EF2FFF27A401DE
:102660004E1B5F0B489F9001499F300D589F300DC6
:102670001124C9019395892F992702C080E090E029
:10268000F5013081FE0139972081230FD5012C936C
:1026900002C080E090E0F7018083095E1F4FF6E002
:1026A000EF0EF11C87E1A80EB11CA7E1CA0ED11CE8
:1026B0006796B8E00B301B0709F033CFDF91CF915D
:1026C0001F910F91FF90EF90DF90CF90BF90AF9050
:1026D0009F908F907F906F9008954091390850E0BF
:1026E00020910D0830E02F5F3F4F2F71332781E09D
:1026F0004217530709F080E0089580910D089091EA
:102700003908981708F0805E891B089590910D088C
:10271000E92FF0E0EA5EF74F80839F5F9F7190930F
:102720000D08089590913908E92FF0E0EA5EF74F1F
:1027300080819F5F9F719093390820911408309198
:1027400015082F5F3F4F3093150820931408089504
:10275000AF92BF92CF92DF92EF92FF920F931F93AF
:10276000CF93DF931F92CDB7DEB75C01E62EFC015D
:102770008081F82FF078FF2EF50117869FEF96875E
:102780004587148A877B8083128611862183148271
:102790008281F9E06F9F80011124833051F51092FE
:1027A0009F0780910B0890910C08800F911FFC01EE
:1027B0003196A591B491B093A107A093A007AC0165
:1027C000495F5F4FFA01C590D4900596FC01659171
:1027D0007491C61AD70AD092A307C092A207FA0131
:1027E00085919491A80FB91FB093A507A093A40752
:1027F00005C060E029830E9480142981622FF501C1
:1028000082810E946C14F501FF2011F0E18A01C061
:10281000E08AE0910B08F0910C08E00FF11F33966D
:1028200085919491F501009719F4168A158A08C0CC
:10283000138AFC012491F501228B0196968B858BDE
:102840000F90DF91CF911F910F91FF90EF90DF904C
:10285000CF90BF90AF900895CF93DF93A82FB0E0B3
:1028600097E1899FF0011124E155F84F808185FFA0
:1028700002C087FD2EC0211118C097E19A9FF00178
:102880009B9FF00D1124E155F84F9785911102C0DF
:1028900086FF158697E19A9FF0019B9FF00D11240A
:1028A000E155F84F8F7B808314C0822F242F97E14E
:1028B0009A9FE0019B9FD00D1124C155D84F1882DB
:1028C0001E8A1D8A482FCE010E94A813888180622B
:1028D0008883DF91CF91089599277727E8E0FAE27E
:1028E000660F771FE60FF71FA591B491EAE8F7E0AE
:1028F00026E0289FE00DF11DA183B28311240895E5
:1029000099277727EAE8F7E026E0289FE00DF11DF8
:102910007CE2760F7583112408950000000000000A
:1029200000000000000000000000000000000000A7
:102930000000000000000000000000000000000097
:102940000000000000000000000000000000000087
:102950000000000000000000000000000000000077
:102960000000000000000000000000000000000067
:102970000000000000000000000000000000000057
:102980000000000000000000000000000000000047
:102990000000000000000000000000000000000037
:1029A0000000000000000000000000000000000027
:1029B0000000000000000000000000000000000017
:1029C0000000000000000000000000000000000007
:1029D00000000000000000000000000000000000F7
:1029E00000000000000000000000000000000000E7
:1029F00000000000000000000000000000000000D7
:102A000080E0809389070895220024002600280092
:102A10002B002D0030003300360039003D0040000F
:102A2000440048004C00510056005B006000660006
:102A30006C00730079008100880090009900A2006A
:102A4000AC00B600C100CC00D800E500F3000101E5
:102A5000100121013201440157016C0181019801EB
:102A6000B001CA01E50102022102410264028802AA
:102A7000AE02D7020303300361039403CB030504C2
:102A800042048304C70410055D05AF050506610611
:102A9000C206290796070908830805098E09200A36
:102AA000BA0A5D0B0A0CC10C840D510E2B0F1210CB
:102AB00007110A121D1340147415BA16141883193D
:102AC000071BA31C571E24200E22142439267F28FE
:102AD000E82A752D293006330F364539AD3C49407B
:102AE0001B442848734CFE50CF55EA5A51600C667F
:102AF0001D6C8B725A79928037885090E598FDA1B1
:102B00009FABD3B5A3C00000000000000000000090
:102B100000000000000000000000000000000000B5
:102B200000000000000000000000000000000000A5
:102B30000000000000000000000000000000000095
:102B40000000000000000000000000000000000085
:102B50000000000000000000000000000000000075
:102B60000000000000000000000000000000000065
:102B70000000000000000000000000000000000055
:102B80000000000000000000000000000000000045
:102B90000000000000000000000000000000000035
:102BA0000000000000000000000000000000000025
:102BB0000000000000000000000000000000000015
:102BC0000000000000000000000000000000000005
:102BD00000000000000000000000000000000000F5
:102BE00000000000000000000000000000000000E5
:102BF00000000000000000000000000000000000D5
:102C0000000306090C101316191C1F2225282B2E51
:102C1000313336393C3F414447494C4E5153555866
:102C20005A5C5E60626466686A6B6D6F7071737423
:102C3000757678797A7A7B7C7D7D7E7E7E7F7F7FDC
:102C40007F7F7F7F7E7E7E7D7D7C7B7A7A797876C2
:102C500075747371706F6D6B6A68666462605E5CD8
:102C60005A585553514E4C494744413F3C393633ED
:102C7000312E2B2825221F1C191613100C090603B0
:102C800000FDFAF7F4F0EDEAE7E4E1DEDBD8D5D2B7
:102C9000CFCDCAC7C4C1BFBCB9B7B4B2AFADABA882
:102CA000A6A4A2A09E9C9A9896959391908F8D8CA5
:102CB0008B8A8887868685848383828282818181CC
:102CC0008181818182828283838485868687888AC6
:102CD0008B8C8D8F9091939596989A9C9EA0A2A490
:102CE000A6A8ABADAFB2B4B7B9BCBFC1C4C7CACD5B
:102CF000CFD2D5D8DBDEE1E4E7EAEDF0F4F7FAFD78
:102D0000808182838485868788898A8B8C8D8E8F4B
:102D1000909192939495969798999A9B9C9D9E9F3B
:102D2000A0A1A2A3A4A5A6A7A8A9AAABACADAEAF2B
:102D3000B0B1B2B3B4B5B6B7B8B9BABBBCBDBEBF1B
:102D4000C0C1C2C3C4C5C6C7C8C9CACBCCCDCECF0B
:102D5000D0D1D2D3D4D5D6D7D8D9DADBDCDDDEDFFB
:102D6000E0E1E2E3E4E5E6E7E8E9EAEBECEDEEEFEB
:102D7000F0F1F2F3F4F5F6F7F8F9FAFBFCFDFEFFDB
:102D8000000102030405060708090A0B0C0D0E0FCB
:102D9000101112131415161718191A1B1C1D1E1FBB
:102DA000202122232425262728292A2B2C2D2E2FAB
:102DB000303132333435363738393A3B3C3D3E3F9B
:102DC000404142434445464748494A4B4C4D4E4F8B
:102DD000505152535455565758595A5B5C5D5E5F7B
:102DE000606162636465666768696A6B6C6D6E6F6B
:102DF000707172737475767778797A7B7C7D7E7F5B
:102E000000020406080A0C0E10121416181A1C1ED2
:102E100020222426282A2C2E30323436383A3C3EC2
:102E200040424446484A4C4E50525456585A5C5EB2
:102E300060626466686A6C6E70727476787A7C7EA2
:102E40007F7D7B79777573716F6D6B696765636182
:102E50005F5D5B59575553514F4D4B494745434172
:102E60003F3D3B39373533312F2D2B292725232162
:102E70001F1D1B19171513110F0D0B090705030152
:102E8000FFFDFBF9F7F5F3F1EFEDEBE9E7E5E3E142
:102E9000DFDDDBD9D7D5D3D1CFCDCBC9C7C5C3C132
:102EA000BFBDBBB9B7B5B3B1AFADABA9A7A5A3A122
:102EB0009F9D9B99979593918F8D8B898785838112
:102EC00080828486888A8C8E90929496989A9C9E12
:102ED000A0A2A4A6A8AAACAEB0B2B4B6B8BABCBE02
:102EE000C0C2C4C6C8CACCCED0D2D4D6D8DADCDEF2
:102EF000E0E2E4E6E8EAECEEF0F2F4F6F8FAFCFEE2
:102F00007F7F7F7F7F7F7F7F7F7F7F7F7F7F7F7FD1
:102F10007F7F7F7F7F7F7F7F7F7F7F7F7F7F7F7FC1
:102F20007F7F7F7F7F7F7F7F7F7F7F7F7F7F7F7FB1
:102F30007F7F7F7F7F7F7F7F7F7F7F7F7F7F7F7FA1
:103200000309131E28313A40464C5054585B5E6106
:10321000636567696B6C6E6F7071727374757677C6
:10322000777879797A7A7B7B7C7C7C7D7D7D7E7EEC
:103230007E7E7F7F7F7F7F7F7F7F7F7F7F7F7F7FA0
:103240007F7F7F7F7F7F7F7F7F7F7F7F7F7E7E7E91
:103250007E7D7D7D7C7C7C7B7B7A7A7979787777C3
:10326000767574737271706F6E6C6B69676563618C
:103270005E5B5854504C46403A31281E13090300F7
:10328000C6CCD5DBDFE3E5E7E9EAEBECEDEEEFEF0B
:10329000F0F0F0F1F1F1F1F2F2F2F2F2F2F2F2F317
:1032A000F3F3F3F3F3F3F3F3F3F3F3F3F3F3F3F3EE
:1032B000F3F3F3F3F3F3F3F3F3F3F3F3F3F3F3F3DE
:1032C000F3F3F3F3F3F3F3F3F3F3F3F3F3F3F3F3CE
:1032D000F3F3F3F3F3F3F3F3F3F3F3F3F3F3F3F3BE
:1032E000F2F2F2F2F2F2F2F2F1F1F1F1F0F0F0EFCB
:1032F000EFEEEDECEBEAE9E7E5E3DFDBD5CCC6008A
:1033000000283D42302D2C2B2C2D2E2F30323335E2
:1033100037393B3D3F414345484A4C4E5053555742
:10332000595B5D5F61636567696B6C6E7071737427
:10333000757778797A7B7C7D7D7E7E7F7F7F7F7FCE
:103340007F7F7F7F7F7F7E7E7D7D7C7B7A797877B4
:1033500075747371706E6C6B69676563615F5D5BDB
:1033600059575553504E4C4A484543413F3D3B39D0
:1033700037353332302F2E2D2C2B2C2D30423D283B
:1033800000E9E5FED4D7D7D7D6D4D2D0CECCCAC8A0
:10339000C6C3C1BFBDBAB8B6B4B1AFADABA9A7A5DE
:1033A000A3A19F9E9C9A999795949391908F8D8CB1
:1033B0008B8A8988888786858584848483838383B0
:1033C0008383838383848484858586878888898AA8
:1033D0008B8C8D8F909193949597999A9C9E9FA199
:1033E000A3A5A7A9ABADAFB1B4B6B8BABDBFC1C3B1
:1033F000C6C8CACCCED0D2D4D6D7D7D7D4FEE5E96A
:10340000F9F8F9F5EBE1DDDEE0E2E4E5E6E5E4E23A
:10341000DED9D2CAC1B7ACA299918A868381808055
:103420008182838586888A8C8D8F909293959697DA
:1034300098999A9B9B9C9D9D9D9E9E9E9F9F9F9FC2
:103440009F9F9F9E9E9E9D9D9D9C9B9B9A999897BA
:1034500096959392908F8D8C8A88868583828180C1
:10346000808183868A9199A2ACB7C1CAD2D9DEE2A3
:10347000E4E5E6E5E4E2E0DEDDE1EBF5F9F8F900AC
:103480000708070B151F2322201E1C1B1A1B1C1EBE
:1034900022272E363F49545E676F767A7E7F7F7F84
:1034A0007F7E7D7B7A7876747371706E6D6B6A69DE
:1034B00068676665656464636362626261616161D5
:1034C00061616162626263636364656566676869BE
:1034D0006A6B6D6E7071737476787A7B7D7E7F7F98
:1034E0007F7F7E7A766F675E54493F362E27221E95
:1034F0001C1B1A1B1C1E2022231F150B070807006C
:103500001F313D444E5354565A5F64696E74767948
:103510007C7F7F7F7F7F7F7F7F7F7F7F7F7F7F7FBE
:103520007F7F7F7F7F7F7F7F7F7F7F7F7F7F7F7FAB
:103530007F7F7F7F7F7F7F7F7F7F7F7F7F7F7F7F9B
:103540007F7F7F7F7F7F7F7F7F7F7F7F7F7F7F7F8B
:103550007F7F7F7F7F7F7F7F7F7F7F7F7F7F7F7F7B
:103560007F7F7F7F7F7F7F7F7F7F7F7F7F7F7F7F6B
:103570007F7F7F7F7F7F7F7F7F7F7F7C7871684CBD
:103580002C1C120C0A0B0A05FDF3E9DFD4CAC0B7E4
:10359000AEA69E97918B8685828080808080808079
:1035A000808080808080808080808080808080801B
:1035B000808080808080808080808080808080800B
:1035C00080808080808080808080808080808080FB
:1035D00080808080808080808080808080808080EB
:1035E00080808080808080808080808080808080DB
:1035F000808080808087919DACC4CBD4DDF2FAFAC4
:10360000089508950895CF92DF92EF92FF920F935D
:103610001F93CF93DF93C82ED62F8A01D22EC0E0FE
:103620008AE0E82EF12C3C2D3C1B0115110511F40C
:10363000C11107C0C801B7010E947C1D40E1480FBD
:1036400005C0DD2011F040E101C040E06D2F832F67
:103650000E94E10FC801B7010E947C1D8B01CF5F62
:10366000C53009F7DF91CF911F910F91FF90EF9037
:10367000DF90CF9008950F931F93CF93DF93062F82
:10368000C42FD52F182F141BFE014491442349F059
:103690004F774052602F8C2F810F0E94E10F2196AF
:1036A000F3CFDF91CF911F910F910895689401C0DE
:1036B000E8942F920F931F93CF93DF938F939F9351
:1036C00052D0E6D086EC91E05ED063D0DC019B0165
:1036D000F4D0CD01B901DCD08BE054D05CD070E2E5
:1036E00046D05FD0282E57D048D081E04BD053D061
:1036F0008C01702D3CD083E045D04DD0880F991FB0
:103700003CD0DBD0CD01B901C3D0C00136D05F9130
:103710004F91EA016BE07E7F44D0FE010EF0919163
:103720000EF49591EF01891709F071606A95A1F780
:1037300070FF08C00150110911F415D00EC085E1C9
:1037400021D0E7CF8FE01ED026D08250910915D02E
:103750002A94E9F7B2D0B901CD01DF91CF911F9141
:103760000F912F90089560E070E0CB010895969539
:1037700087957695E0F7082E0895280F391FA11D2B
:10378000B11D089590E0BC010CD061507040E1F78C
:10379000089501D0BC0105D0482F03D0582FCA018D
:1037A00008958FEF8EBDE091A607F091A70731969F
:1037B000E093A6078F2F81708093A707F1FF09C0C0
:1037C00008D08F9304D003D033D08F9108958FEF1A
:1037D0008EBD8DB587FFFDCF8EB508959AE0F7DFDA
:1037E0009A95E9F7089581E08F935E9AF0DF8F91C3
:1037F000089540E050E0BA015E98EADF872FE8DFE5
:10380000862FE6DF852FE4DF842FE2DF85E9E0CF36
:1038100007D08F93DCDF8F3FE9F7E7CF01D0E4CF0C
:10382000EFEFFFEF319719F0D2DF87FDFBCF08955F
:10383000EFEFFFEF319719F0CADF8E3FD9F7FF277F
:10384000EE2708952F9A2D9A2E9A279A259A5E9AF6
:10385000569AE0E0F0E23197F1F783E58CBDBEDFE8
:1038600030E280E4C6DFDADF813019F03A95C9F73B
:10387000BACF3FEF81E4BDDFD1DF803019F03A9558
:10388000C9F7B1CF2E9890E59CBD91E09DBDACCF1E
:10389000982F872F762F6627770F881F991FAB01E8
:1038A000BC0182E5A9DFC4DF8E3F09F09CCF1092F6
:1038B000A6071092A707882708958CE49ADFA8CF5F
:1038C00084E599E10E9444118CED90E00E94F30F91
:1038D00080E20E94F00F0E94D80F0E94221C81E813
:1038E00099E10E94561B60933B0870933C088093BB
:1038F0003D0890933E08611571058105910519F405
:103900004DE859E104C00E94481C44EB59E160E0D5
:1039100070E080E090E00E943B1B10923A080E9409
:103920006D1381111DC08091A8079091A907A091E6
:10393000AA07B091AB07AC01BD014F5F5F4F6F4F5E
:103940007F4F4093A8075093A9076093AA077093ED
:10395000AB07FC01E458FD4E84910E948613DFCF33
:103960000E94661110923A0847EC59E162E070E05B
:1039700080E090E00E943B1B409114085091150894
:1039800021E062E070E08EE090E00E94031B42EDD7
:1039900059E163E070E080E090E00E943B1B4091C1
:1039A00036085091370821E063E070E08EE090E047
:1039B0000E94031B4DED59E164E070E080E090E06F
:1039C0000E943B1B40913F085091400821E064E079
:1039D00070E08EE090E00E94031B48EE59E166E043
:1039E00070E080E090E00E943B1B0E947D13482F16
:1039F00050E021E066E070E08EE090E00E94031B62
:103A000043EF59E167E070E080E090E00E943B1BEB
:103A100021E040E250E067E070E08EE090E00E943C
:103A2000031B81E00E94151D9FCFCF93C82FCC238D
:103A300009F460C080910F0890911008892B89F1DA
:103A400080910F08909110089093400880933F0850
:103A50001092100810920F0880910F089091100892
:103A600020913608309137084091A8075091A90756
:103A70006091AA077091AB07420F531F611D711D22
:103A8000481B590B610971094093A8075093A90776
:103A90006093AA077093AB0704C080913A0888230B
:103AA00029F00E94F80F8823C1F320C00E946D13F3
:103AB0008111F7CF4091A8075091A9076091AA07FB
:103AC0007091AB07DB01CA010196A11DB11D809366
:103AD000A8079093A907A093AA07B093AB07FA0190
:103AE000E458FD4E84910E948613DBCF0E94FC0FA8
:103AF000C1509DCFCF910895AA1BBB1B51E107C0B8
:103B0000AA1FBB1FA617B70710F0A61BB70B881F6D
:103B1000991F5A95A9F780959095BC01CD010895FC
:103B200097FB072E16F4009407D077FD09D00E946A
:103B30007C1D07FC05D03EF4909581959F4F08951C
:0C3B4000709561957F4F0895F894FFCFB9
:00000001FF
