:100000000C9448200C94BA200C94BA200C94BA207A
:100010000C94BA200C94BA200C94BA200C94BA20F8
:100020000C94BA200C94BA200C94BA200C94BA20E8
:100030000C94BA200C9422230C9462230C94BA20C2
:100040000C94BA200C94BA200C94BA200C94BA20C8
:100050000C94BA200C94BA200C94BA200C94BA20B8
:100060000C94BA200C94BA200C94BA200C94BA20A8
:100070005A5501200101003808000000000000006E
:100080000000000000000000000000000000000070
:100090008100450027FF24FF2A902B1C210C22FB06
:1000A000850084008903888D81096F0244424700DE
:1000B0004501B083B300B10125118A4F8B03F525AB
:1000C000F825F925FD2504260C26112616261926C5
:1000D00029262C262F266A266D2670260040889118
:1000E000D2E4ADB5B6BEBFFF0000000000000000C6
:1000F0000000000000000000000000000000000000
:1001000000000000000000000000000000000000EF
:10011000000000000000000000007F000000007FE1
:100120007F00000000007F00000000007F00000052
:1001300000007F00000000007F000000007F7F7F44
:100140000000000000000000007F7F7F00007F00B3
:1001500000007F00000000007F0000007F7F0000A3
:10016000007F000000007F00000000007F7F7F7F95
:100170007F00000000000000007F7F7F00007F0004
:1001800000007F00000000007F00007F7F7F0000F4
:10019000000000007F007F0000007F00007F7F7F65
:1001A00000000000000000000000007F00000000D0
:1001B0007F7F0000007F007F00007F00007F000045
:1001C0007F7F7F7F7F000000007F00000000007FB6
:1001D00000000000000000007F7F7F7F7F007F0025
:1001E000000000007F00000000007F7F7F7F000094
:1001F000000000007F007F0000007F00007F7F7F05
:10020000000000000000000000007F7F0000007F71
:10021000000000007F00000000007F7F7F7F000063
:100220007F0000007F007F0000007F00007F7F7F55
:1002300000000000000000007F7F7F7F7F00000043
:1002400000007F000000007F000000007F00000031
:10025000007F00000000007F00000000007F000021
:100260000000000000000000007F7F7F00007F0092
:1002700000007F007F0000007F00007F7F7F000084
:100280007F0000007F007F0000007F00007F7F7FF5
:100290000000000000000000007F7F7F00007F0062
:1002A00000007F007F0000007F00007F7F7F7F00D5
:1002B000000000007F000000007F0000007F7F0042
:1002C0000000000000000000007F7F7F00007F0032
:1002D00000007F007F0000007F007F0000007F00A3
:1002E0007F7F7F7F7F007F0000007F007F00000016
:1002F0007F000000000000007F7F7F7F00007F0004
:1003000000007F007F0000007F007F7F7F7F000074
:100310007F0000007F007F0000007F007F7F7F7FE5
:100320000000000000000000007F7F7F00007F00D1
:1003300000007F007F00000000007F000000000040
:100340007F00000000007F0000007F00007F7F7FB3
:1003500000000000000000007F7F7F7F00007F0022
:1003600000007F007F0000007F007F0000007F0012
:100370007F0000007F007F0000007F007F7F7F7F85
:1003800000000000000000007F7F7F7F7F007F0073
:10039000000000007F00000000007F7F7F7F0000E2
:1003A0007F00000000007F00000000007F7F7F7F53
:1003B0007F000000000000007F7F7F7F7F007F00C4
:1003C000000000007F00000000007F7F7F7F0000B2
:1003D0007F00000000007F00000000007F000000A0
:1003E000000000000000000000F8F8F80000F8002D
:1003F0000000F800F80000F8F800F800F800F80035
:10040000F8F80000F800F8000000F80000F8F8F82C
:1004100000000000000000000000F800000000F8EC
:10042000F80000000000F80000000000F8000000E4
:100430000000F80000000000F800000000F8F8F8E4
:10044000000000000000000000F8F8F80000F800CC
:100450000000F80000000000F8000000F8F80000BC
:1004600000F800000000F80000000000F8F8F8F8BC
:10047000F80000000000000000F8F8F80000F800A4
:100480000000F80000000000F80000F8F8F8000094
:1004900000000000F800F8000000F80000F8F8F88C
:1004A0000000000000000000000000F80000000054
:1004B000F8F8000000F800F80000F80000F800006C
:1004C000F8F8F8F8F800000000F80000000000F864
:1004D0000000000000000000F8F8F8F8F800F8004C
:1004E00000000000F80000000000F8F8F8F8000034
:1004F00000000000F800F8000000F80000F8F8F82C
:1005000000000000000000000000F8F8000000F803
:1005100000000000F80000000000F8F8F8F8000003
:10052000F8000000F800F8000000F80000F8F8F803
:100530000000000000000000F8F8F8F8F8000000E3
:100540000000F800000000F800000000F8000000C3
:1005500000F80000000000F80000000000F80000B3
:10056000000000000000000000F8F8F80000F800AB
:100570000000F800F8000000F80000F8F8F80000AB
:10058000F8000000F800F8000000F80000F8F8F8A3
:10059000000000000000000000F8F8F80000F8007B
:1005A0000000F800F8000000F80000F8F8F8F80083
:1005B00000000000F800000000F8000000F8F8005B
:1005C000000000000000000000F8F8F80000F8004B
:1005D0000000F800F8000000F800F8000000F80043
:1005E000F8F8F8F8F800F8000000F800F80000004B
:1005F000F800000000000000F8F8F8F80000F8002B
:100600000000F800F8000000F800F8F8F8F8000022
:10061000F8000000F800F8000000F800F8F8F8F81A
:10062000000000000000000000F8F8F80000F800EA
:100630000000F800F80000000000F80000000000D2
:10064000F80000000000F8000000F80000F8F8F8DA
:100650000000000000000000F8F8F8F80000F800C2
:100660000000F800F8000000F800F8000000F800B2
:10067000F8000000F800F8000000F800F8F8F8F8BA
:100680000000000000000000F8F8F8F8F800F8009A
:1006900000000000F80000000000F8F8F8F8000082
:1006A000F80000000000F80000000000F8F8F8F87A
:1006B000F800000000000000F8F8F8F8F800F80072
:1006C00000000000F80000000000F8F8F8F8000052
:1006D000F80000000000F80000000000F800000032
:1006E000000000000000000000000000000000000A
:1006F00000000000000000000000000000000000FA
:1007000000000000000000000000000000000000E9
:1007100000000000000000000000000000000000D9
:1007200000000000000000000000FFFFFF000000CC
:100730000000FFFFFF0000000000FFFFFF000000BF
:100740000000FFFF000000000000FFFF00000000AD
:1007500000000000000000000000FFFF000000009B
:1007600000000000000000000000FF00FF0000008B
:100770000000FF00FF0000000000FF00FF0000007D
:100780000000000000000000000000000000000069
:100790000000000000000000000000000000000059
:1007A000000000000000000000FF000000FF00004B
:1007B000FFFFFFFFFFFFFF0000FF000000FF000042
:1007C00000FF000000FF000000FF000000FF00002D
:1007D000FFFFFFFFFFFFFF0000FF000000FF000022
:1007E0000000000000000000000000FF000000000A
:1007F00000FFFFFFFFFFFF00FF0000FF0000000001
:1008000000FFFFFFFFFF0000000000FF0000FF00EF
:10081000FFFFFFFFFFFF0000000000FF00000000DF
:100820000000000000000000FFFF000000000000CA
:10083000FFFF0000FF000000000000FF00000000BC
:100840000000FF000000000000FF000000000000AA
:10085000FF0000FFFF000000000000FFFF0000009D
:1008600000000000000000000000FFFF000000008A
:1008700000FF0000FF00000000FFFF00FF0000007D
:1008800000FFFFFF00000000FF0000FFFF00FF006F
:10089000FF000000FFFF000000FFFFFFFF00FF0060
:1008A000000000000000000000FFFF00000000004A
:1008B00000FFFF00000000000000FF00000000003B
:1008C00000FF000000000000000000000000000029
:1008D0000000000000000000000000000000000018
:1008E000000000000000000000000000FFFF00000A
:1008F000000000FF000000000000FF0000000000FA
:100900000000FF00000000000000FF0000000000E9
:10091000000000FF0000000000000000FFFF0000DA
:1009200000000000000000000000FFFF00000000C9
:1009300000000000FF0000000000000000FF0000B9
:100940000000000000FF00000000000000FF0000A9
:1009500000000000FF0000000000FFFF000000009A
:100960000000000000000000000000000000000087
:10097000000000FF0000000000FF00FF00FF00007B
:100980000000FFFFFF00000000FF00FF00FF00006D
:10099000000000FF00000000000000000000000058
:1009A0000000000000000000000000000000000047
:1009B000000000FF00000000000000FF0000000039
:1009C00000FFFFFFFFFF0000000000FF000000002D
:1009D000000000FF00000000000000000000000018
:1009E0000000000000000000000000000000000007
:1009F00000000000000000000000000000000000F7
:100A000000000000000000000000FFFF00000000E8
:100A10000000FFFF0000000000FFFF0000000000DA
:100A200000000000000000000000000000000000C6
:100A300000000000000000000000000000000000B6
:100A400000FFFFFFFFFF00000000000000000000AB
:100A50000000000000000000000000000000000096
:100A60000000000000000000000000000000000086
:100A70000000000000000000000000000000000076
:100A80000000000000000000000000000000000066
:100A90000000FFFF000000000000FFFF000000005A
:100AA0000000000000000000000000000000FF0047
:100AB0000000000000FF000000000000FF00000038
:100AC000000000FF000000000000FF000000000028
:100AD00000FF000000000000FF0000000000000018
:100AE00000000000000000000000FFFFFF00000009
:100AF00000FF0000FFFF0000FFFF000000FFFF00FD
:100B0000FFFF000000FFFF00FFFF000000FFFF00ED
:100B100000FFFF0000FF00000000FFFFFF000000DB
:100B20000000000000000000000000FFFF000000C7
:100B30000000FFFFFF000000000000FFFF000000BA
:100B4000000000FFFF000000000000FFFF000000A9
:100B5000000000FFFF00000000FFFFFFFFFFFF009D
:100B6000000000000000000000FFFFFFFFFF00008A
:100B7000FFFF000000FFFF0000000000FFFFFF007C
:100B80000000FFFFFFFF000000FFFFFFFF0000006D
:100B9000FFFFFF0000000000FFFFFFFFFFFFFF005F
:100BA000000000000000000000FFFFFFFFFFFF004B
:100BB00000000000FFFF0000000000FFFF00000039
:100BC0000000FFFFFFFF00000000000000FFFF002B
:100BD000FFFF000000FFFF0000FFFFFFFFFF00001E
:100BE0000000000000000000000000FFFFFF000008
:100BF0000000FFFFFFFF000000FFFF00FFFF0000FD
:100C0000FFFF0000FFFF0000FFFFFFFFFFFFFF00EF
:100C100000000000FFFF000000000000FFFF0000D8
:100C20000000000000000000FFFFFFFFFFFF0000CA
:100C3000FFFF000000000000FFFFFFFFFFFF0000BC
:100C40000000000000FFFF000000000000FFFF00A8
:100C5000FFFF000000FFFF0000FFFFFFFFFF00009D
:100C600000000000000000000000FFFFFFFF000088
:100C700000FFFF0000000000FFFF00000000000078
:100C8000FFFFFFFFFFFF0000FFFF000000FFFF006E
:100C9000FFFF000000FFFF0000FFFFFFFFFF00005D
:100CA0000000000000000000FFFFFFFFFFFFFF004B
:100CB000FFFF000000FFFF0000000000FFFF00003A
:100CC000000000FFFF0000000000FFFF0000000028
:100CD0000000FFFF000000000000FFFF0000000018
:100CE000000000000000000000FFFFFFFF00000008
:100CF000FFFF000000FF0000FFFFFF0000FF0000FB
:100D000000FFFFFFFF000000FF0000FFFFFFFF00EC
:100D1000FF00000000FFFF0000FFFFFFFFFF0000DB
:100D2000000000000000000000FFFFFFFFFF0000C8
:100D3000FFFF000000FFFF00FFFF000000FFFF00BB
:100D400000FFFFFFFFFFFF000000000000FFFF00AB
:100D500000000000FFFF000000FFFFFFFF00000099
:100D60000000000000000000000000000000000083
:100D70000000FFFF000000000000FFFF0000000077
:100D800000000000000000000000FFFF0000000065
:100D90000000FFFF00000000000000000000000055
:100DA0000000000000000000000000000000000043
:100DB0000000FFFF000000000000FFFF0000000037
:100DC00000000000000000000000FFFF0000000025
:100DD0000000FFFF0000000000FFFF000000000017
:100DE000000000000000000000000000FF00000004
:100DF000000000FF000000000000FF0000000000F5
:100E000000FF0000000000000000FF0000000000E4
:100E1000000000FF0000000000000000FF000000D4
:100E200000000000000000000000000000000000C2
:100E3000000000000000000000FFFFFFFFFF0000B7
:100E4000000000000000000000FFFFFFFFFF0000A7
:100E50000000000000000000000000000000000092
:100E600000000000000000000000FF000000000083
:100E7000000000FF0000000000000000FF00000074
:100E80000000000000FF000000000000FF00000064
:100E9000000000FF000000000000FF000000000054
:100EA000000000000000000000FFFFFFFFFF000047
:100EB000FFFFFFFFFFFFFF00FFFF000000FFFF003D
:100EC00000000000FFFF00000000FFFFFF00000027
:100ED00000000000000000000000FFFFFF00000015
:100EE00000000000000000000000FFFFFF00000005
:100EF00000FF000000FF0000FF0000FF00FF0000F7
:100F0000FF00FF00FFFF0000FF0000FFFF000000E8
:100F100000FF0000000000000000FFFFFFFF0000D6
:100F200000000000000000000000FFFFFF000000C4
:100F300000FFFF00FFFF0000FFFF000000FFFF00B9
:100F4000FFFF000000FFFF00FFFFFFFFFFFFFF00AC
:100F5000FFFF000000FFFF00FFFF000000FFFF0099
:100F60000000000000000000FFFFFFFFFFFF000087
:100F7000FFFF000000FFFF00FFFF000000FFFF0079
:100F8000FFFFFFFFFFFF0000FFFF000000FFFF006B
:100F9000FFFF000000FFFF00FFFFFFFFFFFF00005B
:100FA00000000000000000000000FFFFFFFF000045
:100FB00000FFFF0000FFFF00FFFF00000000000037
:100FC000FFFF000000000000FFFF00000000000025
:100FD00000FFFF0000FFFF000000FFFFFFFF000019
:100FE0000000000000000000FFFFFFFFFF00000006
:100FF000FFFF0000FFFF0000FFFF000000FFFF00F9
:10100000FFFF000000FFFF00FFFF000000FFFF00E8
:10101000FFFF0000FFFF0000FFFFFFFFFF000000D9
:101020000000000000000000FFFFFFFFFFFFFF00C7
:10103000FFFF000000000000FFFF000000000000B4
:10104000FFFFFFFFFFFF0000FFFF000000000000A8
:10105000FFFF000000000000FFFFFFFFFFFFFF0099
:101060000000000000000000FFFFFFFFFFFFFF0087
:10107000FFFF000000000000FFFF00000000000074
:10108000FFFFFFFFFFFF0000FFFF00000000000068
:10109000FFFF000000000000FFFF00000000000054
:1010A00000000000000000000000FFFFFFFFFF0045
:1010B00000FFFF0000000000FFFF00000000000034
:1010C000FFFF0000FFFFFF00FFFF000000FFFF0029
:1010D00000FFFF0000FFFF000000FFFFFFFFFF0019
:1010E0000000000000000000FFFF000000FFFF0004
:1010F000FFFF000000FFFF00FFFF000000FFFF00F8
:10110000FFFFFFFFFFFFFF00FFFF000000FFFF00EA
:10111000FFFF000000FFFF00FFFF000000FFFF00D7
:10112000000000000000000000FFFFFFFFFFFF00C5
:10113000000000FFFF000000000000FFFF000000B3
:10114000000000FFFF000000000000FFFF000000A3
:10115000000000FFFF00000000FFFFFFFFFFFF0097
:101160000000000000000000000000FFFFFFFF0083
:1011700000000000FFFF000000000000FFFF000073
:1011800000000000FFFF000000000000FFFF000063
:10119000FF000000FFFF000000FFFFFFFF00000056
:1011A0000000000000000000FFFF000000FFFF0043
:1011B000FFFF0000FFFF0000FFFF00FFFF00000037
:1011C000FFFFFFFF00000000FFFFFFFFFF00000028
:1011D000FFFF00FFFFFF0000FFFF0000FFFFFF0019
:1011E000000000000000000000FFFF000000000001
:1011F00000FFFF000000000000FFFF0000000000F3
:1012000000FFFF000000000000FFFF0000000000E2
:1012100000FFFF000000000000FFFFFFFFFFFF00D6
:101220000000000000000000FFFF000000FFFF00C2
:10123000FFFFFF00FFFFFF00FFFFFFFFFFFFFF00BB
:10124000FFFFFFFFFFFFFF00FFFF00FF00FFFF00AA
:10125000FFFF000000FFFF00FFFF000000FFFF0096
:101260000000000000000000FFFF000000FFFF0082
:10127000FFFFFF0000FFFF00FFFFFFFF00FFFF0079
:10128000FFFFFFFFFFFFFF00FFFF00FFFFFFFF006B
:10129000FFFF0000FFFFFF00FFFF000000FFFF0057
:1012A000000000000000000000FFFFFFFFFF000043
:1012B000FFFF000000FFFF00FFFF000000FFFF0036
:1012C000FFFF000000FFFF00FFFF000000FFFF0026
:1012D000FFFF000000FFFF0000FFFFFFFFFF000017
:1012E0000000000000000000FFFFFFFFFFFF000004
:1012F000FFFF000000FFFF00FFFF000000FFFF00F6
:10130000FFFF000000FFFF00FFFFFFFFFFFF0000E7
:10131000FFFF000000000000FFFF000000000000D1
:10132000000000000000000000FFFFFFFFFF0000C2
:10133000FFFF000000FFFF00FFFF000000FFFF00B5
:10134000FFFF000000FFFF00FFFF00FFFFFFFF00A7
:10135000FFFF0000FFFF000000FFFFFFFF00FF0096
:101360000000000000000000FFFFFFFFFFFF000083
:10137000FFFF000000FFFF00FFFF000000FFFF0075
:10138000FFFF0000FFFFFF00FFFFFFFFFF00000067
:10139000FFFF00FFFFFF0000FFFF0000FFFFFF0057
:1013A000000000000000000000FFFFFFFF00000041
:1013B000FFFF0000FFFF0000FFFF00000000000033
:1013C00000FFFFFFFFFF00000000000000FFFF0024
:1013D000FFFF000000FFFF0000FFFFFFFFFF000016
:1013E000000000000000000000FFFFFFFFFFFF0003
:1013F000000000FFFF000000000000FFFF000000F1
:10140000000000FFFF000000000000FFFF000000E0
:10141000000000FFFF000000000000FFFF000000D0
:101420000000000000000000FFFF000000FFFF00C0
:10143000FFFF000000FFFF00FFFF000000FFFF00B4
:10144000FFFF000000FFFF00FFFF000000FFFF00A4
:10145000FFFF000000FFFF0000FFFFFFFFFF000095
:101460000000000000000000FFFF000000FFFF0080
:10147000FFFF000000FFFF00FFFF000000FFFF0074
:10148000FFFFFF00FFFFFF0000FFFFFFFFFF000067
:101490000000FFFFFF000000000000FF0000000050
:1014A0000000000000000000FFFF000000FFFF0040
:1014B000FFFF000000FFFF00FFFF00FF00FFFF0035
:1014C000FFFFFFFFFFFFFF00FFFFFFFFFFFFFF002A
:1014D000FFFFFF00FFFFFF00FFFF000000FFFF0016
:1014E0000000000000000000FFFF000000FFFF0000
:1014F000FFFFFF00FFFFFF0000FFFFFFFFFF0000F7
:101500000000FFFFFF00000000FFFFFFFFFF0000E3
:10151000FFFFFF00FFFFFF00FFFF000000FFFF00D5
:10152000000000000000000000FFFF0000FFFF00BF
:1015300000FFFF0000FFFF0000FFFF0000FFFF00B3
:101540000000FFFFFFFF0000000000FFFF000000A1
:10155000000000FFFF000000000000FFFF0000008F
:101560000000000000000000FFFFFFFFFFFFFF0082
:1015700000000000FFFFFF00000000FFFFFF000071
:101580000000FFFFFF00000000FFFFFF0000000061
:10159000FFFFFF0000000000FFFFFFFFFFFFFF0055
:1015A00000000000000000000000FFFFFFFF00003F
:1015B0000000FFFF000000000000FFFF000000002F
:1015C0000000FFFF000000000000FFFF000000001F
:1015D0000000FFFF000000000000FFFFFFFF000011
:1015E00000000000000000000000FFFFFFFF0000FF
:1015F00000FF00000000FF00FF0000FFFF0000FFF1
:10160000FF00FF00000000FFFF00FF00000000FFE0
:10161000FF0000FFFF0000FF00FF00000000FF00D0
:101620000000FFFFFFFF00000000FFFFFFFF0000C2
:1016300000000000FFFF000000000000FFFF0000AE
:1016400000000000FFFF000000000000FFFF00009E
:1016500000000000FFFF00000000FFFFFFFF000090
:1016600000000000000000000000FF00000000007B
:1016700000FF00FF00000000FF000000FF0000006E
:10168000000000000000000000000000000000005A
:10169000000000000000000000000000000000004A
:1016A000000000000000000000000000000000003A
:1016B000000000000000000000000000000000002A
:1016C000000000000000000000000000000000001A
:1016D0000000000000000000FFFFFFFFFFFFFF0011
:1016E0000000000000000000C1A00012B9A10032FB
:1016F000D3A20052D4DF6712ADDF0F12B932CF523E
:10170000D4DF0E52D3DF1E52D8DF2CA000A100A2DE
:101710000052D3DF0F12ADDF0F12BE32D152D8DF2D
:101720004A52CCDF0E52D1DF0F52D8DF0F12C03237
:10173000D352D6DF3B32D6DF1EA000A100A200DFCD
:101740001D12BE32D152D8DF7612C032D452DDDF44
:101750001752DBDF1652D9DF0E52D8DF1EA000A1D0
:1017600000A20052D4DF1E12BE32C752DDDF761255
:10177000CC52DCDF58A000A100A200DF1E12CCA0DA
:101780000032C7A10052DCA200A300CF32C552DA5A
:10179000CB32C452D7CF32C252D4CF32C052D0CBC8
:1017A00032BD52CCCF32BB52C5CFCB12B932D1529F
:1017B000D46883CFCF12B9CFCB12B932D152D4CFA4
:1017C000CF12B932CF52D3CBCF12B96884CFCB125C
:1017D000B932D152D4CFCF12B9CBCF12B932CF5206
:1017E000D3CFCF12B96883CBCF12B932D152D4CF75
:1017F000CB12B9CFCF12B932CF52D3CBCF12B968F7
:1018000084CFCB12B932D152D4CFCF12B732CF520C
:10181000D3CFCB12B9CFCF12BE32D152D46883CB43
:10182000CF12BECFCB12BE32D152D4CFCF12BE32E6
:10183000CF52D3CBCF12BE6884CFCF12BE32D1529B
:10184000D4CBCF12BECFCB12BE32CF52D3CFCF121A
:10185000BE6883CBCF12BE32D152D4CFCB12BECF13
:10186000CF12BE32CF52D3CFCB12BEA000A100A266
:10187000006884A300CFCF12BE32D152D4CBCF1296
:10188000BE32D452D8CFCB12BECFCF12B732D35242
:10189000D66883CBCF12B7CFCF12B732D352D6CBC5
:1018A000CF12B732D152D4CFCB12B76884CFCF1278
:1018B000B732D352D6CBCF12B7CFCB12B732D15229
:1018C000D4CFCF12B76883CFCB12B732D352D6CF93
:1018D000CF12B7CBCF12B732D152D4CFCB12B76819
:1018E00084CFCF12B732D352D6CBCF12B732CF522A
:1018F000D3CFCF12B7CBCF12B932D152D46883CF66
:10190000CB12B9CFCF12B932D152D4CBCF12B93218
:10191000CF52D3CFCF12B96884CBCF12B932D152C4
:10192000D4CFCB12B9CFCF12B932CF52D3CBCF1243
:10193000B56883CFCB12B532D152D4CFCF12B5CF49
:10194000CB12B532CF52D3CFCF12B7A000A100A295
:10195000006884A300CBCF12C332D152D4CFCB12B4
:10196000B732CF52D3CFCF12C3CBCF12B932D4526A
:10197000CC6883CFCF32CCDB12B932D352CCCFCBB1
:1019800052CCCFCF12B932D16884DB52CCCFCB123C
:10199000B932CFDF0832D152CCCFCB12B96883DF56
:1019A0000832D152D8DB12B4CFCB12B9DF08688429
:1019B000DB12B4CFCF12B9DB32CCDB12BE32D45241
:1019C000CC6883CFCF32CCDB12BE32D352CCCFCB5C
:1019D00052CCCFCF12BE32D16884DB52CCCFCF12E3
:1019E000BE32CFDB32D152CCCFCB12BE6883DF0800
:1019F00052D8DB12B9CFCF12BEDBA000A100A200EB
:101A00006884A300DB12B9CFCF12BEDB32CCDB126D
:101A1000B732D652CF6883CFCF32CCDB12B732D4B5
:101A200052CFCFCF32D352CFCBCF12B76884DB5255
:101A3000CFCFCF12B7DB32CC52CFCFCF12B732D607
:101A40006883DB32CC52CFCFCB12B232D4CFCF129D
:101A5000B732D352CFCBCF6884DB12B252CFCFCFC5
:101A600012B752CFCFCB32CCDF0812B932D452CC1E
:101A70006883CBCF32CCDB12B932D352CCCFCF522A
:101A8000CCCFCB12B932D16884DF0852CCCBCF1285
:101A9000B932CFDB32D152CCCFCF12B56883DB5213
:101AA000DBDF16A00012B732D1A100A20052DDA3E5
:101AB000006884DF08CBCF12B7DB32CCDF0812B965
:101AC00032D452CC6883CFCB32CCDF0812B932D3B8
:101AD00052CCCBCF52CCCFCB12B932D16884DF08F5
:101AE00052CCCBCF12B932CFDF0832D152CCCBCFD0
:101AF00012B96883DB32D152D4DF0812B4CBCF12D3
:101B0000B9DB32D152D46884DF0812B4CFCB12B91A
:101B1000DF0832CCDB12BE32D452CC6883CFCB325A
:101B2000CCDF0812BE32D352CCCBCF52CCCFCF12A7
:101B3000BE32D16884DB52CCCFCB12BE32CFDF08AD
:101B400032D152CCCBCF12BE6883DB32D152D4DF3C
:101B50000812B9CFCB12BEDF08A00032D1A10052CB
:101B6000D4A2006884A300DB12B9CFCB12BEDF0879
:101B700032CCDB12B732D652CF6883CFCF32CCDB38
:101B800012B732D452CFCFCB32D352CFCFCF12B73E
:101B90006884DB52CFCFCB12B7DF0832CC52CFCF25
:101BA000CB12B732D66883DF0832CC52CFCBCF12FC
:101BB000B232D4CFCB12B732D352CFCFCF6884DB7F
:101BC00012B252CFCFCF12B752CFCBCF32CCDB1223
:101BD000B932D452CC6883CFCF32CCDB12B932D3F6
:101BE00052CCCFCF52CCCBCF12B932D16884DB529A
:101BF000CCCFCF12B932CFDB32D152CCCFCB12B552
:101C00006883DF0852DBDF1612B7A00032D1A100D3
:101C1000A20052DD6884A300DBCFCF12B7DBDF0860
:101C200012B932D452CC6883CBCFDB12B932D35243
:101C3000CCCFCF32D152CCCBCF12B96884DB32CFEC
:101C400052CCCFCF12B9DB32CF52CCCFCF12B96842
:101C500083DB32D152CCCFCB12B4CFCF12B932CF3B
:101C600052CCCB32D1CF32D16884CF32D1CF12B463
:101C700052CCCBCF12B932D452CCCFCB32D4CFCF7F
:101C800012BE32D452CD6883CBCFDB12BE32D352D8
:101C9000CDCFCF32D152CDCFCB12BE6884DF083248
:101CA000CF52CDCBCF12BEDB32CF52CDCF32D1CF40
:101CB00012BE32D16883CB32D1CF32D152CDCFCF09
:101CC00012B9CBCF12BE52CDCFCBA000A100A20043
:101CD000A3006884DF0812B952CDCBCF12BE32CF39
:101CE00052CDCFCBDF0812B732D652CF6883CFCBDD
:101CF000DF0812B732D452CFCBCF32D352CFCFCBB3
:101D000012B76884DF0832CF52CFCBCF12B7DF08CB
:101D100032D652CFCBCF12B76883DB32D452CFCF7B
:101D2000CF12B2CBCF12B732D352CFCFCF6884CB42
:101D3000CF12B252CFCFCB12B732CF52CFCFCF329A
:101D4000CCDB12B932D152CC6883CFCB32D1DF0891
:101D500012B932CF52CCCFCB32D152CCCFCF12B975
:101D60006884DB32D452CCCFCB12B952CCCFCF3235
:101D7000CFCB32D1CF12B532D152C16883CF32D15D
:101D8000CF32D1CBCF12B552C1CFCBDF0812B7A023
:101D900000A10052C3A2006884A300CBCFDB12B71E
:101DA00032D352C3CFCFDB12B932D452D86883DFDB
:101DB00008DB12B932D352D6DB32D152D4DF08124B
:101DC000B96884DB32CF52D3DF0812B9DB32CF528D
:101DD000D3CF32D152D4CB12B932D152D46883CFBF
:101DE00032D152D4CF32D152D4DB12B4CFCB12B9CC
:101DF00052CCCFCF6884DB12B452CCCFCF12B932E1
:101E0000D452CCCBCFDB12BE32D452CD6883CFCFED
:101E1000DB12BE32D352CDCFCF32D152CDCBCF1287
:101E2000BE6884DB32CF52CDCFCF12BEDB32CF5271
:101E3000CDCF32D1CB12BE32D16883CF32D1CF32A7
:101E4000D152CDCFCB12B9CFCF12BE52CDCBCFA076
:101E500000A100A2006884A300DB12B952CDCFCF4D
:101E600012BE52CDCBCFDF0812B732D652CF688325
:101E7000CBCFDB12B732D452CFCFCF32D352CFCB6E
:101E8000CF12B76884CFCF52CFCBCF12B7DB52CFB0
:101E9000CFCF12B732D66883DB52CFCFCB12B2325C
:101EA000D4CFCF12B732D352CFCFCB6884CFCF129B
:101EB000B252CFCBCF12B752CFCFCBDF0812B9324D
:101EC000D152D86883DBDF0812B932CF52D6DB3269
:101ED000D152D8DB12B96884DF0832D452DBDB126E
:101EE000B9DB32CF52D6CF32D152D7CF12B532D1A1
:101EF00052D86883CF32D152D8CB32D152DBCFCF38
:101F000012B5DBDB12B7A00032D1A100A20052DD76
:101F10006884A300DF08CBCF12B7DF08DB12B93229
:101F2000D852C56883CFCBDF0812B932D652C5CBA1
:101F3000CF32D5DB12B952C56884CFCF32D1DB1294
:101F4000B952C5CFCF32D852C5CBCF12B952C5681E
:101F500083CFCB32D6DF0812B452C5CBCF12B93201
:101F6000D452C5CFCF6884DB12B452C5CFCB12B9DF
:101F700052C5CFCFDB12B432D752D36883CF32D819
:101F8000CB32D8CF32D8CF12B432D8CFCB32D8520E
:101F9000D3CFCF12B46884DB32DA52D3CFCB12B4B2
:101FA000DF0832D852D3CBCF12B46883DF0852D3C4
:101FB000CBCF12B4CFCB32D052D3CFCF12B4A000FC
:101FC00032D0A10052D3A2006884A300CBCFDB1291
:101FD000B432D052D3CFCF32D052D3CFCB12B532CE
:101FE000D452CD6883CFCF52CDCBCF12B552CDCF07
:101FF000CB52CDCFCF12B7A000A10032D652CFA284
:10200000006884CFCB52CFCFCF12B752CFCBCF52B5
:10201000CFCFCB12BC32D852E06883DF08DB12BCD2
:1020200032D6DF0832D452CFCBCF12BC6884CFCBAC
:1020300052CFCFCF12BC52CFCBDF0B12BC32D85213
:10204000CF6883CFCFDB12B732D652CFCFCF12BCFF
:1020500032D452CFCBCF6884CFCB12B732D652CF47
:10206000CF32D7CF12BC32D852CFCB32D8CF32D822
:10207000CF32D8CF12B732D652CF6883CBCFDB1254
:10208000B732D652CFCFCF32D652CFCBCF12B7A3A3
:10209000006884DB32D652E0CF32D7CF12B732D8C5
:1020A000CF32D8CB32D8CF32D8CF12B732D652DFD8
:1020B0006883CBCFCFCB12B252DDCFCF12B7DBA02C
:1020C00000A10052DBA2006884DF0812B2CBCF125D
:1020D000B7DBDF0812BE32D952DD6883DBDB12BE0C
:1020E00032D852DBDF0832D652D9DB12BE6884CF39
:1020F000CFDB12BE32D652CDCFCBDF0812BE32D9E3
:1021000052DD6883DBDF0812B932D852DBCBCF1245
:10211000BE32D652D9DB6884CFCF12B932D8CB3297
:10212000D9CF12BE32D9CF32D9CB32D9CF32D9CFD3
:1021300012B932D86883DBDF0812B952D1CBCF3263
:10214000D452D1CFCB12B96884A300DF0852DDCFBF
:10215000CB12B952DDCFCFDB12B532D452E0688357
:10216000CFCBDF0812B552E0CBCFDF0812B7A0000B
:10217000A10032D652DBA2006884CBCF52E0CFCB95
:1021800012B7DF08DB12BC32D852E06883DBDF080D
:1021900012BC32D6DB32D452CFCFCF12BC6884CB44
:1021A000CF52CFCFCB12BC52CFCFDF0B12BC32D825
:1021B00052CF6883CFCFDB12B732D652CFCFCB12FC
:1021C000BC32D452CFCFCF6884CBCF12B732D652E5
:1021D000CFCF32D7CB12BC32D852CFCF32D8CF32BA
:1021E000D8CF32D8CB12B732D652CF6883CFCFDB1D
:1021F00012B732D652CFCFCB32D652CFCFCF12B7C3
:102200006884A300DB32D652E0CF32D7CF12B73288
:10221000D8CB32D8CF32D8CF32D8CB12B732D65271
:10222000DF6883CFCFCBCF12B252DDCFCB12B7DF77
:1022300008A000A10052DBA2006884DB12B2CFCF5D
:1022400012B7DBDB12BE32D952DD6883DF08DB1246
:10225000BE32D852DBDF0832D652D9DB12BE6884D8
:10226000CFCBDF0812BE32D652CDCBCFDB12BE327F
:10227000D952DD6883DF08DB12B932D852DBCFCF09
:1022800012BE32D652D9DB6884CFCB12B932D8CF46
:1022900032D9CF12BE32D9CB32D9CF32D9CF32D9FF
:1022A000CF12B932D86883DBDB12B952C8CFCF5214
:1022B000D1CBCF12B96884A300DF0852DDCBCF1297
:1022C000B932C852DDCFCBDF0812B552E06883CBFC
:1022D000CFDB12B532C852E0CFCF32C8CFCB12B766
:1022E000A000A10052DBA2006884CFCFDB12B7327E
:1022F000CACFCB32CACFCF12B532D452C16883CB4A
:10230000CF52D1CFCF12B532D452C1CBCF32D4526B
:10231000D1CFCB12B552C16884CFCF32D452D1CBFA
:10232000CF12B552C1CFCB32D452D1CFCF12B5528A
:10233000C16883CFCB32D152D1CFCF12B052C1CBF3
:10234000CF12B532CD52C1CFCB32CD52D16884CF6E
:10235000CF12B0CBCF12B532CD52C1CFCF32CD528A
:10236000D1CBCF12B732D652C36883CFCB52CFCFA7
:10237000CF12B732D652C3CBCF32D652CFCFCB1239
:10238000B752C36884A300CFCF32D652CFCFCB127F
:10239000B752C3CFCF32D652CFCBCF12B752C368CA
:1023A00083CFCB32D352CFCF32D1CF12B232CF5232
:1023B000CFCBCF12B752C3CFCFA00032D1A10052A2
:1023C000CFA2006884CBCF12B252CFCFCB12B7329C
:1023D000CF52C3CFCF52CFCBCF12B932D152C56873
:1023E00083CFCB52C8CFCF12B952D4CFCB52C5CFA7
:1023F000CF12B932CF52C86884CB32D1CF32D1524A
:10240000D4CF32D1CB12B952C5CFCF32CF52C5CBF8
:1024100032D1CF12B532D152D86883CF32D1CF3238
:10242000D1CB32D1CF12B5DBDF0812B7A00032CF4B
:10243000A100A20052D66884DBDF0812B7DBDB12F2
:10244000B532D452C16883CFCF52D1CBCF12B5327F
:10245000D452C1CFCB32D452D1CFCF12B552C168F2
:1024600084A300CFCB32D452D1CFCF12B552C1CB3F
:10247000CF32D452D1CFCB12B552C16883CFCF3235
:10248000D152D1CBCF12B052C1CFCF12B532CD5233
:10249000C1CBCF32CD52D16884CFCB12B0CFCF12C7
:1024A000B532CD52C1CBCF32CD52D1CFCB12B73214
:1024B000D652C36883CFCF52CFCFCB12B732D652CA
:1024C000C3CFCF32D652CFCBCF12B752C36884CF4F
:1024D000CB32D652CFCFCF12B752C3CBCF32D65298
:1024E000CFCFCF12B752C36883CBCF32D352CFCF27
:1024F00032D1CB12B232CF52CFCFCF12B752C3CBE1
:10250000CFA00032D3A10052CFA2006884CFCB125B
:10251000B252CFCFCF12B732D652C3CFCB52CFCFDA
:10252000CF12B432D852C06883CBCF52C4CFCB12B3
:10253000B452D0CFCF52C0CBCF12B432D652C4682F
:1025400084A300CF32D7CF32D852D0CB32D8CF12DB
:10255000B452C0CFCB32D652C4CF32D7CF12B4325E
:10256000D852D86883CB32D8CF32D8CF32D8CB121A
:10257000B4DF08DB12B4A00032DCA100A20052D804
:102580006884DF08DB12B4DBDF0812BC32D852DB10
:102590006883CBCF52DBCFCF12BC32D652D9CBCF50
:1025A00032D452D8CFCB12BC6884CFCF32D452CFE2
:1025B000CBCF12BC52CFCFCB12D4CFCF12BC32D89C
:1025C00052DB6883CFCB52DBCFCF12B732D652D992
:1025D000CBCF12BC32D452D8CFCB6884CFCF12B776
:1025E00032D652CFCF32D7CB12BC32D852CFCF3225
:1025F000D8CF32D8CB32D8CF12B732D652CF6883A9
:10260000CFCBDF0812B732D652CFCBCF32D652CF94
:10261000CFCF12B76884A300DB32D6CF32D7CB122C
:10262000B732D852D3CF32D8CF32D852D3CB32D818
:10263000CF12B732D66883DBCFCF12B232D352D6A5
:10264000CFCB12B732D352D6CFCFA000A100A20079
:102650006884DB12B2CFCB12B732D352D6CFCF328F
:10266000D352D6CBCF12BE32D952DD6883DF08DB1E
:1026700012BE32D852DBDB32D652D9DF0812BE6826
:1026800084CBCFDB12BE32D652CDCFCF32CD52D695
:10269000CFCB12BE32D952DD6883DF08DB12B932EC
:1026A000D852DBCFCB12BE32D652D9DF086884CBEA
:1026B000CF12B932D8CF32D9CF12BE32D9CB32D91C
:1026C000CF32D9CF32D9CB12B932D86883DF08DB09
:1026D00012B952DDCFCB32D4CFCF12B96884A30068
:1026E000DB32D452DDCFCF12B932D452DDCBCFDBC7
:1026F00012B532D152DD6883CF32D4CFDB12B5525E
:10270000CDCFCF52CDCBCF12B7A000A10032D6A2F1
:10271000006884DBDF0812B752CFCBCF52CFCFCBCC
:1027200012BC32D852DB6883DF08DB12BC32D652CF
:10273000D9DF0832D452D8DB12BC6884CFCB32D474
:1027400052CFCFCF12BC52CFCFCB12D4CFCF12BCEF
:1027500032D852DB6883DBDB12B732D652D9CFCF07
:1027600012BC32D452D8DB6884CFCF12B732D652E3
:10277000CFCB32D7CF12BC32D852CFCF32D8CB3218
:10278000D8CF32D8CF12B732D652CF6883CBCFDB77
:1027900012B732D652CFCFCF32D652CFCFCB12B71D
:1027A0006884A300DF0832D6CB32D7CF12B732D835
:1027B00052D3CF32D8CB32D852D3CF32D8CF12B7B0
:1027C00032D66883DBCFCF12B232D352D6CBCF1200
:1027D000B732D352D6CFCBA000A100A2006884DFCD
:1027E0000812B2CBCF12B732D352D6CFCB32D3529C
:1027F000D6CFCF12BE32D952DD6883DBDF0812BEDE
:1028000032D852DBDB32D652D9DB12BE6884CFCF4E
:10281000DB12BE32D652CDCFCF32CD52D6CBCF1275
:10282000BE32D952DD6883DBDF0812B932D852DB01
:10283000CBCF12BE32D652D9DB6884CFCF12B93299
:10284000D8CF32D9CB12BE32D9CF32D9CF32D9CBB1
:1028500032D9CF12B932D86883DBDF0812B9CBCFB7
:1028600032D152D4CFCF12B932D152C86884A3002A
:10287000CBCFDB12B932CC52D4CFCFDB12B532D1B1
:1028800052D46883CFCB32CD52C8CFCF12B532D11C
:1028900052D4CFCB32D152D4CFCF12B7A000A100A7
:1028A000A2006884DB32CF52CACFCB12B732D352E8
:1028B000D6CFCF32D352D6CBCF12B532D452C16895
:1028C00083CFCF52D1CBCF12B532D452C1CFCB327E
:1028D000D452D1CFCF12B552C16884CBCF32D452AB
:1028E000D1CFCF12B552C1CBCF32D452D1CFCB1230
:1028F000B552C16883CFCF32D152D1CBCF12B052B3
:10290000C1CFCB12B532CD52C1CFCF32CD52D1686B
:1029100084CFCB12B0CFCF12B532CD52C1CBCF3294
:10292000CD52D1CFCB12B732D652C36883CFCF525C
:10293000CFCBCF12B732D652C3CFCF32D652CFCBB6
:10294000CF12B752C36884A300CFCB32D652CFCFB9
:10295000CF12B752C3CBCF32D652CFCFCB12B75252
:10296000C36883CFCF32D352CFCF32D1CB12B23262
:10297000CF52CFCFCF12B752C3CBCFA00032D1A10D
:102980000052CFA2006884CFCB12B252CFCFCF1269
:10299000B732CF52C3CBCF52CFCFCF12B932D152F1
:1029A000C56883CBCF52C8CFCB12B952D4CFCF5248
:1029B000C5CBCF12B932CF52C86884CF32D1CB3217
:1029C000D152D4CF32D1CF12B952C5CFCB32CF52A0
:1029D000C5CF32D1CF12B532D152D86883CB32D1E4
:1029E000CF32D1CF32D1CB12B5DF08DB12B7A00086
:1029F00032CFA100A20052D66884DF08DB12B7DB19
:102A0000DF0812B532D452C16883CBCF52D1CFCBBD
:102A100012B532D452C1CFCF32D452D1CFCB12B5AE
:102A200052C1A3006884CFCF32D452D1CBCF12B5DC
:102A300052C1CFCB32D452D1CFCF12B552C168835D
:102A4000CBCF32D152D1CFCF12B052C1CBCF12B5F2
:102A500032CD52C1CFCB32CD52D16884CFCF12B05C
:102A6000CBCF12B532CD52C1CFCF32CD52D1CBCF99
:102A700012B732D652C36883CFCB52CFCFCF12B763
:102A800032D652C3CBCF32D652CFCFCB12B752C3EE
:102A90006884CFCF32D652CFCFCB12B752C3CFCF6D
:102AA00032D652CFCBCF12B752C36883CFCB32D3FB
:102AB00052CFCF32D1CF12B232CF52CFCBCF12B70B
:102AC00052C3CFCFA00032D3A10052CFA20068845E
:102AD000CBCF12B252CFCFCB12B732D652C3CFCF59
:102AE00052CFCBCF12B432D852C06883CFCB52C4AE
:102AF000CFCF12B452D0CFCB52C0CFCF12B432D638
:102B000052C46884A300CB32D7CF32D852D0CF3250
:102B1000D8CB12B452C0CFCF32D652C4CB32D7CFDB
:102B200012C032D86883CF32D8CF32D8CB32D8CF88
:102B300012C032D8DBDF0812C0A000A100A20068DA
:102B400084DBDB12C0DF08DB12B932D452D86883D1
:102B5000DF0832CCDB12B932D3CFCB52D8CFCF1271
:102B6000B932D152D86884CBCF52D8CFCF12B93234
:102B7000CFDB32D152CCCFCB12B96883DF08DB1266
:102B8000B432D152D4CFCB12B932D152D4CFCF68D4
:102B900084DB12B4CFCF12B9DB32CCDB12BE32D41D
:102BA00052CC6883CFCF32CCDB12BE32D352CCCFE3
:102BB000CF52CCCBCF12BE32D1A3006884DB52CC33
:102BC000CFCF12BE32CFDB32D152CCCFCB12BE68C8
:102BD00083DF08DB12B932D452D8CFCF12BE32D441
:102BE00052D8CBCFA000A100A2006884DB12B9CFDD
:102BF000CF12BEDB32CCDF0812B732D652CF688399
:102C0000CBCF32CCDB12B732D452CFCFCF32D3526C
:102C1000CFCBCF12B76884DF0852CFCBCF12B7DB50
:102C200032CC52CFCFCF12B732D66883DB32CC5200
:102C3000CFCFCB12B232D4CFCF12B732D352CFCF05
:102C4000CB6884DF0812B252CFCBCF12B752CFCFAE
:102C5000CB32CCDF0812B932D452CC6883CBCF321E
:102C6000CCDF0812B932D352CCCBCF52CCCFCB125F
:102C7000B932D16884A300DF0852CCCBCF12B9326D
:102C8000CFDB32D152CCCFCF12B56883DB52DBDF42
:102C90001612B7A00032D1A100A20052DD6884DF75
:102CA00008CBCF12B7DF0832CCDB12B932D452CC0A
:102CB0006883CFCBDF0812B932D352CCCBCF32D11D
:102CC00052CCCFCB12B96884DF0832CF52CCCFCBF5
:102CD00012B9DF0832CF52CCCBCF12B96883DB32C6
:102CE000D152CCCFCF12B4CBCF12B932CF52CCCF3E
:102CF00032D1CF32D16884CB32D1CF12B452CCCFC3
:102D0000CB12B932D452CCCFCF32D4CBCF12BE32C9
:102D1000D452CD6883CFCBDF0812BE32D352CDCF91
:102D2000CB32D152CDCFCF12BE6884A300DB32CFDD
:102D300052CDCFCB12BEDF0832CF52CDCB32D1CF66
:102D400012BE32D16883CF32D1CF32D152CDCBCF68
:102D500012B9CFCB12BE52CDCFCFA000A100A2009E
:102D60006884DB12B952CDCFCF12BE32CF52CDCB59
:102D7000CFDB12B732D652CF6883CFCFDB12B73258
:102D8000D452CFCFCB32D352CFCFCF12B76884DB60
:102D900032CF52CFCFCF12B7DB32D652CFCFCB12FA
:102DA000B76883DF0832D452CFCBCF12B2CFCF1265
:102DB000B732D352CFCBCF6884CFCB12B252CFCF62
:102DC000CF12B732CF52CFCBCF32CCDB12B932D108
:102DD00052CC6883CFCF32D1DB12B932CF52CCCFB5
:102DE000CF32D152CCCBCF12B96884A300DB32D41E
:102DF00052CCCFCF12B952CCCBCF32CFCF32D1CFF2
:102E000012B532D152C16883CB32D1CF32D152DB2D
:102E1000CFCB12B5DF08CBCF12B7A000A10052DB99
:102E2000A2006884DBDF0812B732D352DBDB52DD4D
:102E3000DF0812B932D452D86883DBDB12B932D33F
:102E400052D6DF0832D152D4DB12B96884DF08329F
:102E5000CF52D3DB12B9DB32CF52D3CF32D152D4DF
:102E6000CF12B932D152D46883CB32D152D4CF32BF
:102E7000D152D4DB12B4CFCF12B952CCCFCB6884AD
:102E8000DF0812B452CCCBCF12B932D452CCCFCB54
:102E9000DF0812BE32D452CD6883CBCFDF0812BE1A
:102EA00032D352CDCBCF32D152CDCFCB12BE6884EC
:102EB000A300DF0832CF52CDCBCF12BEDF0832CF16
:102EC00052CDCB32D1CF12BE32D16883CF32D1CBEB
:102ED00032D152CDCFCF12B9CBCF12BE52CDCFCB44
:102EE000A000A100A2006884DF0812B952CDCFCBA8
:102EF00012BE52CDCFCFDB12B732D652CF6883CFBE
:102F0000CBDF0812B732D452CFCBCF32D352CFCF90
:102F1000CF12B76884DB32CF52CFCFCB12B7DF08E6
:102F200032D652CFCBCF12B76883DB32D452CFCF59
:102F3000CF12B2CFCB12B732D352CFCFCF6884CB20
:102F4000CF12B252CFCFCB12B732CF52CFCFCF3278
:102F5000CCDB12B932D152CC6883CFCF32D1DB1265
:102F6000B932CF52CCCFCB32D152CCCFCF12B968FD
:102F700084A300DB32D452CCCFCB12B952CCCFCF0A
:102F800032CFCF32D1CB12B532D152C16883CF32DA
:102F9000D1CF32D152DBCBCF12B5DBCFCF12B7A01E
:102FA00000A10052DBA2006884DBDF0812B752DB0D
:102FB000DB52DDDB12B932D852C56883CFCFDB12CA
:102FC000B932D652C5CFCB32D5DF0812B952C56857
:102FD00084CFCB32D1DF0812B952C5CBCF32D85211
:102FE000C5CFCB12B952C56883CFCF32D6DB12B46E
:102FF00052C5CFCF12B932D452C5CBCF6884DB12C1
:10300000B452C5CFCF12B952C5CBCFDB12B432D731
:1030100052D36883CF32D8CF32D8CF32D8CB12B484
:1030200032D8CFCF32D852D3CBCF12B46884A300DA
:10303000DB32DA52D3CFCF12B4DB32D852D3CFCF78
:1030400012B46883DB52D3CFCB12B4CFCF32D0527D
:10305000D3CBCF12B4A00032D0A10052D3A20068CB
:1030600084CFCFDB12B432D052D3CFCB32D052D3B5
:10307000CFCF12B532D452CD6883CBCF52CDCFCB88
:1030800012B552CDCFCF52CDCFCB12B7A000A100F9
:1030900032D6A20052CF6884CFCF52CFCBCF12B757
:1030A00052CFCFCB52CFCFCF12BC32D852DB6883B6
:1030B000CBCF52DBCFCF12BC32D652D9CBCF32D40A
:1030C00052D8CFCB12BC6884CFCF32D452CFCBCF23
:1030D00012BC52CFCFCB12D4CFCF12BC32D852DBDE
:1030E0006883CFCB52DBCFCF12B732D652D9CBCFFA
:1030F00012BC32D452D8CFCB6884A300CFCF12B742
:1031000032D652CFCB32D7CF12BC32D852CFCF32F9
:10311000D8CF32D8CB32D8CF12B732D652CF68837D
:10312000CFCBDF0812B732D652CFCBCF32D652CF69
:10313000CFCB12B76884DF0832D6CF32D7CB12B7E5
:1031400032D852D3CF32D8CF32D852D3CB32D8CFD5
:1031500012B732D66883DBCFCF12B232D352D6CB7E
:10316000CF12B732D352D6CFCFA000A100A20068B1
:1031700084DB12B2CFCB12B732D352D6CFCF32D3F9
:1031800052D6CBCF12BE32D952DD6883DBDF0812B4
:10319000BE32D852DBDB32D652D9DF0812BE688489
:1031A000CBCFDB12BE32D652CDCFCF32CD52D6CF1F
:1031B000CB12BE32D952DD6883DF08DB12B932D8B8
:1031C00052DBCFCB12BE32D652D9DF08A3006884BF
:1031D000CBCF12B932D8CF32D9CF12BE32D9CB32FF
:1031E000D9CF32D9CF32D9CB12B932D86883DF08E0
:1031F000DB12B952DDCFCB32D4CFCF12B96884DB2A
:1032000032D452DDCFCF12B932D452DDCBCFDB1264
:10321000B532D152DD6883CF32D4CFDB12B552CD77
:10322000CFCF52CDCBCF12B7A000A10032D6A20093
:103230006884DBDF0812B752CFCBCF52CFCFCB128F
:10324000BC32D852DB6883DF08DB12BC32D652D9DD
:10325000DF0832D452D8DB12BC6884CFCB32D452D0
:10326000CFCFCF12BC52CFCBCF12D4CFCF12BC32E4
:10327000D852DB6883DBDB12B732D652D9CFCF12FC
:10328000BC32D452D8DB6884A300CFCB12B732D67D
:1032900052CFCF32D7CF12BC32D852CFCF32D8CBC9
:1032A00032D8CF32D8CF12B732D652CF6883CBCFF5
:1032B000DB12B732D652CFCFCF32D652CFCBCF12CE
:1032C000B76884DF0832D6CB32D7CF12B732D852A4
:1032D000D3CF32D8CB32D852D3CF32D8CF12B732A5
:1032E000D66883DBCFCB12B232D352D6CFCF12B750
:1032F00032D352D6CFCBA000A100A2006884DF0851
:1033000012B2CBCF12B732D352D6CFCB32D352D6A2
:10331000CFCF12BE32D952DD6883DBDF0812BE3256
:10332000D852DBDB32D652D9DB12BE6884CFCFDB7A
:1033300012BE32D652CDCFCF32CD52D6CBCF12BE67
:1033400032D952DD6883DBDF0812B932D852DBCBC9
:10335000CF12BE32D652D9DB6884A300CFCF12B9C8
:1033600032D8CF32D9CB12BE32D9CF32D9CF32D91F
:10337000CB32D9CF12B932D86883DBDF0812B9CB90
:10338000CF32D152D4CFCF12B932D152C86884CB08
:10339000CFDB12B932CC52D4CFCFDB12B532D152FF
:1033A000D46883CFCB32CD52C8CFCF12B532D152F1
:1033B000D4CFCB32D152D4CFCF12B7A000A100A22C
:1033C000006884DB32CF52CACFCB12B732D352D689
:1033D000CFCF32D352D6CBCF12BC32D852DB688398
:1033E000CFCF52DBCBCF12BC32D652D9CFCB32D4D7
:1033F00052D8CFCF12BC6884CBCF32D452CFCFCBF0
:1034000012BC52CFCFCF12D4CFCB12BC32D852DBAA
:103410006883CFCF52DBCBCF12B732D652D9CFCBC6
:1034200012BC32D452D8CFCF6884A300CBCF12B70E
:1034300032D652CFCF32D7CF12BC32D852CFCB32C6
:10344000D8CF32D8CF32D8CB12B732D652CF68834A
:10345000CFCFDB12B732D652CFCFCB32D652CFCF6F
:10346000CF12B76884DB32D6CF32D7CF12B732D87B
:1034700052D3CB32D8CF32D852D3CF32D8CB12B7E7
:1034800032D66883DF08CBCF12B232D352D6CFCF39
:1034900012B732D352D6CBCFA000A100A2006884CD
:1034A000DB12B2CFCF12B732D352D6CBCF32D352F8
:1034B000D6CFCF12BE32D952DD6883DBDB12BE32EB
:1034C000D852DBDF0832D652D9DB12BE6884CFCBAC
:1034D000DF0812BE32D652CDCFCBDF0812BE32D9B2
:1034E00052DD6883DBDB12B932D852DBCFCF12BE9C
:1034F00032D652D9DB6884A300CFCF12B932D8CBF1
:1035000032D9CF12BE32D9CF32D9CB32D9CF32D97C
:10351000CF12B932D86883DBDB12B952D1CFCF32A8
:10352000D452D1CFCB12B96884DF0852DDCBCF1291
:10353000B952DDCFCBDF0812B532D452E06883CB6D
:10354000CFDF0812B552E0CBCFDB12B7A000A1004D
:1035500032D652DBA2006884CFCF52E0CBCF12B775
:10356000DBDF0812BC32D852DB6883DBDF0812BC19
:1035700032D652D9DB32D452D8DB12BC6884CFCFDA
:1035800032D452CFCBCF12BC52CFCFCF12D4CBCF6D
:1035900012BC32D852DB6883DBDF0812B732D65256
:1035A000D9CBCF12BC32D452D8DB6884A300CFCFA2
:1035B00012B732D652CFCF32D7CB12BC32D852CF7D
:1035C000CF32D8CF32D8CB32D8CF12B732D652CFB3
:1035D0006883CFCBDF0812B732D652CFCBCF32D6EB
:1035E00052CFCFCF12B76884DB32D6CF32D7CB12CF
:1035F000B732D852D3CF32D8CF32D852D3CB32D839
:10360000CF12B732D66883DBCFCF12B232D352D6C5
:10361000CFCB12B732D352D6CFCFA000A100A20099
:103620006884DB12B2CFCB12B732D352D6CFCF32AF
:10363000D352D6CFCB12BE32D952DD6883DF08DB3E
:1036400012BE32D852DBDB32D652D9DF0812BE6846
:1036500084CBCFDF0812BE32D652CDCBCF32CD5283
:10366000D6CFCB12BE32D952DD6883DF08DB12B968
:1036700032D852DBCFCB12BE32D652D9DF086884A3
:10368000A300CFCB12B932D8CF32D9CF12BE32D9A4
:10369000CB32D9CF32D9CF32D9CB12B932D8688315
:1036A000DF08DB12B9CFCF32D152D4CBCF12B9322F
:1036B000D152C86884CFCBDF0812B932CC52D4CBF8
:1036C000CFDB12B532D152D46883CFCF32CD52C8BE
:1036D000CFCB12B532D152D4CFCF32D152D4CBCFFF
:1036E00012B7A000A100A2006884DB32CF52CACF7B
:1036F000CF12B732D352D6CBCF32D352D6CFCF128E
:10370000B532D452C16883CBCF52D1CFCB12B532B0
:10371000D452C1CFCF32D452D1CBCF12B552C1681F
:1037200084CFCB32D452D1CFCF12B552C1CFCB320E
:10373000D452D1CFCF12B552C16883CBCF32D15240
:10374000D1CFCB12B052C1CFCF12B532CD52C1CBF7
:10375000CF32CD52D1A3006884CFCF12B0CBCF12DD
:10376000B532CD52C1CFCB32CD52D1CFCF12B7323D
:10377000D652C36883CBCF52CFCFCB12B732D652FB
:10378000C3CFCF32D652CFCFCB12B752C36884CF7C
:10379000CF32D652CFCBCF12B752C3CFCB32D652C5
:1037A000CFCFCF12B752C36883CFCB32D352CFCF54
:1037B00032D1CF12B232CF52CFCBCF12B752C3CF0A
:1037C000CBA00032D1A10052CFA2006884CFCF128B
:1037D000B252CFCBCF12B732CF52C3CFCF52CFCB13
:1037E000CF12B932D152C56883CFCB52C8CFCF12D6
:1037F000B952D4CBCF52C5CFCB12B932CF52C86851
:1038000084CF32D1CF32D152D4CF32D1CB12B952B0
:10381000C5CFCF32CF52C5CB32D1CF12B532D15274
:10382000D86883CF32D1CB32D1CF32D1CF12B5DBF2
:10383000DF0812B7A00032CFA100A20052D66884E0
:10384000A300DBDB12B7DF08DB12B532D452C1684C
:1038500083CFCB52D1CFCF12B532D452C1CFCB32DE
:10386000D452D1CFCF12B552C16884CBCF32D4520B
:10387000D1CFCB12B552C1CFCF32D452D1CBCF1290
:10388000B552C16883CFCF32D152D1CBCF12B05213
:10389000C1CFCB12B532CD52C1CFCF32CD52D168CC
:1038A00084CBCF12B0CFCB12B532CD52C1CFCF32F5
:1038B000CD52D1CFCB12B732D652C36883CFCF52BD
:1038C000CFCBCF12B732D652C3CFCB32D652CFCF17
:1038D000CF12B752C36884CBCF32D652CFCFCF12DC
:1038E000B752C3CBCF32D652CFCFCB12B752C36869
:1038F00083CFCF32D352CFCB32D1CF12B232CF52CD
:10390000CFCFCB12B752C3CFCFA00032D3A100523A
:10391000CFA2006884A300CFCB12B252CFCFCF1278
:10392000B732D652C3CBCF52CFCFCB12B432D8524C
:10393000C06883CFCF52C4CBCF12B452D0CFCF52B6
:10394000C0CBCF12B432D652C46884CF32D7CB3278
:10395000D852D0CF32D8CF12B452C0CBCF32D652F9
:10396000C4CF32D7CF12C032D852DD6883CB32D821
:10397000CF32D8CF32D8CB12C032D8CFCF52DFDB44
:1039800012C0A000A100A2006884CFDF0B12C052B9
:10399000DDCFCBDF0812B932D852E06883CBCF320B
:1039A000D8CFCB12B932D8CFCF32D8CBCF12B9685B
:1039B00084DF0832D852CCCBCF12B952D4DB32D804
:1039C000CFCF12B952D36883DB32D8CFCB12B452E7
:1039D000D1CFCF12B932D8CFCB52CF6884A300CF8A
:1039E000CF12B432D852D1CBCF12B932D8CFCBDF2D
:1039F0000812BE32CC52CA6883CBCFDF0812BE3267
:103A0000CC52CACBCF32CCCFCB12BE52CA6884CFF5
:103A1000CF32CC52CACBCF12BEDB32CC52C8CFCFC2
:103A200012BE6883DB32CCCFCF12B9CBCF12BE32FD
:103A3000CCCFCBA000A1006884DF0812B932CCCB78
:103A4000CF12BE32CCA200CFCFDB12B732D6688302
:103A5000CFCBDF0812B732D652D6CBCF32D452D624
:103A6000CFCB12B752D46884CFCF32D652D4CFCB7B
:103A700012B752D1CFCF32D452D1CBCF12B752CF0F
:103A80006883CFCB32D652CFCFCF12B252CACBCF70
:103A900012B732D452CACFCF52C86884A300CBCF5A
:103AA00012B232D652C8CFCB12B732D352CACFCF0E
:103AB00052CADB12B932C552CB6883DF0832C85212
:103AC000CFDB12B932C852CBDB32C552CADF081283
:103AD000B932DB52C86884CBCF32DBCFCB12B932DC
:103AE000DBCFCF32DDDB12B56883DF0832D4CBCF3A
:103AF00012B552E2CFCB32D352E2CFCF12B7A000F1
:103B0000A10052E26884CBCF32D452E2A200CFCFE0
:103B100012B732D352E2CBCF52E2CFCB12B932E35B
:103B20006883CFCF32DB52E3CBCF12B952E3CFCB96
:103B300052E3CFCF12B932DB52E46884CFCB52E4E8
:103B4000CFCF12B932DB52E4CBCF32DB52E4CFCB52
:103B500012B932DB52D66883CFCFDB12B432CFCF6B
:103B6000CF12B9DB6884A300DB12B432CFCFCF12FF
:103B7000B9DBDB12BE32D16883DF0832DB52D6DB21
:103B800012BEDF08DB12BE32DB52D66884CFCBDF39
:103B90000812BE32DB52D6CBCF32DB52D6CFCF1299
:103BA000BE6883DB32D152D4CFCB12B9CFCF12BE95
:103BB00032CF52D3CBCFA000A100A2006884DB1289
:103BC000B932D152D4CFCF12BE32CF52D3CFCBDF06
:103BD0000812B732D152D46883CBCFDB12B732D6BA
:103BE00052E2CFCF32D652E2CBCF12B76884DF0891
:103BF000DB12B732CF52DBCFCB32CF52DBCFCF127B
:103C0000B76883DB32DBCFCB12B232D9CFCF12B75A
:103C1000DB32DB6884A300CFCF12B232D9CBCF1214
:103C2000B7DB32DBCF32DDCF12B96883CFCB32E0E6
:103C3000DF0812B932DDDBDB12B932DB6884CFCFAB
:103C400032D7CB32D6CF12B9DF0832D4DB12B5323D
:103C5000CF52DB6883DB32D1DF0812B5DB32D1DB38
:103C600012B7A00052DD6884DF08A100A200DB12B9
:103C7000B732CFDF08DB12B96883DB32C352CACF59
:103C8000CF12B932E0DBDF0812B932C352CA6884FE
:103C9000CBCFDB12B9DF08DB12B96883DBDF081298
:103CA000B432C552CACFCB12B9DF0832C352C8688A
:103CB00084A300CBCF12B432C552CACFCB12B9DF26
:103CC0000832C552CACBCF12BE6883DF0832C55254
:103CD000CADB12BEDBDF0812BE32C352C86884CB17
:103CE00032C352C8CFDB12BECFCF32CACFCB12BE47
:103CF00032D16883CFCF32D6CBCF12B932CACFCB35
:103D000012BE32D1CFCFA00032DB6884CBCF12B944
:103D100032D1A10052CAA200CFCF12BE32CACBCF3D
:103D200032DB52CACFCB12B76883DF0832D152D60A
:103D3000CBCF12B7DBDF0812B732D152D66884CFAF
:103D4000CBDF0812B732D152D6CBCF32D152D4DB2F
:103D500012B76883DF08DB12B2CFCF12B7DB6884FB
:103D6000A300DB12B232CF52D6CFCF12B7DBDF08BF
:103D700012B932CF52D66883CBCFDB12B932CF52D1
:103D8000D7CFCFDB12B932CF52D86884CFCB32D164
:103D900052D8CFCF12B9DBDF0812B56883DB32DB34
:103DA000CFCB12B532DCCFCF32DDCBCF12B7A000F4
:103DB00032E0A1006884CFCF32DBCB32DDCF12B747
:103DC00032E3CFCB32E2CFCF12B932E06883CBCF30
:103DD00032DBCF32DDCB12B932D1CFCF32DBCFCB1A
:103DE00012B932CF6884CFCF32D6A200CBCF12B96E
:103DF00032CFCFCB32D1CFCF12B96883DB32D4529E
:103E0000CFDF0812B4CBCF12B9DB32D452CF6884E3
:103E1000A300DF0812B4CBCF12B9DBDF0812BE68F3
:103E200083DBDF0812BE32D452D1CBCF32D352CF94
:103E3000CFCB12BE6884DF0832D452D1CBCF12BEB2
:103E4000DF0832D352CFCBCF12BE6883DB32E452CD
:103E5000E9CFCF12B932DB52E4CBCF12BE32E252FD
:103E6000E7CFCBA00032D8A100A20052E26884CFF5
:103E7000CF12B932DB52E4CFCB12BE32D652E0CFF2
:103E8000CF32D852DBCBCF12B732E252DD6883CFCC
:103E9000CB32E252DDDF0812B7DBDF0812B76884ED
:103EA000DB32E252DDDB12B7DF0832E052DDCB322B
:103EB000DF52DBCF12B752D96883CF32DA52D8CF74
:103EC00032D252D6CB32C952D4CF12B232C152D32F
:103ED000CF32B252D1CB12B752CFCFCF6884DB12E0
:103EE000B2CFCB12B7DF08DB12B9DF0832DD52D810
:103EF000CBCF12B932D852D4CFCB32DB52D6CFCFC0
:103F000012B932D652D1CBCF32D852D4CFCF12B988
:103F100032D452CFCBCF32D652D1CFCB12B532CF53
:103F200052CCCFCF32D152CFCBCF12B532CC52C838
:103F3000CFCB32CF52CACFCF12B7A00032CBA10025
:103F4000A200CFCB32CACFCF12B732C8CBCF32C349
:103F5000CFCB12B932C552D1DF0FDF85C0A000121E
:103F6000B9A10032D3A20052D4DF6712ADDF0F1225
:103F7000B932CF52D4DF0E52D3DF1E52D8DF2CA07D
:103F800000A100A20052D3DF0F12ADDF0F12BE322C
:103F9000D152D8DF4A52CCDF0E52D1DF0F52D8DFD8
:103FA0000F12C032D352D6DF3B32D6DF1EA000A1A3
:103FB00000A200DF1D12BE32D152D8DF7612C0320D
:103FC000D452DDDF1752DBDF1652D9DF0E52D8DFB5
:103FD0001EA000A100A20052D4DF1E12BE32C752A2
:103FE000DDDF7612CC52DCDF58A000A100A200DF9A
:103FF0001E12CCA00032C7A10052DCA200A300CF49
:1040000032C552DACB32C452D7CF32C252D4CF32B9
:10401000C052D0CB32BD52CCCF32BB52C5CFCB1267
:10402000B932D152D46883CFCF12B9CFCB12B932C3
:10403000D152D4CFCF12B932CF52D3CBCF12B9682D
:1040400084CFCB12B932D152D4CFCF12B9CBCF1249
:10405000B932CF52D3CFCF12B96883CBCF53445F9D
:104060004D555349434441540046494C452053441F
:104070005F4D555349432E444154204E4F542046E2
:104080004F554E44204F4E2053442043415244004C
:1040900011241FBECFEFD0E1DEBFCDBF11E0A0E005
:1040A000B1E0E0E2F4E602C005900D92A230B10763
:1040B000D9F727E0A2E0B1E001C01D92AB38B2070A
:1040C000E1F714BE0FB6F894A8958091600088615E
:1040D00080936000109260000FBE0E94DE25811167
:1040E00002C00E94BC25F894E1EAF4E080E88193E4
:1040F00026E0ED3AF207D9F781EA94E09093AE0614
:104100008093AD061092AF061092B2061092B806D8
:104110001092BE061092C406109276041092780493
:1041200082E18093770480EE80937E0484E1809323
:104130007D041092820410928104109286041092E1
:10414000850481E08093B1060E94243080E990E0EC
:10415000FC0125913491F901FF273083029620E07C
:104160008E3B9207A9F778940E9423300E94733106
:104170000C940E320C9400000BE90A95F1F70091B3
:10418000CE06E8E6F4E023E0029FE00DF11DC0E278
:10419000D1E0209186073CE3321B300F201751F00D
:1041A00000000000A191B1911C9111930C93039513
:1041B0000217C0F313E01A95F1F700C03A95D1F752
:1041C0002090740430907504009170041091710473
:1041D000680138018CE1C0E2D1E04E010024309149
:1041E0007304303009F0C8E609F0D4E009F0832FF9
:1041F00009F0610100EEA02E662778E00CD336E2CC
:104200003A95F1F700000E9434213FE03A95F1F72A
:1042100000000000AA94A9F06395C895683031F0B9
:1042200033E03A95F1F700000000E8CF662700245C
:104230003EE1C30FD01D8A9509F4E40109F463013E
:10424000DDCF36E03A95F1F7E6D211240E94003036
:10425000E091780442E0E160E427E0937804E2E052
:10426000E093360011240895DE01679F8601005017
:104270001040000D111D180108E614E0000D111D7D
:10428000280130E41EE12D91239FA101203008F484
:10429000A201040E151EF0012030F0F0059108B9BE
:1042A0002D91059108B9239F059108B92030000090
:1042B000059108B908F4A201059108B9040E151E6C
:1042C000059108B920301A95059108B9059131F189
:1042D000F00108B918F700C0019108B92D910191BA
:1042E000000008B9239F0191000008B9203000C0E8
:1042F000019108B908F0A1010191040E08B9151E39
:1043000000C0019108B9203000C0019108B90191A5
:104310001A9521F0F00108B908F6DECF08B9002798
:10432000C895000008B9089520E4E0917004F09168
:104330007104829FE00DF11DA8E6B4E0629FA00D1C
:10434000B11D15901D9215901D9215901D921590FE
:104350001D9215901D9215901D9215901D9215900D
:104360001D9215901D9215901D9215901D921590FD
:104370001D9215901D9215901D9215901D921590ED
:104380001D9215901D9215901D9215901D921590DD
:104390001D9215901D9215901D9215901D921590CD
:1043A0001D9215901D9215901D9215901D921590BD
:1043B0001D9215901D9215901D9215901D921590AD
:1043C0001D9215901D9215901D9215901D9215909D
:1043D0001D9215901D9215901D9215901D9215908D
:1043E0001D9215901D9215901D9215901D9215907D
:1043F0001D9215901D9215901D9215901D9215906D
:104400001D9215901D9215901D9215901D9215905C
:104410001D9215901D9215901D9215901D9215904C
:104420001D9215901D9215901D9215901D9215903C
:104430001D9215901D9215901D9215901D9215902C
:104440001D921124089520E4E8E6F4E0829FE00D37
:10445000F11DA8E6B4E0629FA00DB11D11901D9260
:1044600011901D9211901D9211901D9211901D920C
:1044700011901D9211901D9211901D9211901D92FC
:1044800011901D9211901D9211901D9211901D92EC
:1044900011901D9211901D9211901D9211901D92DC
:1044A00011901D9211901D9211901D9211901D92CC
:1044B00011901D9211901D9211901D9211901D92BC
:1044C00011901D9211901D9211901D9211901D92AC
:1044D00011901D9211901D9211901D9211901D929C
:1044E00011901D9211901D9211901D9211901D928C
:1044F00011901D9211901D9211901D9211901D927C
:1045000011901D9211901D9211901D9211901D926B
:1045100011901D9211901D9211901D9211901D925B
:1045200011901D9211901D9211901D9211901D924B
:1045300011901D9211901D9211901D9211901D923B
:1045400011901D9211901D9211901D9211901D922B
:1045500011901D9211901D9211901D921124089599
:104560000F931F93CF93DF9394E0899FE8E6F4E0E5
:10457000E00DF11D03818281E0E48E9FD00198E07F
:10458000099FC8E6D4E00024C10DD01DE881F9815F
:10459000EA0FFB1FA8E6B4E090E4699FA00DB11DEF
:1045A0001124DD27403051F4A20FB11D822FC22FFC
:1045B00000FF11C03796C0E1C21B0DC088E0821B0E
:1045C00000FD04C0C82FE80FF11D05C0C8E0C20FF0
:1045D000E20FF11D3197503051F498E0939FA00DF8
:1045E000B11D932F01FDE85C01FDFF4F0AC098E06B
:1045F000931B632F6A9501FF692F58E0569FE00DCA
:10460000F11D6FEF7FEF00FF61E000FF772701FDF5
:10461000609711243EEF58E0591B48E0481B249155
:1046200023132C931196E60FF71F4A95C1F7EC0F51
:10463000FD1FA80FB11D5A9581F7DF91CF911F91F2
:104640000F9108950F921F92EF93FF93EFB7EF939F
:10465000E0918400E251F1E0EF1700F0F395FA30B9
:10466000D8F30C943323E0917704EA95E093770430
:10467000F0917604F0FD57C0EC3098F0F3E0F09341
:104680008900FDE8F0938800E0FB289826F4E1E03B
:104690000E940525B9C0E5E1EA95F1F70000289AE6
:1046A000B3C0E63038F100C000C02898E0FBE4E079
:1046B00016F40E940525E4E0E0933600E6E0E0937E
:1046C0006F00A2C0EF93EFB7EF93E0918400ED5538
:1046D000E13000F0E23000F0E33000F0E43000F0D0
:1046E000E53000F0289AE2E0E0936F00EF91EFBF31
:1046F000EF91189500C0E0FB289826F4E1E00E94B5
:10470000052505C0E5E1EA95F1F70000289AE0915A
:104710007704E03009F078C0EDEFE0937704E1E052
:10472000E093760471C0E7E0E0938900EBE1E09369
:10473000880000C02898E2E000C00E940525FDEF37
:1047400000907D04F019E0917704EF17E0F4FDEF9D
:1047500000907D04F01900907E04F019EF1798F096
:10476000EDE1FF2700800F92EA95E1F70FE10A954E
:10477000F1F7000000000E94BC20E1E0FF270F904D
:104780000192EE31E0F3E0917704E03009F03CC0B3
:104790002F933F934F935F936F937F938F939F9349
:1047A000AF93BF9378941124EE27E0937604E2E16F
:1047B000E093770480918704909188040196809318
:1047C000870490938804E0917904F0917A04E115CC
:1047D000F10509F009950E94AC250E9425300E9440
:1047E00016241124E0917B04F0917C04E115F1057D
:1047F00009F00995BF91AF919F918F917F916F9132
:104800005F914F913F912F91EF91EFBFFF91EF910A
:104810001F900F9018952898E2E000C00E9405258F
:10482000E0917704EA95E09377040895E091B1066A
:10483000E0FD0E94BC260090AF06002019F4A1EA1A
:10484000B4E002C0A7EAB5E021E002260092AF067C
:1048500022E02093B006E091B106E0FF08952F9288
:104860003F924F925F926F927F928F929F92AF9200
:10487000BF92CF92DF92EF92FF920F931F93CF934D
:10488000DF935091C406E091C806F091C90680916B
:10489000C7064090C5065090C60666245F0100908A
:1048A000CA061090CB06A018B1088090CC06909054
:1048B000CD061D01C3E8840DE51DF61DE815F905BB
:1048C00008F0F501449145031D92840DE51DF61D88
:1048D000E815F90508F0F501449145031D92CA95C4
:1048E00051F7D1015093C406E093C806F093C9066E
:1048F0008093C7062090B3063090B4064090B60669
:104900005090B7066090B5061091B2067090B90647
:104910008090BA069090BB06A090BC06B090BD06F1
:104920002091B806C090BF06D090C006E090C206A5
:10493000F090C3060091C1063091BE069FEFCC9166
:10494000DD27C7FDDFEF620C431CF20144914103F8
:104950000008C10DD01D970CA81CF501449142031D
:104960000008C10DD01D0C0DED1CF701449143034F
:104970000008C10DD01D0024C038D0050CF0CFE7D1
:104980000A94C038D0050CF4C0E8C058CD939A956D
:1049900009F0D5CF4091B0064A954093B00697E014
:1049A00009F0CDCF6092B5064092B6069092BB0654
:1049B000A092BC060093C106E092C206DF91CF919F
:1049C0001F910F91FF90EF90DF90CF90BF90AF902D
:1049D0009F908F907F906F905F904F903F902F901F
:1049E0000895E091AD06F091AE06019100000093AC
:1049F000B30006E0ED3AF00701EA14E008F0F80130
:104A0000E093AD06F093AE0608950F931F932F9396
:104A1000EF93E091AD06F091AE0601910093B300E3
:104A200006E0ED3AF00701EA14E008F0F801E0933F
:104A3000AD06F093AE06E8E0EA95F1F7EF912F911D
:104A40001F910F91E0FD289AE0FF01C00895F4E165
:104A5000FA95F1F700C0E1FD289AE1FF00C0089542
:104A6000E8E4F3E0A0E2B1E060E06D933197E9F7AC
:104A70001124089550917204450F00C0992777279B
:104A80002EE1629F080E191EA0E2B1E0A00DB11D3B
:104A900040504C931124089580937204089580939C
:104AA0007004909371040895809178048170089542
:104AB000F999FECF92BD81BD60BDF894FA9AF99A3A
:104AC00078940895F999FECF92BD81BDF894F89A33
:104AD00080B57894089598E088E10FB6F894A89589
:104AE000809360000FBE90936000FFCF129AC8952C
:104AF000C895C895C895129840E180E090E020E004
:104B000030E03695279596958795C895C895C895B0
:104B1000C8951398009B3068019B9068139AC895BC
:104B2000C895C895C895415061F73093800420938B
:104B30007F04909384048093830480917F049091F8
:104B400080040F9731F080918304909184040F9733
:104B500011F40E946B2508951092D606009903C0A7
:104B600081E08093D606019905C08091D6068260C7
:104B70008093D6060C947625CF93DF93C0E0D0E0E7
:104B8000FE01E059FF4F6491CE010E945825219605
:104B9000C032D105A9F7C0E2D0E06FEFCE010E948C
:104BA00058256FEFCE0101960E945825A096C11599
:104BB00088E0D80791F7DF91CF910895CF9380E0F7
:104BC00090E00E946225C82F81E090E00E9462255B
:104BD000282F30E0322F22272C0F311D81E02A357B
:104BE000354509F080E0CF910895FC01678708956D
:104BF0000895FC0182810C94B329FC019181690F15
:104C0000618382810C949F29FC019181961B692FFD
:104C1000918382810C949F29FC0190819F759083E0
:104C20000895FC019081906490830895FC0166874B
:104C300008951F93CF93DF93EC01162F8A810E9472
:104C40009F2919838881877F8883DF91CF911F9166
:104C50000895FC0162870895FC0163870895CF934E
:104C6000DF93EC01462F298130E0F901EE0FFF1FA1
:104C7000E85FFB4A65917491F901E40FF11D47FD6E
:104C8000FA95EE0FFF1FE85FFB4A85919491861B12
:104C9000970B688570E00E94FA316115710511F477
:104CA00061E070E0EA8186E0E89FF0011124EE54B3
:104CB000F94F81819281860F971F928381837E8332
:104CC0006D838881886088838981480F4F83DF9155
:104CD000CF910895FC0160870895FC0164830895D5
:104CE000DC0114968C911497882319F155962D9117
:104CF0003C915697662379F0062E000C770B6F5F78
:104D00007F4FAB01440F551F640F751F261B370BD8
:104D100009C0EF3F39F023503109F9013297E4918E
:104D2000ED30B9F756963C932E93559781501496D3
:104D30008C930895E9EDF6E09FEF80818F77808373
:104D40009383779687E0E533F807B9F710923F072A
:104D500010923E071092D8061092D7061092810743
:104D60001092800710923C0710923D07109238076E
:104D700081E08093A00408956F927F928F929F921A
:104D8000AF92BF92CF92DF92EF92FF920F931F9359
:104D9000CF93DF9309ED16E0E2EBEE2EE6E0FE2E78
:104DA000D701E80120E030E0F901E752F94F8785AB
:104DB000882389F04685082E000C990B840F911DDD
:104DC0008F3F910519F014F08FEF90E097FF02C02C
:104DD00080E090E08687688163FF26C04D815E8118
:104DE00011968D919C911297840F951F12969C930A
:104DF0008E931197E781F0E0EE0FFF1FE85FFB4A0B
:104E0000C590D4901416150624F48C159D0530F425
:104E10000BC0452B49F0C816D90630F01296DC922B
:104E2000CE921197677F6883295E3F4F67961696EB
:104E30002C35310509F0B8CF8091A0048823C1F149
:104E400080913C07882319F0815080933C07D7E17B
:104E500024C00E94C528C82F8F3FD1F1807E803AA0
:104E6000D0F5DC2ED294D69497E0D9220E94C528A2
:104E7000482F407850E05595479555954795CF7107
:104E8000C42B4C2F440FDD9DF0011124E752F94F44
:104E9000282F60898D2D0E945F2980913C07811108
:104EA00007C00E94B0288230A0F681E080933C07C2
:104EB000C2EEAC2EC6E0BC2EDCEECD2ED6E0DD2E52
:104EC000CDEED6E088248A94912C5EC0823081F5A4
:104ED0001092A004EDCF803A51F40E94C528C7700B
:104EE000DC9FF0011124E752F94F808BD6CF803C34
:104EF00069F58C2F837089F480913E0790913F076C
:104F000090933A07809339078091800790918107A9
:104F100090933F0780933E07C0CF8130B9F68091D0
:104F20003E0790913F079093810780938007B5CF0C
:104F3000CC71C695C695CF5FC0933C07C73009F0CA
:104F4000ACCF0E94C52880933C07A7CF8C2F8770D9
:104F5000D82EC8710E94C5282D2D30E0880FD29F11
:104F6000F001D39FF00D1124E752F94FC11102C097
:104F7000848793CFC83011F483838FCFC03111F46D
:104F800082878BCF838789CFD8018C9185FF52C0D0
:104F900055962D913C915697232B09F44BC086FDD5
:104FA00049C03E01B2E06B1A7108D6019C91F30131
:104FB000808198133CC0D8015596ED91FC9156978D
:104FC000BF016F5F7F4F56967C936E935597849188
:104FD0008F3F39F4F80180818F778083168A158A94
:104FE00026C09F012E5F3F4FD80156963C932E93CB
:104FF0005597FB016491E82FF0E0EE0FFF1FE2549C
:10500000FF4F25913491C801F9010995D8015596B2
:10501000ED91FC915697CF01019656969C938E93F5
:105020005597E491D301EC93F6011082BECF9F5FB8
:10503000D6019C93F801908195FF5EC088818F3FD7
:1050400011F08F5F888397FD04C0FE01389790812F
:1050500001C09FEFFE0137978081882309F441C08A
:1050600031965081552309F43CC09923D1F14091E8
:105070003B074423B1F1899FC00111249395892FE7
:105080009927589F9001599F300D11243395232F54
:105090003327429FC001439F900D11249395892F80
:1050A0009927349720812223F1F0D501EC91F0E08B
:1050B000E050FA4AE491E0582E9FF0011124F39554
:1050C000EF2FFF27A4014E1B5F0B489F9001499FC4
:1050D000300D589F300D1124C9019395892F9927C0
:1050E00002C080E090E0F5013081FE013997208117
:1050F000230FD5012C9302C080E090E0F70180835C
:10510000095E1F4FF6E0EF0EF11C87E1A80EB11CFF
:10511000A7E1CA0ED11C6796B7E005331B0709F05B
:1051200033CFDF91CF911F910F91FF90EF90DF90E0
:10513000CF90BF90AF909F908F907F906F90089589
:105140004091830750E02091370730E02F5F3F4FB9
:105150002F73332781E04217530709F080E0089549
:105160008091370790918307981708F0805C891B1E
:10517000089590913707E92FF0E0E05CF84F8083C5
:105180009F5F9F7390933707089590918307E92F4E
:10519000F0E0E05CF84F80819F5F9F7390938307FE
:1051A00020913E0730913F072F5F3F4F30933F07DD
:1051B00020933E070895AF92BF92CF92DF92EF9275
:1051C000FF920F931F93CF93DF931F92CDB7DEB75C
:1051D0005C01E62EFC018081F82FF078FF2EF501AE
:1051E00017869FEF96874587148A877B8083128670
:1051F0001186218314828281F9E06F9F800111243E
:10520000833051F51092C70680913507909136078B
:10521000800F911FFC013196A591B491B093C906FE
:10522000A093C806AC01495F5F4FFA01C590D490C6
:105230000596FC0165917491C61AD70AD092CB06E7
:10524000C092CA06FA0185919491A80FB91FB09334
:10525000CD06A093CC0605C060E029830E94B32947
:105260002981622FF50182810E949F29F501FF208B
:1052700011F0E18A01C0E08AE0913507F09136072C
:10528000E00FF11F339685919491F501009719F481
:10529000168A158A08C0138AFC012491F501228B15
:1052A0000196968B858B0F90DF91CF911F910F9177
:1052B000FF90EF90DF90CF90BF90AF900895CF9385
:1052C000DF93A82FB0E097E1899FF0011124E75206
:1052D000F94F808185FF02C087FD2EC0211118C0C3
:1052E00097E19A9FF0019B9FF00D1124E752F94F2F
:1052F0009785911102C086FF158697E19A9FF0016C
:105300009B9FF00D1124E752F94F8F7B808314C0CF
:10531000822F242F97E19A9FE0019B9FD00D1124AB
:10532000C752D94F18821E8A1D8A482FCE010E946B
:10533000DB28888180628883DF91CF910895992747
:105340007727E8E0F4E5660F771FE60FF71FA591D2
:10535000B491E2EBF6E026E0289FE00DF11DA18379
:10536000B2831124089599277727E2EBF6E026E02F
:10537000289FE00DF11D76E5760F758311240895C1
:10538000000000000000000000000000000000001D
:10539000000000000000000000000000000000000D
:1053A00000000000000000000000000000000000FD
:1053B00000000000000000000000000000000000ED
:1053C00000000000000000000000000000000000DD
:1053D00000000000000000000000000000000000CD
:1053E00000000000000000000000000000000000BD
:1053F00000000000000000000000000000000000AD
:1054000080E08093B1060895220024002600280041
:105410002B002D0030003300360039003D004000E5
:10542000440048004C00510056005B0060006600DC
:105430006C00730079008100880090009900A20040
:10544000AC00B600C100CC00D800E500F3000101BB
:10545000100121013201440157016C0181019801C1
:10546000B001CA01E5010202210241026402880280
:10547000AE02D7020303300361039403CB03050498
:1054800042048304C70410055D05AF0505066106E7
:10549000C206290796070908830805098E09200A0C
:1054A000BA0A5D0B0A0CC10C840D510E2B0F1210A1
:1054B00007110A121D1340147415BA161418831913
:1054C000071BA31C571E24200E22142439267F28D4
:1054D000E82A752D293006330F364539AD3C494051
:1054E0001B442848734CFE50CF55EA5A51600C6655
:1054F0001D6C8B725A79928037885090E598FDA187
:105500009FABD3B5A3C00000000000000000000066
:10551000000000000000000000000000000000008B
:10552000000000000000000000000000000000007B
:10553000000000000000000000000000000000006B
:10554000000000000000000000000000000000005B
:10555000000000000000000000000000000000004B
:10556000000000000000000000000000000000003B
:10557000000000000000000000000000000000002B
:10558000000000000000000000000000000000001B
:10559000000000000000000000000000000000000B
:1055A00000000000000000000000000000000000FB
:1055B00000000000000000000000000000000000EB
:1055C00000000000000000000000000000000000DB
:1055D00000000000000000000000000000000000CB
:1055E00000000000000000000000000000000000BB
:1055F00000000000000000000000000000000000AB
:10560000000306090C101316191C1F2225282B2E27
:10561000313336393C3F414447494C4E515355583C
:105620005A5C5E60626466686A6B6D6F70717374F9
:10563000757678797A7A7B7C7D7D7E7E7E7F7F7FB2
:105640007F7F7F7F7E7E7E7D7D7C7B7A7A79787698
:1056500075747371706F6D6B6A68666462605E5CAE
:105660005A585553514E4C494744413F3C393633C3
:10567000312E2B2825221F1C191613100C09060386
:1056800000FDFAF7F4F0EDEAE7E4E1DEDBD8D5D28D
:10569000CFCDCAC7C4C1BFBCB9B7B4B2AFADABA858
:1056A000A6A4A2A09E9C9A9896959391908F8D8C7B
:1056B0008B8A8887868685848383828282818181A2
:1056C0008181818182828283838485868687888A9C
:1056D0008B8C8D8F9091939596989A9C9EA0A2A466
:1056E000A6A8ABADAFB2B4B7B9BCBFC1C4C7CACD31
:1056F000CFD2D5D8DBDEE1E4E7EAEDF0F4F7FAFD4E
:10570000808182838485868788898A8B8C8D8E8F21
:10571000909192939495969798999A9B9C9D9E9F11
:10572000A0A1A2A3A4A5A6A7A8A9AAABACADAEAF01
:10573000B0B1B2B3B4B5B6B7B8B9BABBBCBDBEBFF1
:10574000C0C1C2C3C4C5C6C7C8C9CACBCCCDCECFE1
:10575000D0D1D2D3D4D5D6D7D8D9DADBDCDDDEDFD1
:10576000E0E1E2E3E4E5E6E7E8E9EAEBECEDEEEFC1
:10577000F0F1F2F3F4F5F6F7F8F9FAFBFCFDFEFFB1
:10578000000102030405060708090A0B0C0D0E0FA1
:10579000101112131415161718191A1B1C1D1E1F91
:1057A000202122232425262728292A2B2C2D2E2F81
:1057B000303132333435363738393A3B3C3D3E3F71
:1057C000404142434445464748494A4B4C4D4E4F61
:1057D000505152535455565758595A5B5C5D5E5F51
:1057E000606162636465666768696A6B6C6D6E6F41
:1057F000707172737475767778797A7B7C7D7E7F31
:1058000000020406080A0C0E10121416181A1C1EA8
:1058100020222426282A2C2E30323436383A3C3E98
:1058200040424446484A4C4E50525456585A5C5E88
:1058300060626466686A6C6E70727476787A7C7E78
:105840007F7D7B79777573716F6D6B696765636158
:105850005F5D5B59575553514F4D4B494745434148
:105860003F3D3B39373533312F2D2B292725232138
:105870001F1D1B19171513110F0D0B090705030128
:10588000FFFDFBF9F7F5F3F1EFEDEBE9E7E5E3E118
:10589000DFDDDBD9D7D5D3D1CFCDCBC9C7C5C3C108
:1058A000BFBDBBB9B7B5B3B1AFADABA9A7A5A3A1F8
:1058B0009F9D9B99979593918F8D8B8987858381E8
:1058C00080828486888A8C8E90929496989A9C9EE8
:1058D000A0A2A4A6A8AAACAEB0B2B4B6B8BABCBED8
:1058E000C0C2C4C6C8CACCCED0D2D4D6D8DADCDEC8
:1058F000E0E2E4E6E8EAECEEF0F2F4F6F8FAFCFEB8
:105900007F7F7F7F7F7F7F7F7F7F7F7F7F7F7F7FA7
:105910007F7F7F7F7F7F7F7F7F7F7F7F7F7F7F7F97
:105920007F7F7F7F7F7F7F7F7F7F7F7F7F7F7F7F87
:105930007F7F7F7F7F7F7F7F7F7F7F7F7F7F7F7F77
:105C00000309131E28313A40464C5054585B5E61DC
:105C1000636567696B6C6E6F70717273747576779C
:105C2000777879797A7A7B7B7C7C7C7D7D7D7E7EC2
:105C30007E7E7F7F7F7F7F7F7F7F7F7F7F7F7F7F76
:105C40007F7F7F7F7F7F7F7F7F7F7F7F7F7E7E7E67
:105C50007E7D7D7D7C7C7C7B7B7A7A797978777799
:105C6000767574737271706F6E6C6B696765636162
:105C70005E5B5854504C46403A31281E13090300CD
:105C8000C6CCD5DBDFE3E5E7E9EAEBECEDEEEFEFE1
:105C9000F0F0F0F1F1F1F1F2F2F2F2F2F2F2F2F3ED
:105CA000F3F3F3F3F3F3F3F3F3F3F3F3F3F3F3F3C4
:105CB000F3F3F3F3F3F3F3F3F3F3F3F3F3F3F3F3B4
:105CC000F3F3F3F3F3F3F3F3F3F3F3F3F3F3F3F3A4
:105CD000F3F3F3F3F3F3F3F3F3F3F3F3F3F3F3F394
:105CE000F2F2F2F2F2F2F2F2F1F1F1F1F0F0F0EFA1
:105CF000EFEEEDECEBEAE9E7E5E3DFDBD5CCC60060
:105D000000283D42302D2C2B2C2D2E2F30323335B8
:105D100037393B3D3F414345484A4C4E5053555718
:105D2000595B5D5F61636567696B6C6E70717374FD
:105D3000757778797A7B7C7D7D7E7E7F7F7F7F7FA4
:105D40007F7F7F7F7F7F7E7E7D7D7C7B7A7978778A
:105D500075747371706E6C6B69676563615F5D5BB1
:105D600059575553504E4C4A484543413F3D3B39A6
:105D700037353332302F2E2D2C2B2C2D30423D2811
:105D800000E9E5FED4D7D7D7D6D4D2D0CECCCAC876
:105D9000C6C3C1BFBDBAB8B6B4B1AFADABA9A7A5B4
