:100000000C948E0B0C94000C0C94000C0C94000CB3
:100010000C94000C0C94000C0C94000C0C94000C30
:100020000C94000C0C94000C0C94000C0C94000C20
:100030000C94000C0C94680E0C94A80E0C94000CFC
:100040000C94000C0C94000C0C94000C0C94000C00
:100050000C94000C0C94000C0C94000C0C94000CF0
:100060000C94000C0C94000C0C94000C0C94000CE0
:100070005A5501200101003808000000000000006E
:100080000000000000000000000000000000000070
:100090008100450027FF24FF2A902B1C210C22FB06
:1000A000850084008903888D81096F0244424700DE
:1000B0004501B083B300B10125118A4F8B033B1179
:1000C0003E113F1143114A11521157115C115F113A
:1000D0006F1172117511B011B311B61100408891F2
:1000E000D2E4ADB5B6BEBFFF0000000000000000C6
:1000F0000000000000000000000000000000000000
:1001000000000000000000000000000000000000EF
:10011000000000000000000000007F000000007FE1
:100120007F00000000007F00000000007F00000052
:1001300000007F00000000007F000000007F7F7F44
:100140000000000000000000007F7F7F00007F00B3
:1001500000007F00000000007F0000007F7F0000A3
:10016000007F000000007F00000000007F7F7F7F95
:100170007F00000000000000007F7F7F00007F0004
:1001800000007F00000000007F00007F7F7F0000F4
:10019000000000007F007F0000007F00007F7F7F65
:1001A00000000000000000000000007F00000000D0
:1001B0007F7F0000007F007F00007F00007F000045
:1001C0007F7F7F7F7F000000007F00000000007FB6
:1001D00000000000000000007F7F7F7F7F007F0025
:1001E000000000007F00000000007F7F7F7F000094
:1001F000000000007F007F0000007F00007F7F7F05
:10020000000000000000000000007F7F0000007F71
:10021000000000007F00000000007F7F7F7F000063
:100220007F0000007F007F0000007F00007F7F7F55
:1002300000000000000000007F7F7F7F7F00000043
:1002400000007F000000007F000000007F00000031
:10025000007F00000000007F00000000007F000021
:100260000000000000000000007F7F7F00007F0092
:1002700000007F007F0000007F00007F7F7F000084
:100280007F0000007F007F0000007F00007F7F7FF5
:100290000000000000000000007F7F7F00007F0062
:1002A00000007F007F0000007F00007F7F7F7F00D5
:1002B000000000007F000000007F0000007F7F0042
:1002C0000000000000000000007F7F7F00007F0032
:1002D00000007F007F0000007F007F0000007F00A3
:1002E0007F7F7F7F7F007F0000007F007F00000016
:1002F0007F000000000000007F7F7F7F00007F0004
:1003000000007F007F0000007F007F7F7F7F000074
:100310007F0000007F007F0000007F007F7F7F7FE5
:100320000000000000000000007F7F7F00007F00D1
:1003300000007F007F00000000007F000000000040
:100340007F00000000007F0000007F00007F7F7FB3
:1003500000000000000000007F7F7F7F00007F0022
:1003600000007F007F0000007F007F0000007F0012
:100370007F0000007F007F0000007F007F7F7F7F85
:1003800000000000000000007F7F7F7F7F007F0073
:10039000000000007F00000000007F7F7F7F0000E2
:1003A0007F00000000007F00000000007F7F7F7F53
:1003B0007F000000000000007F7F7F7F7F007F00C4
:1003C000000000007F00000000007F7F7F7F0000B2
:1003D0007F00000000007F00000000007F000000A0
:1003E000000000000000000000F8F8F80000F8002D
:1003F0000000F800F80000F8F800F800F800F80035
:10040000F8F80000F800F8000000F80000F8F8F82C
:1004100000000000000000000000F800000000F8EC
:10042000F80000000000F80000000000F8000000E4
:100430000000F80000000000F800000000F8F8F8E4
:10044000000000000000000000F8F8F80000F800CC
:100450000000F80000000000F8000000F8F80000BC
:1004600000F800000000F80000000000F8F8F8F8BC
:10047000F80000000000000000F8F8F80000F800A4
:100480000000F80000000000F80000F8F8F8000094
:1004900000000000F800F8000000F80000F8F8F88C
:1004A0000000000000000000000000F80000000054
:1004B000F8F8000000F800F80000F80000F800006C
:1004C000F8F8F8F8F800000000F80000000000F864
:1004D0000000000000000000F8F8F8F8F800F8004C
:1004E00000000000F80000000000F8F8F8F8000034
:1004F00000000000F800F8000000F80000F8F8F82C
:1005000000000000000000000000F8F8000000F803
:1005100000000000F80000000000F8F8F8F8000003
:10052000F8000000F800F8000000F80000F8F8F803
:100530000000000000000000F8F8F8F8F8000000E3
:100540000000F800000000F800000000F8000000C3
:1005500000F80000000000F80000000000F80000B3
:10056000000000000000000000F8F8F80000F800AB
:100570000000F800F8000000F80000F8F8F80000AB
:10058000F8000000F800F8000000F80000F8F8F8A3
:10059000000000000000000000F8F8F80000F8007B
:1005A0000000F800F8000000F80000F8F8F8F80083
:1005B00000000000F800000000F8000000F8F8005B
:1005C000000000000000000000F8F8F80000F8004B
:1005D0000000F800F8000000F800F8000000F80043
:1005E000F8F8F8F8F800F8000000F800F80000004B
:1005F000F800000000000000F8F8F8F80000F8002B
:100600000000F800F8000000F800F8F8F8F8000022
:10061000F8000000F800F8000000F800F8F8F8F81A
:10062000000000000000000000F8F8F80000F800EA
:100630000000F800F80000000000F80000000000D2
:10064000F80000000000F8000000F80000F8F8F8DA
:100650000000000000000000F8F8F8F80000F800C2
:100660000000F800F8000000F800F8000000F800B2
:10067000F8000000F800F8000000F800F8F8F8F8BA
:100680000000000000000000F8F8F8F8F800F8009A
:1006900000000000F80000000000F8F8F8F8000082
:1006A000F80000000000F80000000000F8F8F8F87A
:1006B000F800000000000000F8F8F8F8F800F80072
:1006C00000000000F80000000000F8F8F8F8000052
:1006D000F80000000000F80000000000F800000032
:1006E000000000000000000000000000000000000A
:1006F00000000000000000000000000000000000FA
:1007000000000000000000000000000000000000E9
:1007100000000000000000000000000000000000D9
:1007200000000000000000000000FFFFFF000000CC
:100730000000FFFFFF0000000000FFFFFF000000BF
:100740000000FFFF000000000000FFFF00000000AD
:1007500000000000000000000000FFFF000000009B
:1007600000000000000000000000FF00FF0000008B
:100770000000FF00FF0000000000FF00FF0000007D
:100780000000000000000000000000000000000069
:100790000000000000000000000000000000000059
:1007A000000000000000000000FF000000FF00004B
:1007B000FFFFFFFFFFFFFF0000FF000000FF000042
:1007C00000FF000000FF000000FF000000FF00002D
:1007D000FFFFFFFFFFFFFF0000FF000000FF000022
:1007E0000000000000000000000000FF000000000A
:1007F00000FFFFFFFFFFFF00FF0000FF0000000001
:1008000000FFFFFFFFFF0000000000FF0000FF00EF
:10081000FFFFFFFFFFFF0000000000FF00000000DF
:100820000000000000000000FFFF000000000000CA
:10083000FFFF0000FF000000000000FF00000000BC
:100840000000FF000000000000FF000000000000AA
:10085000FF0000FFFF000000000000FFFF0000009D
:1008600000000000000000000000FFFF000000008A
:1008700000FF0000FF00000000FFFF00FF0000007D
:1008800000FFFFFF00000000FF0000FFFF00FF006F
:10089000FF000000FFFF000000FFFFFFFF00FF0060
:1008A000000000000000000000FFFF00000000004A
:1008B00000FFFF00000000000000FF00000000003B
:1008C00000FF000000000000000000000000000029
:1008D0000000000000000000000000000000000018
:1008E000000000000000000000000000FFFF00000A
:1008F000000000FF000000000000FF0000000000FA
:100900000000FF00000000000000FF0000000000E9
:10091000000000FF0000000000000000FFFF0000DA
:1009200000000000000000000000FFFF00000000C9
:1009300000000000FF0000000000000000FF0000B9
:100940000000000000FF00000000000000FF0000A9
:1009500000000000FF0000000000FFFF000000009A
:100960000000000000000000000000000000000087
:10097000000000FF0000000000FF00FF00FF00007B
:100980000000FFFFFF00000000FF00FF00FF00006D
:10099000000000FF00000000000000000000000058
:1009A0000000000000000000000000000000000047
:1009B000000000FF00000000000000FF0000000039
:1009C00000FFFFFFFFFF0000000000FF000000002D
:1009D000000000FF00000000000000000000000018
:1009E0000000000000000000000000000000000007
:1009F00000000000000000000000000000000000F7
:100A000000000000000000000000FFFF00000000E8
:100A10000000FFFF0000000000FFFF0000000000DA
:100A200000000000000000000000000000000000C6
:100A300000000000000000000000000000000000B6
:100A400000FFFFFFFFFF00000000000000000000AB
:100A50000000000000000000000000000000000096
:100A60000000000000000000000000000000000086
:100A70000000000000000000000000000000000076
:100A80000000000000000000000000000000000066
:100A90000000FFFF000000000000FFFF000000005A
:100AA0000000000000000000000000000000FF0047
:100AB0000000000000FF000000000000FF00000038
:100AC000000000FF000000000000FF000000000028
:100AD00000FF000000000000FF0000000000000018
:100AE00000000000000000000000FFFFFF00000009
:100AF00000FF0000FFFF0000FFFF000000FFFF00FD
:100B0000FFFF000000FFFF00FFFF000000FFFF00ED
:100B100000FFFF0000FF00000000FFFFFF000000DB
:100B20000000000000000000000000FFFF000000C7
:100B30000000FFFFFF000000000000FFFF000000BA
:100B4000000000FFFF000000000000FFFF000000A9
:100B5000000000FFFF00000000FFFFFFFFFFFF009D
:100B6000000000000000000000FFFFFFFFFF00008A
:100B7000FFFF000000FFFF0000000000FFFFFF007C
:100B80000000FFFFFFFF000000FFFFFFFF0000006D
:100B9000FFFFFF0000000000FFFFFFFFFFFFFF005F
:100BA000000000000000000000FFFFFFFFFFFF004B
:100BB00000000000FFFF0000000000FFFF00000039
:100BC0000000FFFFFFFF00000000000000FFFF002B
:100BD000FFFF000000FFFF0000FFFFFFFFFF00001E
:100BE0000000000000000000000000FFFFFF000008
:100BF0000000FFFFFFFF000000FFFF00FFFF0000FD
:100C0000FFFF0000FFFF0000FFFFFFFFFFFFFF00EF
:100C100000000000FFFF000000000000FFFF0000D8
:100C20000000000000000000FFFFFFFFFFFF0000CA
:100C3000FFFF000000000000FFFFFFFFFFFF0000BC
:100C40000000000000FFFF000000000000FFFF00A8
:100C5000FFFF000000FFFF0000FFFFFFFFFF00009D
:100C600000000000000000000000FFFFFFFF000088
:100C700000FFFF0000000000FFFF00000000000078
:100C8000FFFFFFFFFFFF0000FFFF000000FFFF006E
:100C9000FFFF000000FFFF0000FFFFFFFFFF00005D
:100CA0000000000000000000FFFFFFFFFFFFFF004B
:100CB000FFFF000000FFFF0000000000FFFF00003A
:100CC000000000FFFF0000000000FFFF0000000028
:100CD0000000FFFF000000000000FFFF0000000018
:100CE000000000000000000000FFFFFFFF00000008
:100CF000FFFF000000FF0000FFFFFF0000FF0000FB
:100D000000FFFFFFFF000000FF0000FFFFFFFF00EC
:100D1000FF00000000FFFF0000FFFFFFFFFF0000DB
:100D2000000000000000000000FFFFFFFFFF0000C8
:100D3000FFFF000000FFFF00FFFF000000FFFF00BB
:100D400000FFFFFFFFFFFF000000000000FFFF00AB
:100D500000000000FFFF000000FFFFFFFF00000099
:100D60000000000000000000000000000000000083
:100D70000000FFFF000000000000FFFF0000000077
:100D800000000000000000000000FFFF0000000065
:100D90000000FFFF00000000000000000000000055
:100DA0000000000000000000000000000000000043
:100DB0000000FFFF000000000000FFFF0000000037
:100DC00000000000000000000000FFFF0000000025
:100DD0000000FFFF0000000000FFFF000000000017
:100DE000000000000000000000000000FF00000004
:100DF000000000FF000000000000FF0000000000F5
:100E000000FF0000000000000000FF0000000000E4
:100E1000000000FF0000000000000000FF000000D4
:100E200000000000000000000000000000000000C2
:100E3000000000000000000000FFFFFFFFFF0000B7
:100E4000000000000000000000FFFFFFFFFF0000A7
:100E50000000000000000000000000000000000092
:100E600000000000000000000000FF000000000083
:100E7000000000FF0000000000000000FF00000074
:100E80000000000000FF000000000000FF00000064
:100E9000000000FF000000000000FF000000000054
:100EA000000000000000000000FFFFFFFFFF000047
:100EB000FFFFFFFFFFFFFF00FFFF000000FFFF003D
:100EC00000000000FFFF00000000FFFFFF00000027
:100ED00000000000000000000000FFFFFF00000015
:100EE00000000000000000000000FFFFFF00000005
:100EF00000FF000000FF0000FF0000FF00FF0000F7
:100F0000FF00FF00FFFF0000FF0000FFFF000000E8
:100F100000FF0000000000000000FFFFFFFF0000D6
:100F200000000000000000000000FFFFFF000000C4
:100F300000FFFF00FFFF0000FFFF000000FFFF00B9
:100F4000FFFF000000FFFF00FFFFFFFFFFFFFF00AC
:100F5000FFFF000000FFFF00FFFF000000FFFF0099
:100F60000000000000000000FFFFFFFFFFFF000087
:100F7000FFFF000000FFFF00FFFF000000FFFF0079
:100F8000FFFFFFFFFFFF0000FFFF000000FFFF006B
:100F9000FFFF000000FFFF00FFFFFFFFFFFF00005B
:100FA00000000000000000000000FFFFFFFF000045
:100FB00000FFFF0000FFFF00FFFF00000000000037
:100FC000FFFF000000000000FFFF00000000000025
:100FD00000FFFF0000FFFF000000FFFFFFFF000019
:100FE0000000000000000000FFFFFFFFFF00000006
:100FF000FFFF0000FFFF0000FFFF000000FFFF00F9
:10100000FFFF000000FFFF00FFFF000000FFFF00E8
:10101000FFFF0000FFFF0000FFFFFFFFFF000000D9
:101020000000000000000000FFFFFFFFFFFFFF00C7
:10103000FFFF000000000000FFFF000000000000B4
:10104000FFFFFFFFFFFF0000FFFF000000000000A8
:10105000FFFF000000000000FFFFFFFFFFFFFF0099
:101060000000000000000000FFFFFFFFFFFFFF0087
:10107000FFFF000000000000FFFF00000000000074
:10108000FFFFFFFFFFFF0000FFFF00000000000068
:10109000FFFF000000000000FFFF00000000000054
:1010A00000000000000000000000FFFFFFFFFF0045
:1010B00000FFFF0000000000FFFF00000000000034
:1010C000FFFF0000FFFFFF00FFFF000000FFFF0029
:1010D00000FFFF0000FFFF000000FFFFFFFFFF0019
:1010E0000000000000000000FFFF000000FFFF0004
:1010F000FFFF000000FFFF00FFFF000000FFFF00F8
:10110000FFFFFFFFFFFFFF00FFFF000000FFFF00EA
:10111000FFFF000000FFFF00FFFF000000FFFF00D7
:10112000000000000000000000FFFFFFFFFFFF00C5
:10113000000000FFFF000000000000FFFF000000B3
:10114000000000FFFF000000000000FFFF000000A3
:10115000000000FFFF00000000FFFFFFFFFFFF0097
:101160000000000000000000000000FFFFFFFF0083
:1011700000000000FFFF000000000000FFFF000073
:1011800000000000FFFF000000000000FFFF000063
:10119000FF000000FFFF000000FFFFFFFF00000056
:1011A0000000000000000000FFFF000000FFFF0043
:1011B000FFFF0000FFFF0000FFFF00FFFF00000037
:1011C000FFFFFFFF00000000FFFFFFFFFF00000028
:1011D000FFFF00FFFFFF0000FFFF0000FFFFFF0019
:1011E000000000000000000000FFFF000000000001
:1011F00000FFFF000000000000FFFF0000000000F3
:1012000000FFFF000000000000FFFF0000000000E2
:1012100000FFFF000000000000FFFFFFFFFFFF00D6
:101220000000000000000000FFFF000000FFFF00C2
:10123000FFFFFF00FFFFFF00FFFFFFFFFFFFFF00BB
:10124000FFFFFFFFFFFFFF00FFFF00FF00FFFF00AA
:10125000FFFF000000FFFF00FFFF000000FFFF0096
:101260000000000000000000FFFF000000FFFF0082
:10127000FFFFFF0000FFFF00FFFFFFFF00FFFF0079
:10128000FFFFFFFFFFFFFF00FFFF00FFFFFFFF006B
:10129000FFFF0000FFFFFF00FFFF000000FFFF0057
:1012A000000000000000000000FFFFFFFFFF000043
:1012B000FFFF000000FFFF00FFFF000000FFFF0036
:1012C000FFFF000000FFFF00FFFF000000FFFF0026
:1012D000FFFF000000FFFF0000FFFFFFFFFF000017
:1012E0000000000000000000FFFFFFFFFFFF000004
:1012F000FFFF000000FFFF00FFFF000000FFFF00F6
:10130000FFFF000000FFFF00FFFFFFFFFFFF0000E7
:10131000FFFF000000000000FFFF000000000000D1
:10132000000000000000000000FFFFFFFFFF0000C2
:10133000FFFF000000FFFF00FFFF000000FFFF00B5
:10134000FFFF000000FFFF00FFFF00FFFFFFFF00A7
:10135000FFFF0000FFFF000000FFFFFFFF00FF0096
:101360000000000000000000FFFFFFFFFFFF000083
:10137000FFFF000000FFFF00FFFF000000FFFF0075
:10138000FFFF0000FFFFFF00FFFFFFFFFF00000067
:10139000FFFF00FFFFFF0000FFFF0000FFFFFF0057
:1013A000000000000000000000FFFFFFFF00000041
:1013B000FFFF0000FFFF0000FFFF00000000000033
:1013C00000FFFFFFFFFF00000000000000FFFF0024
:1013D000FFFF000000FFFF0000FFFFFFFFFF000016
:1013E000000000000000000000FFFFFFFFFFFF0003
:1013F000000000FFFF000000000000FFFF000000F1
:10140000000000FFFF000000000000FFFF000000E0
:10141000000000FFFF000000000000FFFF000000D0
:101420000000000000000000FFFF000000FFFF00C0
:10143000FFFF000000FFFF00FFFF000000FFFF00B4
:10144000FFFF000000FFFF00FFFF000000FFFF00A4
:10145000FFFF000000FFFF0000FFFFFFFFFF000095
:101460000000000000000000FFFF000000FFFF0080
:10147000FFFF000000FFFF00FFFF000000FFFF0074
:10148000FFFFFF00FFFFFF0000FFFFFFFFFF000067
:101490000000FFFFFF000000000000FF0000000050
:1014A0000000000000000000FFFF000000FFFF0040
:1014B000FFFF000000FFFF00FFFF00FF00FFFF0035
:1014C000FFFFFFFFFFFFFF00FFFFFFFFFFFFFF002A
:1014D000FFFFFF00FFFFFF00FFFF000000FFFF0016
:1014E0000000000000000000FFFF000000FFFF0000
:1014F000FFFFFF00FFFFFF0000FFFFFFFFFF0000F7
:101500000000FFFFFF00000000FFFFFFFFFF0000E3
:10151000FFFFFF00FFFFFF00FFFF000000FFFF00D5
:10152000000000000000000000FFFF0000FFFF00BF
:1015300000FFFF0000FFFF0000FFFF0000FFFF00B3
:101540000000FFFFFFFF0000000000FFFF000000A1
:10155000000000FFFF000000000000FFFF0000008F
:101560000000000000000000FFFFFFFFFFFFFF0082
:1015700000000000FFFFFF00000000FFFFFF000071
:101580000000FFFFFF00000000FFFFFF0000000061
:10159000FFFFFF0000000000FFFFFFFFFFFFFF0055
:1015A00000000000000000000000FFFFFFFF00003F
:1015B0000000FFFF000000000000FFFF000000002F
:1015C0000000FFFF000000000000FFFF000000001F
:1015D0000000FFFF000000000000FFFFFFFF000011
:1015E00000000000000000000000FFFFFFFF0000FF
:1015F00000FF00000000FF00FF0000FFFF0000FFF1
:10160000FF00FF00000000FFFF00FF00000000FFE0
:10161000FF0000FFFF0000FF00FF00000000FF00D0
:101620000000FFFFFFFF00000000FFFFFFFF0000C2
:1016300000000000FFFF000000000000FFFF0000AE
:1016400000000000FFFF000000000000FFFF00009E
:1016500000000000FFFF00000000FFFFFFFF000090
:1016600000000000000000000000FF00000000007B
:1016700000FF00FF00000000FF000000FF0000006E
:10168000000000000000000000000000000000005A
:10169000000000000000000000000000000000004A
:1016A000000000000000000000000000000000003A
:1016B000000000000000000000000000000000002A
:1016C000000000000000000000000000000000001A
:1016D0000000000000000000FFFFFFFFFFFFFF0011
:1016E000000000000000000053445F4D5553494383
:1016F0004441540046494C452053445F4D5553499D
:10170000432E444154204E4F5420464F554E4420C2
:101710004F4E2053442043415244000011241FBE29
:10172000CFEFD0E1DEBFCDBF11E0A0E0B1E0E2E15C
:10173000FBE302C005900D92A230B107D9F727E074
:10174000A2E0B1E001C01D92AB38B207E1F714BED0
:101750000FB6F894A895809160008861809360002E
:10176000109260000FBE0E942411811102C00E94DD
:101770000211F894E1EAF4E080E8819326E0ED3A82
:10178000F207D9F781EA94E09093AE068093AD0614
:101790001092AF061092B2061092B8061092BE06D2
:1017A0001092C406109276041092780482E180931D
:1017B000770480EE80937E0484E180937D04109210
:1017C000820410928104109286041092850481E0B4
:1017D0008093B1060E94A41B80E990E0FC01259152
:1017E0003491F901FF273083029620E08E3B920767
:1017F000A9F778940E94A31B0E94F31C0C94871DE8
:101800000C9400000BE90A95F1F70091CE06E8E68A
:10181000F4E023E0029FE00DF11DC0E2D1E0209151
:1018200086073CE3321B300F201751F00000000008
:10183000A191B1911C9111930C9303950217C0F3E0
:1018400013E01A95F1F700C03A95D1F7209074048F
:101850003090750400917004109171046801380192
:101860008CE1C0E2D1E04E010024309173043030AD
:1018700009F0C8E609F0D4E009F0832F09F061010E
:1018800000EEA02E662778E00CD336E23A95F1F709
:1018900000000E947A0C3FE03A95F1F7000000004A
:1018A000AA94A9F06395C895683031F033E03A9571
:1018B000F1F700000000E8CF662700243EE1C30FE7
:1018C000D01D8A9509F4E40109F46301DDCF36E007
:1018D0003A95F1F7E6D211240E94801BE09178043A
:1018E00042E0E160E427E0937804E2E0E093360030
:1018F00011240895DE01679F860100501040000DFD
:10190000111D180108E614E0000D111D280130E436
:101910001EE12D91239FA101203008F4A201040EA5
:10192000151EF0012030F0F0059108B92D910591B8
:1019300008B9239F059108B920300000059108B926
:1019400008F4A201059108B9040E151E059108B905
:1019500020301A95059108B9059131F1F00108B9C7
:1019600018F700C0019108B92D910191000008B944
:10197000239F0191000008B9203000C0019108B9EF
:1019800008F0A1010191040E08B9151E00C00191D3
:1019900008B9203000C0019108B901911A9521F0D1
:1019A000F00108B908F6DECF08B90027C895000095
:1019B00008B9089520E4E0917004F0917104829FC9
:1019C000E00DF11DA8E6B4E0629FA00DB11D1590D9
:1019D0001D9215901D9215901D9215901D921590B7
:1019E0001D9215901D9215901D9215901D921590A7
:1019F0001D9215901D9215901D9215901D92159097
:101A00001D9215901D9215901D9215901D92159086
:101A10001D9215901D9215901D9215901D92159076
:101A20001D9215901D9215901D9215901D92159066
:101A30001D9215901D9215901D9215901D92159056
:101A40001D9215901D9215901D9215901D92159046
:101A50001D9215901D9215901D9215901D92159036
:101A60001D9215901D9215901D9215901D92159026
:101A70001D9215901D9215901D9215901D92159016
:101A80001D9215901D9215901D9215901D92159006
:101A90001D9215901D9215901D9215901D921590F6
:101AA0001D9215901D9215901D9215901D921590E6
:101AB0001D9215901D9215901D9215901D921590D6
:101AC0001D9215901D9215901D9215901D92112436
:101AD000089520E4E8E6F4E0829FE00DF11DA8E619
:101AE000B4E0629FA00DB11D11901D9211901D9246
:101AF00011901D9211901D9211901D9211901D92A6
:101B000011901D9211901D9211901D9211901D9295
:101B100011901D9211901D9211901D9211901D9285
:101B200011901D9211901D9211901D9211901D9275
:101B300011901D9211901D9211901D9211901D9265
:101B400011901D9211901D9211901D9211901D9255
:101B500011901D9211901D9211901D9211901D9245
:101B600011901D9211901D9211901D9211901D9235
:101B700011901D9211901D9211901D9211901D9225
:101B800011901D9211901D9211901D9211901D9215
:101B900011901D9211901D9211901D9211901D9205
:101BA00011901D9211901D9211901D9211901D92F5
:101BB00011901D9211901D9211901D9211901D92E5
:101BC00011901D9211901D9211901D9211901D92D5
:101BD00011901D9211901D9211901D9211901D92C5
:101BE00011901D9211901D92112408950F931F932F
:101BF000CF93DF9394E0899FE8E6F4E0E00DF11DD8
:101C000003818281E0E48E9FD00198E0099FC8E6BD
:101C1000D4E00024C10DD01DE881F981EA0FFB1F3B
:101C2000A8E6B4E090E4699FA00DB11D1124DD2762
:101C3000403051F4A20FB11D822FC22F00FF11C0FE
:101C40003796C0E1C21B0DC088E0821B00FD04C0B6
:101C5000C82FE80FF11D05C0C8E0C20FE20FF11D4B
:101C60003197503051F498E0939FA00DB11D932F00
:101C700001FDE85C01FDFF4F0AC098E0931B632F54
:101C80006A9501FF692F58E0569FE00DF11D6FEF37
:101C90007FEF00FF61E000FF772701FD60971124CF
:101CA0003EEF58E0591B48E0481B249123132C9326
:101CB0001196E60FF71F4A95C1F7EC0FFD1FA80F0D
:101CC000B11D5A9581F7DF91CF911F910F91089522
:101CD0000F921F92EF93FF93EFB7EF93E091840081
:101CE000E251F1E0EF1700F0F395FA30D8F30C94DD
:101CF000790EE0917704EA95E0937704F091760409
:101D0000F0FD57C0EC3098F0F3E0F0938900FDE867
:101D1000F0938800E0FB289826F4E1E00E944B1045
:101D2000B9C0E5E1EA95F1F70000289AB3C0E630C2
:101D300038F100C000C02898E0FBE4E016F40E94EF
:101D40004B10E4E0E0933600E6E0E0936F00A2C0C1
:101D5000EF93EFB7EF93E0918400ED55E13000F0A1
:101D6000E23000F0E33000F0E43000F0E53000F065
:101D7000289AE2E0E0936F00EF91EFBFEF911895A2
:101D800000C0E0FB289826F4E1E00E944B1005C05B
:101D9000E5E1EA95F1F70000289AE0917704E03058
:101DA00009F078C0EDEFE0937704E1E0E09376048A
:101DB00071C0E7E0E0938900EBE1E093880000C0A8
:101DC0002898E2E000C00E944B10FDEF00907D04D7
:101DD000F019E0917704EF17E0F4FDEF00907D0437
:101DE000F01900907E04F019EF1798F0EDE1FF274D
:101DF00000800F92EA95E1F70FE10A95F1F70000F4
:101E000000000E94020CE1E0FF270F900192EE31EA
:101E1000E0F3E0917704E03009F03CC02F933F936A
:101E20004F935F936F937F938F939F93AF93BF93E2
:101E300078941124EE27E0937604E2E1E0937704AE
:101E400080918704909188040196809387049093F1
:101E50008804E0917904F0917A04E115F10509F024
:101E600009950E94F2100E94A51B0E945C0F11248C
:101E7000E0917B04F0917C04E115F10509F00995EE
:101E8000BF91AF919F918F917F916F915F914F9192
:101E90003F912F91EF91EFBFFF91EF911F900F9026
:101EA00018952898E2E000C00E944B10E09177045A
:101EB000EA95E09377040895E091B106E0FD0E9471
:101EC00002120090AF06002019F4A1EAB4E002C0AB
:101ED000A7EAB5E021E002260092AF0622E02093B7
:101EE000B006E091B106E0FF08952F923F924F9225
:101EF0005F926F927F928F929F92AF92BF92CF929A
:101F0000DF92EF92FF920F931F93CF93DF93509145
:101F1000C406E091C806F091C9068091C7064090BA
:101F2000C5065090C60666245F010090CA06109050
:101F3000CB06A018B1088090CC069090CD061D016C
:101F4000C3E8840DE51DF61DE815F90508F0F50157
:101F5000449145031D92840DE51DF61DE815F90514
:101F600008F0F501449145031D92CA9551F7D1013E
:101F70005093C406E093C806F093C9068093C70641
:101F80002090B3063090B4064090B6065090B70645
:101F90006090B5061091B2067090B9068090BA06AE
:101FA0009090BB06A090BC06B090BD062091B806EC
:101FB000C090BF06D090C006E090C206F090C30665
:101FC0000091C1063091BE069FEFCC91DD27C7FD81
:101FD000DFEF620C431CF201449141030008C10D84
:101FE000D01D970CA81CF501449142030008C10DB7
:101FF000D01D0C0DED1CF701449143030008C10DE9
:10200000D01D0024C038D0050CF0CFE70A94C038AA
:10201000D0050CF4C0E8C058CD939A9509F0D5CFFF
:102020004091B0064A954093B00697E009F0CDCFB5
:102030006092B5064092B6069092BB06A092BC068E
:102040000093C106E092C206DF91CF911F910F91DC
:10205000FF90EF90DF90CF90BF90AF909F908F90C8
:102060007F906F905F904F903F902F900895E091F8
:10207000AD06F091AE06019100000093B30006E0BA
:10208000ED3AF00701EA14E008F0F801E093AD063C
:10209000F093AE0608950F931F932F93EF93E09163
:1020A000AD06F091AE0601910093B30006E0ED3A63
:1020B000F00701EA14E008F0F801E093AD06F093B0
:1020C000AE06E8E0EA95F1F7EF912F911F910F919D
:1020D000E0FD289AE0FF01C00895F4E1FA95F1F7D8
:1020E00000C0E1FD289AE1FF00C00895E8E4F3E0B4
:1020F000A0E2B1E060E06D933197E9F71124089513
:1021000050917204450F00C0992777272EE1629FF6
:10211000080E191EA0E2B1E0A00DB11D40504C9375
:10212000112408958093720408958093700490930D
:10213000710408958091780481700895F999FECF13
:1021400092BD81BD60BDF894FA9AF99A7894089589
:10215000F999FECF92BD81BDF894F89A80B5789434
:10216000089598E088E10FB6F894A89580936000F0
:102170000FBE90936000FFCF129AC895C895C8957E
:10218000C895129840E180E090E020E030E036957C
:10219000279596958795C895C895C895C89513981D
:1021A000009B3068019B9068139AC895C895C895A4
:1021B000C895415061F73093800420937F04909339
:1021C00084048093830480917F04909180040F970E
:1021D00031F080918304909184040F9711F40E9450
:1021E000B11008951092D606009903C081E0809343
:1021F000D606019905C08091D60682608093D606E6
:102200000C94BC10CF93DF93C0E0D0E0FE01E05906
:10221000FF4F6491CE010E949E102196C032D105DD
:10222000A9F7C0E2D0E06FEFCE010E949E106FEFE1
:10223000CE0101960E949E10A096C11588E0D80795
:1022400091F7DF91CF910895CF9380E090E00E94C5
:10225000A810C82F81E090E00E94A810282F30E03D
:10226000322F22272C0F311D81E02A35354509F008
:1022700080E0CF910895FC01678708950895FC01DF
:1022800082810C94F914FC019181690F6183828130
:102290000C94E514FC019181961B692F9183828136
:1022A0000C94E514FC0190819F7590830895FC01C6
:1022B0009081906490830895FC01668708951F9330
:1022C000CF93DF93EC01162F8A810E94E5141983C6
:1022D0008881877F8883DF91CF911F910895FC01CA
:1022E00062870895FC0163870895CF93DF93EC0123
:1022F000462F298130E0F901EE0FFF1FE85FF44D12
:1023000065917491F901E40FF11D47FDFA95EE0F07
:10231000FF1FE85FF44D85919491861B970B6885AC
:1023200070E00E94731D6115710511F461E070E0A9
:10233000EA8186E0E89FF0011124EE54F94F818193
:102340009281860F971F928381837E836D8388811C
:10235000886088838981480F4F83DF91CF910895EA
:10236000FC0160870895FC0164830895DC011496E4
:102370008C911497882319F155962D913C9156977D
:10238000662379F0062E000C770B6F5F7F4FAB0151
:10239000440F551F640F751F261B370B09C0EF3FF5
:1023A00039F023503109F9013297E491ED30B9F752
:1023B00056963C932E935597815014968C9308957E
:1023C000E9EDF6E09FEF80818F77808393837796A6
:1023D00087E0E533F807B9F710923F0710923E0700
:1023E0001092D8061092D70610928107109280079B
:1023F00010923C0710923D071092380781E08093BD
:10240000A00408956F927F928F929F92AF92BF9295
:10241000CF92DF92EF92FF920F931F93CF93DF93B0
:1024200009ED16E0E2EBEE2EE6E0FE2ED701E80124
:1024300020E030E0F901E752F94F8785882389F0E1
:102440004685082E000C990B840F911D8F3F910536
:1024500019F014F08FEF90E097FF02C080E090E059
:102460008687688163FF26C04D815E8111968D91BC
:102470009C911297840F951F12969C938E9311979F
:10248000E781F0E0EE0FFF1FE85FF44DC590D490B8
:102490001416150624F48C159D0530F40BC0452B3D
:1024A00049F0C816D90630F01296DC92CE921197F8
:1024B000677F6883295E3F4F679616962C353105F6
:1024C00009F0B8CF8091A0048823C1F180913C0726
:1024D000882319F0815080933C07D7E124C00E94E3
:1024E0000B14C82F8F3FD1F1807E803AD0F5DC2EBF
:1024F000D294D69497E0D9220E940B14482F4078AA
:1025000050E05595479555954795CF71C42B4C2F65
:10251000440FDD9DF0011124E752F94F282F608907
:102520008D2D0E94A51480913C07811107C00E9447
:10253000F6138230A0F681E080933C07C2EEAC2E09
:10254000C6E0BC2EDCEECD2ED6E0DD2ECDEED6E004
:1025500088248A94912C5EC0823081F51092A00468
:10256000EDCF803A51F40E940B14C770DC9FF0014C
:102570001124E752F94F808BD6CF803C69F58C2F20
:10258000837089F480913E0790913F0790933A07BA
:1025900080933907809180079091810790933F073E
:1025A00080933E07C0CF8130B9F680913E0790916D
:1025B0003F079093810780938007B5CFCC71C69574
:1025C000C695CF5FC0933C07C73009F0ACCF0E94DF
:1025D0000B1480933C07A7CF8C2F8770D82EC8711F
:1025E0000E940B142D2D30E0880FD29FF001D39F55
:1025F000F00D1124E752F94FC11102C0848793CF27
:10260000C83011F483838FCFC03111F482878BCF10
:10261000838789CFD8018C9185FF52C055962D9123
:102620003C915697232B09F44BC086FD49C03E01CF
:10263000B2E06B1A7108D6019C91F3018081981366
:102640003CC0D8015596ED91FC915697BF016F5F44
:102650007F4F56967C936E93559784918F3F39F4B4
:10266000F80180818F778083168A158A26C09F01A2
:102670002E5F3F4FD80156963C932E935597FB0102
:102680006491E82FF0E0EE0FFF1FE254FF4F259119
:102690003491C801F9010995D8015596ED91FC9145
:1026A0005697CF01019656969C938E935597E49139
:1026B000D301EC93F6011082BECF9F5FD6019C93AD
:1026C000F801908195FF5EC088818F3F11F08F5F88
:1026D000888397FD04C0FE013897908101C09FEF69
:1026E000FE0137978081882309F441C031965081DB
:1026F000552309F43CC09923D1F140913B07442371
:10270000B1F1899FC00111249395892F9927589F72
:102710009001599F300D11243395232F3327429F69
:10272000C001439F900D11249395892F99273497C9
:1027300020812223F1F0D501EC91F0E0E050F34D3F
:10274000E491E0582E9FF0011124F395EF2FFF271D
:10275000A4014E1B5F0B489F9001499F300D589F6D
:10276000300D1124C9019395892F992702C080E06B
:1027700090E0F5013081FE0139972081230FD501CA
:102780002C9302C080E090E0F7018083095E1F4F28
:10279000F6E0EF0EF11C87E1A80EB11CA7E1CA0E0E
:1027A000D11C6796B7E005331B0709F033CFDF91E3
:1027B000CF911F910F91FF90EF90DF90CF90BF903E
:1027C000AF909F908F907F906F9008954091830776
:1027D00050E02091370730E02F5F3F4F2F733327B2
:1027E00081E04217530709F080E008958091370790
:1027F00090918307981708F0805C891B0895909149
:102800003707E92FF0E0E05CF84F80839F5F9F730C
:1028100090933707089590918307E92FF0E0E05CEB
:10282000F84F80819F5F9F739093830720913E07AD
:1028300030913F072F5F3F4F30933F0720933E0774
:102840000895AF92BF92CF92DF92EF92FF920F93D3
:102850001F93CF93DF931F92CDB7DEB75C01E62EB7
:10286000FC018081F82FF078FF2EF50117869FEF8D
:1028700096874587148A877B8083128611862183F9
:1028800014828281F9E06F9F80011124833051F519
:102890001092C7068091350790913607800F911FDF
:1028A000FC013196A591B491B093C906A093C806D6
:1028B000AC01495F5F4FFA01C590D4900596FC01C9
:1028C00065917491C61AD70AD092CB06C092CA06F7
:1028D000FA0185919491A80FB91FB093CD06A093EA
:1028E000CC0605C060E029830E94F9142981622F7B
:1028F000F50182810E94E514F501FF2011F0E18AC3
:1029000001C0E08AE0913507F0913607E00FF11F32
:10291000339685919491F501009719F4168A158ADA
:1029200008C0138AFC012491F501228B0196968B35
:10293000858B0F90DF91CF911F910F91FF90EF90BA
:10294000DF90CF90BF90AF900895CF93DF93A82FE3
:10295000B0E097E1899FF0011124E752F94F80819F
:1029600085FF02C087FD2EC0211118C097E19A9FF4
:10297000F0019B9FF00D1124E752F94F97859111BB
:1029800002C086FF158697E19A9FF0019B9FF00D8C
:102990001124E752F94F8F7B808314C0822F242F9C
:1029A00097E19A9FE0019B9FD00D1124C752D94F08
:1029B00018821E8A1D8A482FCE010E942114888108
:1029C00080628883DF91CF91089599277727E8E087
:1029D000FBE2660F771FE60FF71FA591B491E2EBBC
:1029E000F6E026E0289FE00DF11DA183B2831124BB
:1029F000089599277727E2EBF6E026E0289FE00D7F
:102A0000F11D7DE2760F758311240895000000000A
:102A100000000000000000000000000000000000B6
:102A200000000000000000000000000000000000A6
:102A30000000000000000000000000000000000096
:102A40000000000000000000000000000000000086
:102A50000000000000000000000000000000000076
:102A60000000000000000000000000000000000066
:102A70000000000000000000000000000000000056
:102A80000000000000000000000000000000000046
:102A90000000000000000000000000000000000036
:102AA0000000000000000000000000000000000026
:102AB0000000000000000000000000000000000016
:102AC0000000000000000000000000000000000006
:102AD00000000000000000000000000000000000F6
:102AE00000000000000000000000000000000000E6
:102AF00000000000000000000000000000000000D6
:102B000080E08093B106089522002400260028006A
:102B10002B002D0030003300360039003D0040000E
:102B2000440048004C00510056005B006000660005
:102B30006C00730079008100880090009900A20069
:102B4000AC00B600C100CC00D800E500F3000101E4
:102B5000100121013201440157016C0181019801EA
:102B6000B001CA01E50102022102410264028802A9
:102B7000AE02D7020303300361039403CB030504C1
:102B800042048304C70410055D05AF050506610610
:102B9000C206290796070908830805098E09200A35
:102BA000BA0A5D0B0A0CC10C840D510E2B0F1210CA
:102BB00007110A121D1340147415BA16141883193C
:102BC000071BA31C571E24200E22142439267F28FD
:102BD000E82A752D293006330F364539AD3C49407A
:102BE0001B442848734CFE50CF55EA5A51600C667E
:102BF0001D6C8B725A79928037885090E598FDA1B0
:102C00009FABD3B5A3C0000000000000000000008F
:102C100000000000000000000000000000000000B4
:102C200000000000000000000000000000000000A4
:102C30000000000000000000000000000000000094
:102C40000000000000000000000000000000000084
:102C50000000000000000000000000000000000074
:102C60000000000000000000000000000000000064
:102C70000000000000000000000000000000000054
:102C80000000000000000000000000000000000044
:102C90000000000000000000000000000000000034
:102CA0000000000000000000000000000000000024
:102CB0000000000000000000000000000000000014
:102CC0000000000000000000000000000000000004
:102CD00000000000000000000000000000000000F4
:102CE00000000000000000000000000000000000E4
:102CF00000000000000000000000000000000000D4
:102D0000000306090C101316191C1F2225282B2E50
:102D1000313336393C3F414447494C4E5153555865
:102D20005A5C5E60626466686A6B6D6F7071737422
:102D3000757678797A7A7B7C7D7D7E7E7E7F7F7FDB
:102D40007F7F7F7F7E7E7E7D7D7C7B7A7A797876C1
:102D500075747371706F6D6B6A68666462605E5CD7
:102D60005A585553514E4C494744413F3C393633EC
:102D7000312E2B2825221F1C191613100C090603AF
:102D800000FDFAF7F4F0EDEAE7E4E1DEDBD8D5D2B6
:102D9000CFCDCAC7C4C1BFBCB9B7B4B2AFADABA881
:102DA000A6A4A2A09E9C9A9896959391908F8D8CA4
:102DB0008B8A8887868685848383828282818181CB
:102DC0008181818182828283838485868687888AC5
:102DD0008B8C8D8F9091939596989A9C9EA0A2A48F
:102DE000A6A8ABADAFB2B4B7B9BCBFC1C4C7CACD5A
:102DF000CFD2D5D8DBDEE1E4E7EAEDF0F4F7FAFD77
:102E0000808182838485868788898A8B8C8D8E8F4A
:102E1000909192939495969798999A9B9C9D9E9F3A
:102E2000A0A1A2A3A4A5A6A7A8A9AAABACADAEAF2A
:102E3000B0B1B2B3B4B5B6B7B8B9BABBBCBDBEBF1A
:102E4000C0C1C2C3C4C5C6C7C8C9CACBCCCDCECF0A
:102E5000D0D1D2D3D4D5D6D7D8D9DADBDCDDDEDFFA
:102E6000E0E1E2E3E4E5E6E7E8E9EAEBECEDEEEFEA
:102E7000F0F1F2F3F4F5F6F7F8F9FAFBFCFDFEFFDA
:102E8000000102030405060708090A0B0C0D0E0FCA
:102E9000101112131415161718191A1B1C1D1E1FBA
:102EA000202122232425262728292A2B2C2D2E2FAA
:102EB000303132333435363738393A3B3C3D3E3F9A
:102EC000404142434445464748494A4B4C4D4E4F8A
:102ED000505152535455565758595A5B5C5D5E5F7A
:102EE000606162636465666768696A6B6C6D6E6F6A
:102EF000707172737475767778797A7B7C7D7E7F5A
:102F000000020406080A0C0E10121416181A1C1ED1
:102F100020222426282A2C2E30323436383A3C3EC1
:102F200040424446484A4C4E50525456585A5C5EB1
:102F300060626466686A6C6E70727476787A7C7EA1
:102F40007F7D7B79777573716F6D6B696765636181
:102F50005F5D5B59575553514F4D4B494745434171
:102F60003F3D3B39373533312F2D2B292725232161
:102F70001F1D1B19171513110F0D0B090705030151
:102F8000FFFDFBF9F7F5F3F1EFEDEBE9E7E5E3E141
:102F9000DFDDDBD9D7D5D3D1CFCDCBC9C7C5C3C131
:102FA000BFBDBBB9B7B5B3B1AFADABA9A7A5A3A121
:102FB0009F9D9B99979593918F8D8B898785838111
:102FC00080828486888A8C8E90929496989A9C9E11
:102FD000A0A2A4A6A8AAACAEB0B2B4B6B8BABCBE01
:102FE000C0C2C4C6C8CACCCED0D2D4D6D8DADCDEF1
:102FF000E0E2E4E6E8EAECEEF0F2F4F6F8FAFCFEE1
:103000007F7F7F7F7F7F7F7F7F7F7F7F7F7F7F7FD0
:103010007F7F7F7F7F7F7F7F7F7F7F7F7F7F7F7FC0
:103020007F7F7F7F7F7F7F7F7F7F7F7F7F7F7F7FB0
:103030007F7F7F7F7F7F7F7F7F7F7F7F7F7F7F7FA0
:103300000309131E28313A40464C5054585B5E6105
:10331000636567696B6C6E6F7071727374757677C5
:10332000777879797A7A7B7B7C7C7C7D7D7D7E7EEB
:103330007E7E7F7F7F7F7F7F7F7F7F7F7F7F7F7F9F
:103340007F7F7F7F7F7F7F7F7F7F7F7F7F7E7E7E90
:103350007E7D7D7D7C7C7C7B7B7A7A7979787777C2
:10336000767574737271706F6E6C6B69676563618B
:103370005E5B5854504C46403A31281E13090300F6
:10338000C6CCD5DBDFE3E5E7E9EAEBECEDEEEFEF0A
:10339000F0F0F0F1F1F1F1F2F2F2F2F2F2F2F2F316
:1033A000F3F3F3F3F3F3F3F3F3F3F3F3F3F3F3F3ED
:1033B000F3F3F3F3F3F3F3F3F3F3F3F3F3F3F3F3DD
:1033C000F3F3F3F3F3F3F3F3F3F3F3F3F3F3F3F3CD
:1033D000F3F3F3F3F3F3F3F3F3F3F3F3F3F3F3F3BD
:1033E000F2F2F2F2F2F2F2F2F1F1F1F1F0F0F0EFCA
:1033F000EFEEEDECEBEAE9E7E5E3DFDBD5CCC60089
:1034000000283D42302D2C2B2C2D2E2F30323335E1
:1034100037393B3D3F414345484A4C4E5053555741
:10342000595B5D5F61636567696B6C6E7071737426
:10343000757778797A7B7C7D7D7E7E7F7F7F7F7FCD
:103440007F7F7F7F7F7F7E7E7D7D7C7B7A797877B3
:1034500075747371706E6C6B69676563615F5D5BDA
:1034600059575553504E4C4A484543413F3D3B39CF
:1034700037353332302F2E2D2C2B2C2D30423D283A
:1034800000E9E5FED4D7D7D7D6D4D2D0CECCCAC89F
:10349000C6C3C1BFBDBAB8B6B4B1AFADABA9A7A5DD
:1034A000A3A19F9E9C9A999795949391908F8D8CB0
:1034B0008B8A8988888786858584848483838383AF
:1034C0008383838383848484858586878888898AA7
:1034D0008B8C8D8F909193949597999A9C9E9FA198
:1034E000A3A5A7A9ABADAFB1B4B6B8BABDBFC1C3B0
:1034F000C6C8CACCCED0D2D4D6D7D7D7D4FEE5E969
:10350000F9F8F9F5EBE1DDDEE0E2E4E5E6E5E4E239
:10351000DED9D2CAC1B7ACA299918A868381808054
:103520008182838586888A8C8D8F909293959697D9
:1035300098999A9B9B9C9D9D9D9E9E9E9F9F9F9FC1
:103540009F9F9F9E9E9E9D9D9D9C9B9B9A999897B9
:1035500096959392908F8D8C8A88868583828180C0
:10356000808183868A9199A2ACB7C1CAD2D9DEE2A2
:10357000E4E5E6E5E4E2E0DEDDE1EBF5F9F8F900AB
:103580000708070B151F2322201E1C1B1A1B1C1EBD
:1035900022272E363F49545E676F767A7E7F7F7F83
:1035A0007F7E7D7B7A7876747371706E6D6B6A69DD
:1035B00068676665656464636362626261616161D4
:1035C00061616162626263636364656566676869BD
:1035D0006A6B6D6E7071737476787A7B7D7E7F7F97
:1035E0007F7F7E7A766F675E54493F362E27221E94
:1035F0001C1B1A1B1C1E2022231F150B070807006B
:103600001F313D444E5354565A5F64696E74767947
:103610007C7F7F7F7F7F7F7F7F7F7F7F7F7F7F7FBD
:103620007F7F7F7F7F7F7F7F7F7F7F7F7F7F7F7FAA
:103630007F7F7F7F7F7F7F7F7F7F7F7F7F7F7F7F9A
:103640007F7F7F7F7F7F7F7F7F7F7F7F7F7F7F7F8A
:103650007F7F7F7F7F7F7F7F7F7F7F7F7F7F7F7F7A
:103660007F7F7F7F7F7F7F7F7F7F7F7F7F7F7F7F6A
:103670007F7F7F7F7F7F7F7F7F7F7F7C7871684CBC
:103680002C1C120C0A0B0A05FDF3E9DFD4CAC0B7E3
:10369000AEA69E97918B8685828080808080808078
:1036A000808080808080808080808080808080801A
:1036B000808080808080808080808080808080800A
:1036C00080808080808080808080808080808080FA
:1036D00080808080808080808080808080808080EA
:1036E00080808080808080808080808080808080DA
:1036F000808080808087919DACC4CBD4DDF2FAFAC3
:103700008091CE0690918607891778F4E82FF0E033
:103710009F01220F331FE20FF31FE859FB4FA081D7
:10372000B18192819C938F5FEDCF089580910001CC
:10373000882341F08091CF068093CE068093860740
:103740000C94801B0895089508950E94C41B0C9446
:10375000961B0F931F93CF93DF93062FC42FD52F64
:10376000182F141BFE014491442349F04F77405217
:10377000602F8C2F810F0E9480102196F3CFDF9154
:10378000CF911F910F91089580918707882301F1B0
:1037900080918807811119C08091840780938807E0
:1037A000E0918907F0E0E552FF4FE491E7B990918D
:1037B000850780918907890F80938907882311F0F5
:1037C0008D3031F4109287070895815080938807D7
:1037D0000895689401C0E8942F920F931F93CF939C
:1037E000DF938F939F9352D0E6D086EC91E05ED02A
:1037F00063D0DC019B01F4D0CD01B901DCD08BE0BA
:1038000054D05CD070E246D05FD0282E57D048D03C
:1038100081E04BD053D08C01702D3CD083E045D05B
:103820004DD0880F991F3CD0DBD0CD01B901C3D05A
:10383000C00136D05F914F91EA016BE07E7F44D0AA
:10384000FE010EF091910EF49591EF01891709F0A8
:1038500071606A95A1F770FF08C00150110911F459
:1038600015D00EC085E121D0E7CF8FE01ED026D045
:103870008250910915D02A94E9F7B2D0B901CD014F
:10388000DF91CF911F910F912F90089560E070E02C
:10389000CB010895969587957695E0F7082E0895C3
:1038A000280F391FA11DB11D089590E0BC010CD057
:1038B00061507040E1F7089501D0BC0105D0482F58
:1038C00003D0582FCA0108958FEF8EBDE091D00626
:1038D000F091D1063196E093D0068F2F81708093BE
:1038E000D106F1FF09C008D08F9304D003D033D0A4
:1038F0008F9108958FEF8EBD8DB587FFFDCF8EB56B
:1039000008959AE0F7DF9A95E9F7089581E08F939B
:103910005E9AF0DF8F91089540E050E0BA015E9822
:10392000EADF872FE8DF862FE6DF852FE4DF842FAD
:10393000E2DF85E9E0CF07D08F93DCDF8F3FE9F747
:10394000E7CF01D0E4CFEFEFFFEF319719F0D2DFEF
:1039500087FDFBCF0895EFEFFFEF319719F0CADF36
:103960008E3FD9F7FF27EE2708952F9A2D9A2E9A8A
:10397000279A259A5E9A569AE0E0F0E23197F1F79D
:1039800083E58CBDBEDF30E280E4C6DFDADF813064
:1039900019F03A95C9F7BACF3FEF81E4BDDFD1DF27
:1039A000803019F03A95C9F7B1CF2E9890E59CBDBB
:1039B00091E09DBDACCF982F872F762F6627770F8C
:1039C000881F991FAB01BC0182E5A9DFC4DF8E3FD0
:1039D00009F09CCF1092D0061092D1068827089546
:1039E0008CE49ADFA8CF88EE90E00E94951080E2E8
:1039F0000E9492100E9476100E94B51C88EE96E1FB
:103A00000E94E91B611571058105910549F444EF98
:103A100056E160E070E080E090E00E94A91B02C0E7
:103A20000E94DB1C10928A070E94E613811105C0D8
:103A30000E94641C0E94FF13F7CF1092D2061092CE
:103A4000D3061092D4061092D50680E090E00E9432
:103A5000E01181E00E942D1DFCCF809139079091EB
:103A60003A07892BE9F080913E0790913F0720911A
:103A7000390730913A074091800750918107840FB0
:103A8000951F821B930B90933F0780933E071092E4
:103A90003A071092390704C080918A07882329F0D9
:103AA0000E949A108823C1F309C00E94E613811175
:103AB000F7CF0E94641C0E94FF13F2CF0895AA1B47
:103AC000BB1B51E107C0AA1FBB1FA617B70710F009
:103AD000A61BB70B881F991F5A95A9F7809590953B
:103AE000BC01CD01089597FB072E16F4009407D072
:103AF00077FD09D00E945F1D07FC05D03EF490952C
:103B000081959F4F0895709561957F4F0895F89422
:023B1000FFCFE5
:023B12000100B0
:00000001FF
